:10004E00BFBEBDBCBAB9B8B6B5B4B3B1B0AFAEAC45
:10005E00ABAAA9A7A6A5A4A3A2A09F9E9D9C9B9A6E
:10006E00999897969594939291908F8F8E8D8C8B65
:10007E008B8A898988878786858584848383838212
:10008E00828281818180808080808080808080805B
:10009E008080808080808081818182828283838340
:1000AE00848485858687878889898A8B8B8C8D8EBB
:1000BE008F8F909192939495969798999A9B9C9DD9
:1000CE009E9FA0A2A3A4A5A6A7A9AAABACAEAFB0B3
:1000DE00B1B3B4B5B6B8B9BABCBDBEBFC1C2C3C563
:1000EE00C6C7C9CACBCCCECFD0D1D3D4D5D6D8D90A
:1000FE00DADBDCDDDFE0E1E2E3E4E5E6E7E8E9EACE
:10010E00EBECEDEEEFF0F0F1F2F3F4F4F5F6F6F7CA
:10011E00F8F8F9FAFAFBFBFCFCFCFDFDFDFEFEFE19
:10012E00FFFFFFFFFFFFFFFFFFFFFFFFFFFFFFFFD1
:10013E00FFFFFEFEFEFDFDFDFCFCFCFBFBFAFAF9EB
:10014E00F8F8F7F6F6F5F4F4F3F2F1F0F0EFEEED71
:10015E00ECEBEAE9E8E7E6E5E4E3E2E1E0DFDDDC4B
:10016E00DBDAD9D8D6D5D4D3D1D0CFCECCCBCAC961
:0E017E00C7C6C5C3C2C11B1E21252F34393F81
:10000E00C2AF53D9BF1200031200391202F07F8122
:10001E007E9F1202CD1203053000FDC28CD2DEC2CD
:0B002E0000E5E130E0F275E17E80EDBE
:0700030075B20775EF06223C
:1000390075E17F75E24075E34075F1FF75A401C272
:02004900802213
:1002F00075D98975DA4A75FAFFE4F5F975FCFF7569
:05030000FBFFC2DE223C
:1002CD00AD07AC06538EF45389F1438901C3E49D08
:1002DD00E49CFF8F8CEDF404F58A858C0A858A0BDE
:0302ED00D28C228E
:10030500E4F5A8F5E6C2B9D2A943F60843E608D252
:02031500AF2215
:03004B0002018C23
:10018C00C0E0C083C082C0D075D000C007C3E509F1
:10019C009420E5089403400CC2DED28C75080075DF
:1001AC0009008020744E250DF5827400350CF58302
:1001BC00E493FF744E2512F58274003511F583E437
:1001CC00932FF5FC050FE50F7002050EC3940CE59B
:1001DC000E94004068AF13EF900184932512F51232
:1001EC00E43511F511AF10EF90018893250DF50D45
:1001FC00E4350CF50CC3E5129436E5119401400C72
:10020C0074CA2512F51274FE3511F511C3E50D945F
:10021C0036E50C9401400C74CA250DF50D74FE35B1
:10022C000CF50C0509E50970020508C39420E508D6
:10023C009403400375FBFF750E00750F0075FAFFF4
:0D024C00C2DFD007D0D0D082D083D0E03206
:03000B0002025995
:10025900C0E0C0D075D000C000C007C28C850A8C30
:10026900850B8AD28CAF137402A807088002C333A6
:10027900D8FCF4F580C280E58CC394C040F9E580D0
:1002890054E0F51424A0601C24C0600E24E0701C06
:100299003085FD751000D20080123086FD75100181
:1002A900D20080083087FD751002D20020000C05AD
:1002B90013E513C394044003751300D007D000D08D
:0402C900D0D0E0327F
:03000000020317E1
:0C031700787FE4F6D8FD75812002000E0E
:00000001FF
