:020000040800F2
:10000000C80600203D020008611400085D140008C5
:100010005F1400085F050008951700080000000045
:10002000000000000000000000000000651400084F
:100030006105000800000000631400086714000850
:10004000570200085702000857020008570200082C
:10005000570200085702000865050008570200080B
:10006000570200085702000857020008570200080C
:1000700057020008570200085702000857020008FC
:10008000570200085702000857020008000000004D
:1000900000000000000000000000000057020008FF
:1000A00057020008570200085702000857020008CC
:1000B00057020008570200085702000857020008BC
:1000C00057020008570200085702000857020008AC
:1000D00057020008570200088917000800000000B6
:1000E00057020008570200085702000800000000ED
:1000F000000000000000000000000000570200089F
:1001000000000000570200085702000857020008CC
:1001100000000000000000000000000000000000DF
:10012000570200085702000857020008570200084B
:10013000570200080000000000000000000000005E
:10014000000000000000000000000000570200084E
:10015000570200085702000857020008570200081B
:1001600057020008570200080000000000000000CD
:10017000000000000000000000000000000000007F
:10018000000000005702000800000000000000000E
:100190005702000800F002F800F041F80AA090E8C9
:1001A000000C82448344AAF10107DA4501D100F032
:1001B00036F8AFF2090EBAE80F0013F0010F18BFBE
:1001C000FB1A43F001031847181B0000381B0000FE
:1001D000103A24BF78C878C1FAD8520724BF30C873
:1001E00030C144BF04680C60704700000023002445
:1001F00000250026103A28BF78C1FBD8520728BF37
:1002000030C148BF0B607047752900F0AF800020F7
:1002100070471FB501F052FD1FBD10B510BD00F0B5
:1002200064F91146FFF7F5FF01F000FC00F082F9D8
:1002300003B4FFF7F2FF03BC00F08AF909488047D6
:1002400009480047FEE7FEE7FEE7FEE7FEE7FEE7B8
:10025000FEE7FEE7FEE7FEE704480549054A064BD0
:1002600070470000F914000895010008C80000203C
:10027000C8060020C8020020C802002053EA020C71
:1002800000F069802DE9F04B4FF00006002B1FBFF6
:10029000B3FA83F503FA05F424FA05F65E4012BFBB
:1002A0001643B2FA82F502FA05F4C5F120051EBF25
:1002B00022FA05FC44EA0C04203556EA044C4FEAC5
:1002C000144418BF641C4FF000084FF0000990421E
:1002D00071EB030C39D3002919BFB1FA81F701FA88
:1002E00007F6B0FA80F700FA07F6C7F120071EBF3D
:1002F00020FA07FC46EA0C062037B6FBF4FCA7EB15
:100300000507103F07F01F0BCBF120062CFA06F66D
:100310000CFA0BFB44BFB3460026202FA4BF5E4659
:100320004FF0000B5BEA060C08BF4FF0010B19EB16
:100330000B0948EB0608ABFB027C06FB02CC0BFB6F
:1003400003CCC01B71EB0C01C1E70B4602464146D2
:100350004846BDE8F08B13B54FF000004FF00001A8
:10036000AFF30080BDE81C40704700002DE9F0416C
:100370000646002410687529314616A510D0AFF343
:100380000080002802DA404213A507E031688A079E
:1003900001D512A502E0490704D511A5012401E009
:1003A000AFF3008000210A2206F1240709E0B0FB28
:1003B000F2FCB0FBF2F302FB1C003030785418461C
:1003C000491C0028F3D123462A463046BDE8F041B7
:1003D00000F032B8000000002D0000002B000000EB
:1003E000200000004FF0000200B5134694469646E8
:1003F000203922BFA0E80C50A0E80C50B1F1200138
:10040000BFF4F7AF090728BFA0E80C5048BF0CC0E5
:100410005DF804EB890028BF40F8042B08BF704743
:1004200048BF20F8022B11F0804F18BF00F8012BB5
:1004300070477047704770472DE9F0470D46994661
:100440009246044600F124080168880604D5E06954
:1004500021F01001216000E00120A84201DD471BCE
:1004600000E00027A1697A1902EB0900081AA061CF
:100470002078C00602D42046AFF30080002608E0B2
:10048000D4E901211AF806009047206A401C761C26
:1004900020624E45F4DB2078C0060AD52046AFF333
:1004A000008006E0D4E9012130209047206A401CFA
:1004B0002062381EA7F10107F4DC07E0D4E901212E
:1004C00018F805009047206A401C2062281EA5F1FC
:1004D0000105F3DC2046AFF300802078000602D54A
:1004E0000220BDE8F0870120FBE7754600F02CF8FC
:1004F000AE4605006946534620F00700854618B011
:1005000020B5FFF7A9FEBDE820404FF000064FF0F0
:1005100000074FF000084FF0000BAC46ACE8C009F4
:10052000ACE8C009ACE8C009ACE8C00921F007019B
:100530008D46704710B50446AFF300802046BDE8F5
:100540001040FFF775BE00000048704768000020AB
:1005500001491820ABBEFEE7260002007047FEE707
:10056000704700007CB55548016841F00101016009
:1005700053484021016001F053F98DF807000DF157
:1005800007000121012601F049FA4E4D6C79A4F1D2
:100590002A0005280DD806FA00F010F02B0F08D01D
:1005A000287898B1687888B301F026F901F0F4F85A
:1005B00034E0642C01D0692C16D1687898B328698E
:1005C000692C3FD1421C05F1100339E02D2C29D1B3
:1005D0000020E8600120A87028702D20E8703020ED
:1005E00001F06CF92D201BE000203D2C28712DD04E
:1005F000432C30D1002028706870A870E860286112
:1006000028712020E87001F0F7F87CBD0120A87067
:10061000E878202802D0102001F068F9EC70E87822
:1006200001F04CF97CBDE8782028FBD1287800281F
:1006300008BF7CBDE868692C1ED1421C05F10C0383
:1006400001211DE0421E05F1100318E001F0D4F86D
:1006500001F0A2F87CBDA878C0B1012068702869BB
:1006600000EB800040002861204601F0BBF82969BA
:10067000084428612046D3E7421E05F10C030021FF
:100680001A6001F0ABFA012028717CBDE86800EB2C
:1006900080004000E860204601F0A4F8E968302CB2
:1006A0000844E86003D1E86808B9287810B9204602
:1006B00001F004F9012028707CBD00BF143C01400A
:1006C00080E200E00000002070B50446A66D00F056
:1006D0002FF9054694F83500022829D120680168D1
:1006E00021F016010160416921F080014161216C16
:1006F00009B9A16C19B1016821F008010160016814
:1007000021F00101016005E000F012F9401B05280D
:1007100012D82068006810F0010FF5D1E06D3F217C
:1007200001FA00F0B060012084F83500002008E0F4
:1007300080206065012004E020206065032084F8AB
:1007400035000021C0B284F8341070BD90F8351027
:10075000022909D1052180F835100068016821F0CF
:100760000101016000207047802141650120704730
:10077000B0B5044600F0DCF805468D48611C0078F1
:1007800018BF044400F0D4F8401BA042FAD3B0BD17
:100790002DE9FC4F5F4A07274FF001094FF0030A8C
:1007A0004FF0000B4FF0000E002690425A4A08BF4F
:1007B000042702444FEAB223042B38BF4FEAB22782
:1007C0000097102E08BFBDE8FC8F0C6809FA06F3ED
:1007D0001C4200F099804D6805F00304671E012F4C
:1007E00015D8D0F808C00AFA0EF72CEA070CCF6823
:1007F00007FA0EF747EA0C078760C5F3001707FAF8
:1008000006FC47689F4347EA0C07476001E0032C5A
:100810001DD0C2680AFA0EF7022C22EA07028F687E
:1008200007FA0EF742EA0702C26010D13E4C0BF005
:100830001C020F27974004EA560505442C6A24EA57
:1008400007070C6904FA02F23A432A624D68046809
:1008500005F003020AFA0EF715F4403F02FA0EF211
:1008600024EA070742EA070202604DD000222B4C1F
:100870000BF00C0501922B4AA4462C4C17463A6803
:10088000A0460F24AC4042F480423A603A6802F439
:100890008042019226F00302019F624452F80870E0
:1008A000A743009C04FA05F52F4342F80870DCF8D2
:1008B00000204D6842EA030715F4803F08BF22EA92
:1008C000030715F4003FCCF80070DCF8042042EA7E
:1008D000030708BF22EA030715F4801FCCF8047051
:1008E000DCF8082042EA030708BF22EA03070C4AA3
:1008F00015F4001FCCF808701446226842EA03077A
:1009000008BF22EA030727600BF1040B0EF1020E69
:10091000013656E7001002400000FEBF003C0140D7
:100920000C3C014044380240FCFFFF7F08FCFFFF05
:100930001F488068704700BF1D48017882681144D5
:100940008160704780B50B48016841F40071016017
:10095000016841F480610160016841F480710160C7
:10096000032000F07DF80F2000F006F800F022F8D8
:10097000002080BD003C024070B50D4E04464FF48F
:100980007A713078B1FBF0F093490968B1FBF0F06F
:1009900000F00CFB01250F2C08D838B94FF0FF30C0
:1009A00021460022002500F02FF87460284670BD13
:1009B0005800002082B000200B4901904A6842F4A0
:1009C00080424A604A6802F480420192019A009093
:1009D000086840F080500860086800F0805000907F
:1009E000009802B0704700BF40380240002808DB82
:1009F00000F01F010122400902FA01F1014A42F808
:100A00002010704700E100E0B0B500F00F031A4D70
:100A1000124CB0F1FF3FA3F104032B4403F10C038C
:100A2000C8BF03192868C0F30220051DC41E80F04A
:100A30000700072D4FF0010538BF0024042828BF08
:100A4000042005FA00F00138084005FA04F10F31DE
:100A5000A0401140084300011870B0BD00E400E060
:100A600005494FF6FF030A681A4060F30A2203485B
:100A700010430860704700BF0CED00E00000FA056D
:100A80002DE9F04104468846002C00F08780454B54
:100A9000D3F8000400F00700404507D283F8008433
:100AA000D3F8000400F00700404577D1206810F02B
:100AB000020F11D0410742BF996841F4E05199609B
:100AC000010742BF996841F4604199609968A26842
:100AD00021F0F00111439960C0072DD06068811E9C
:100AE000022904D2196811F0007F0BD156E00128C9
:100AF00004D1196811F4003F04D14FE0196811F0D6
:100B0000020F4BD099681D4621F0030108439860FD
:100B1000FFF70EFF064641F288372B46986861685A
:100B200000F00C00B0EB810F06D0FFF701FF801B37
:100B3000B842F2D9032032E0D3F8000400F00700F5
:100B4000404507D983F80084D3F8000400F007007B
:100B5000404523D1206810F0040F05D09968E26861
:100B600021F4E05111439960000706D59868216986
:100B700020F4604040EAC10098601C4600F032F862
:100B8000A168094AC1F30311515CC84012490860C9
:100B900006480068FFF7F0FE002000E00120C0B228
:100BA000BDE8F08100380240C61C00085C0000204F
:100BB00009480A490A4A00680968C1F38221515C60
:100BC000C840704704480549054A00680968C1F3F0
:100BD0004231515CC8407047640000200838024030
:100BE000D61C000810B5EE4C606800F00C00082818
:100BF00004D0042814BF1048104810BD2268206893
:100C00000E49002310F4800F02F03F0204BF42F2AD
:100C10000041C0F2F4012068C0F38810A1FB00017C
:100C2000FFF72CFB21680222C1F3014102EB4101D5
:100C3000B0FBF1F010BD00BF0024F40040787D014E
:100C40002DE9F8430446002C00F05D812078D34E56
:100C5000D34FC007B14651D0786800F00C0004288B
:100C600007D1306810F4003F48D06068002845D1B3
:100C700049E1786800F00C00082803D1386810F4C6
:100C8000800FEED16668B6F5803F09D0C846B6F54C
:100C9000A02FD8F8000015D140F48020C8F800003B
:100CA0004E46306840F480303060FFF741FE054624
:100CB000306810F4003F21D1FFF73AFE401B642852
:100CC000F6D9BEE020F48030C8F80000D8F8000063
:100CD00020F48020C8F80000FFF72AFE002E054609
:100CE0004646E5D14E46306810F4003F06D0FFF787
:100CF0001FFE411B03206429F4D905E120788007F9
:100D00002FD5786810F00C0F08D0786800F00C0030
:100D100008280BD1386810F4800F07D1306810F024
:100D2000020F17D0E068012814D0ECE0E06800283A
:100D300000F089809B4801210160FFF7F9FD05461D
:100D4000306810F0020F05D1FFF7F2FD401B0228BA
:100D5000F6D976E03068216920F0F80040EAC10059
:100D600030602078000722D561698E4879B1012171
:100D7000C0F8801EFFF7DCFD0546386F10F0020F4B
:100D800015D1FFF7D5FD401B0228F6D959E0002107
:100D9000C0F8801EFFF7CCFD0546386F10F0020F3B
:100DA00005D0FFF7C5FD401B0228F6D949E02078A1
:100DB00040077BD5F86B4FF0000810F0805F0CD136
:100DC000CDF800804FF00108F86B40F08050F863D8
:100DD000F86B00F0805000900098734E48468059A0
:100DE00010F4807F12D14946885940F480708851B0
:100DF000FFF79EFD05464846805910F4807F05D1D7
:100E0000FFF796FD401B0228F5D91AE0A668012ECF
:100E100005D0F86E052E29D140F00400F866F86E72
:100E200040F00100F866FFF783FD054641F2883681
:100E3000F86E10F0020F32D1FFF77AFD401BB0427E
:100E4000F6D9032060E0574800210160FFF770FDEC
:100E500005464846006810F0020F3FF482AFFFF7E6
:100E600067FD411B03200229F3D94DE020F001006A
:100E7000F866F86E20F00400F866FFF759FD0546A5
:100E8000002ED3D141F28836F86E10F0020F06D052
:100E9000FFF74EFD411B0320B142F5D934E0B8F114
:100EA000000F1EBFF86B20F08050F863A669002E7B
:100EB00071D0786800F00C00082829D1012E22D0CA
:100EC0003868E16900F480028A421CD1216A00F08E
:100ED0003F028A4217D147F6C071626A0140B1EB06
:100EE000821F10D1A16A4FF6FF72C903914300F42B
:100EF0004032A1F580318A4205D1E16A00F070608C
:100F0000B0EB016F47D00120C0B201B0BDE8F08363
:100F10002449002088460866FFF70AFD0546022E90
:100F20000BD14846006810F0007F12D0FFF700FD9B
:100F3000411B03200229F4D9E6E74846006810F077
:100F4000007F28D0FFF7F4FC411B03200229F4D9CD
:100F5000DAE704F11C064FCE0843D90340EA8210B9
:100F60004FF6FF72914340EA0660A1F580310843D5
:100F700038600120C8F86000FFF7DAFC04464846F4
:100F8000006810F0007F06D1FFF7D2FC011B0320A0
:100F90000229F4D9B8E70020B6E700BF00380240C4
:100FA00004380240000047420038FEFF411E002086
:100FB000B0EB116F1CBF01207047044AF023516051
:100FC00003490B70072190601160704710E000E04A
:100FD00023ED00E070477047BCB504462068026806
:100FE0000146D0F80CE051F8143F12F00F0F64D016
:100FF0000EF4907503F0010C5CEA050366D0D0078F
:101000001FBF1EF48070206C40F001002064500768
:1010100006D5BCF1000F1EBF206C40F0020020641A
:10102000900706D5BCF1000F1EBF206C40F00400F5
:101030002064100708D50EF0200050EA0C001EBFF7
:10104000206C40F008002064206C002800F0038130
:1010500002EA0E00800605D5204600F082FA2068DC
:1010600000F114010868216C00F0400001F0080153
:10107000084300F0CE80204600F04CFA2068416919
:1010800011F0400F01D174E0206850E8050F21688D
:1010900020F0400041E80502002AF5D1A06B0028AD
:1010A00067D072490165FFF751FB002800F0D3803B
:1010B000A06B016DBDE8BC40084702EA0E0189063D
:1010C00004D52046BDE8BC4000F04BBA02EA0E0150
:1010D000CA06226B3AD5012A38D100210191016854
:1010E0000191416801910199416911F0400F45D189
:1010F000E18DA28DE38D002B00F0AD80511A89B2F5
:1011000009B9A8E0206850E8030F226820F4907025
:1011100042E80303002BF5D1206850E8050F226850
:1011200020F0010042E80503002BF5D1202084F8CF
:101130003E0000202063206850E8030F226820F062
:10114000100042E80303002BF5D15DE00A0666D5E6
:1011500094F83D1021297ED1A168B1F5805F02D1BC
:101160002169002969D0216A4A1C226209784160FC
:101170006AE02046BDE8BC40FFF72DBFA26B1168B6
:101180004B6899B2002966D0B4F82CC0614562D290
:10119000E385D169B1F5807F01D131E0206850E865
:1011A000030F216820F4807041E80302002AF5D182
:1011B000206850E8050F216820F0010041E8050291
:1011C000002AF5D1206850E8050F216820F0400082
:1011D00041E80502002AF5D1202084F83E000020D5
:1011E0002063206850E8030F216820F0100041E8D8
:1011F0000302002AF5D1A06BFFF766FAB4F82CC001
:10120000E08DACEB000081B22046BDE8BC40FFF7AA
:10121000E1BE2046FFF7DFFE00202064BCBD49068A
:1012200019D5C16821F04001C160202084F83D003B
:101230002046BDE8BC4000F010B9216A31F8022B0D
:101240006FF35F2242602162E18C4FF6FF72013939
:101250001142E18400D0BCBDC16821F08001C160B1
:10126000C16841F04001C160BCBD00BF0915000864
:1012700010B5044644B394F83D0028B9002084F822
:101280003C00204600F022F8242084F83D0020682D
:10129000C16821F40051C160204600F0BFF9206808
:1012A000016921F490410161416921F02A01416104
:1012B000C16841F40051C16000202021206484F8FD
:1012C0003D1084F83E1010BD012010BD10B586B051
:1012D000044601A81421FFF785F821682F488142B0
:1012E0002BD10021164A00F5DE300091136943F43A
:1012F00000331361136903F400330093009B0091E2
:10130000136843F001031360126802F001020092B7
:10131000009A022202920C2201920391032104916D
:101320000721059101A9FFF733FA262000210022A9
:10133000FFF76AFB2620FFF759FB06B010BD00BF80
:101340003038024010B590F83E30202B06D10124F1
:1013500029B122B190F83C30012B02D10224E0B235
:1013600010BD00240123046380F83C3000F0BCF978
:10137000F5E7000000680949884218BF704780B54A
:101380000749012211F8060F01F8010C01F10E00C6
:10139000FFF7D8FFBDE88040704700BF0044004021
:1013A000000000202DE9F0470446994616460D46F8
:1013B00094F83D00202806D101202DB126B194F8E3
:1013C0003C00012803D10220C0B2BDE8F0874FF0F5
:1013D000000A0120C4F840A084F83C00212084F8D1
:1013E0003D00FFF7A5FAA684E6848046A068B0F524
:1013F000805F06D127690026002F0CBF2E462F469E
:1014000001E02F46002684F83CA015E0204680210C
:1014100042464B4600F081F9C0B91FB117F8011BD5
:10142000206805E036F8021B206800276FF35F2173
:101430004160E08C0138E084E08C0028E6D1204651
:10144000402142464B4600F068F908B10320BBE753
:10145000202084F83D000020B6E77047FEE7FEE755
:10146000FEE770477047FFF767BA0000B0B592B06B
:1014700006AC2C21201DFEF7B5FF01A81421FEF7B4
:10148000B1FF00251A4802220095016841F0805101
:101490000160006800F080500090009800951548A9
:1014A000016862F38F310160006800F440400090F1
:1014B000009801200990102006920A9020460C9571
:1014C000FFF7BEFB18B1EFF3108072B6FEE70F20F6
:1014D000CDE90455CDE902550021019001A8FFF79F
:1014E000CFFA18B1EFF3108072B6FEE712B0B0BDBC
:1014F00040380240007000400248016841F4700129
:101500000160704788ED00E0806B0021C185C184D7
:10151000FFF761BD016851E8031F026821F4907173
:1015200042E80313002BF5D1016851E8051F02685A
:1015300021F0010142E80513002BF5D1016B0129CF
:1015400009D1016851E8031F026821F0100142E847
:101550000313002BF5D1202180F83E1000210163F8
:10156000704790F83E10222918BF70478268B2F584
:10157000805F03D1016979B1816A05E0816A0AB9A6
:1015800002690AB17F2200E0FF2203685B681A400B
:101590000A700122816A06E00268816A52686FF36C
:1015A0005F220A80022211444FF6FF728162C18DD0
:1015B00001391142C18500D070470168CA6822F024
:1015C0002002CA60CA6822F48072CA604A6922F0A6
:1015D00001024A61202280F83E20026B012A18BFD6
:1015E000FFF7C8BE0022026351E8031F026821F022
:1015F000100142E803130168002BF5D10A6812F0CC
:10160000100F08D081B0002200920A680092496849
:101610000091009901B0818DFFF7DCBCB0B50446A4
:1016200049F20C6520680169E26821F440511143D8
:101630000161D4F808C0D4E90423D4F81CE0C168DF
:1016400042EA0C02A9431A4342EA0E021143C16066
:101650004169A26921F4407111434161214940F47B
:101660008060884202D1FFF7ADFA01E0FFF7A0FAEF
:10167000E26919216368A0FB0101B2F5004F16D1A0
:101680005A00DB0FFEF7FAFD64216FF06303B0FB35
:10169000F1F202FB0300322303EBC000B0FBF1F1D7
:1016A0004FF4F87000EA410001F0070113E09A00DE
:1016B0009B0FFEF7E3FD64216FF06303B0FBF1F2D3
:1016C00002FB0300322303EB0010B0FBF1F101F049
:1016D000F00001F00F0100EB021008432168886060
:1016E000B0BD00BF001401400023C28503648285A1
:1016F0008162222180F83C3080F83E100068C16889
:1017000041F48071C160416941F001014161C168EA
:1017100041F02001C160002070472DE9F0411D46D5
:1017200090460F4604466E1C206800683840B84258
:1017300026D0002EF8D02DB1FFF7FAF8A0EB080064
:10174000A842F1D9206850E8030F216820F4D07036
:1017500041E80302002AF5D1206850E8050F21680E
:1017600020F0010041E80502002AF5D120200021E7
:1017700084F83D0084F83C1084F83E00032000E02B
:101780000020C0B2BDE8F0810148FFF725BC00BFD2
:1017900014000020FEE70000D848C1782A39052946
:1017A00015D8DFE801F00307140B140F0169C268B4
:1017B00051430BE00169C268114407E00169C26846
:1017C000511A03E00169C26892FBF1F1C160012185
:1017D000002281704270026101702021C170C068D6
:1017E00000F0A0B93138C1B208298EBF0020012114
:1017F00051FA80F07047000080B5C02000F076F804
:1018000002A0BDE8804000F0DBB900BF202020200E
:101810002020202020202020202020200000000048
:101820002148016811F0020F0AD0016811F0020F7F
:10183000FBD1E2498968042902D2C8001B492DE086
:10184000016811F0040F0AD0016811F0040FFBD1F8
:10185000DA498968042902D2C80015491EE00168E6
:1018600011F0080F0AD0016811F0080FFBD1D3491D
:101870008968042902D2C8000E490FE0016811F0FE
:10188000100F08BF00F002BA016811F0100FFBD171
:10189000CA488068042805D20749C00021FA00F030
:1018A000C0B2704700F0F2B9100402403738392F47
:1018B0003435362A3132332D43303D2B18490A68EE
:1018C00000220A600A6842F480620A600A6822F410
:1018D00000720A600A68104340F48070086008686B
:1018E00020F4806008600220FEF742BF0C490A68BD
:1018F00000220A600A6842F480620A600A6822F4E0
:1019000000720A600A6822F480720A600A68104352
:101910000860086820F4806008600220FEF728BF95
:101920001408024010B57448224C4FF0553301683A
:1019300041F001010160016841F0020101600168AC
:1019400041F0040101601A490A6842F055320A6008
:10195000C4F8F43340F6FF72D1F8003423EA0202EF
:10196000C1F8002442F6AA212160416941F4804176
:101970004161114811490A5842F001020A500868B1
:1019800040F001000860886840F0010088600C4861
:10199000402162B6C0F880110160C0F88411416036
:1019A000084810210170002180F8201010BD00BFF0
:1019B000000002400C04024008FCFFFF003C014014
:1019C00000E100E006E400E080B50E20FFF78EFFA6
:1019D0003820BDE88040FFF789BF000001380828A3
:1019E00008D8DFE800F005090B0D0F1113151700DB
:1019F000312010E030200EE032200CE033200AE0ED
:101A0000342008E0352006E0362004E0372002E0EC
:101A1000382000E03920C0B2704700000A46014675
:101A200097484FF0FF331430FFF7BCBC7CB5FEF78E
:101A300089FFFFF71BFDFFF775FFFFF7C5FF0021CB
:101A40002D482E4C0C230191026842F001020260E5
:101A50002B4A006800F0010001900198204640F8F0
:101A6000142F4FF4E132C0E90121C0E90311C0E9AC
:101A70000531C161FFF7FCFB18B1EFF3108072B6BE
:101A8000FEE704F11400A11D01220125FFF75AFC15
:101A90001CA000F095F81FA000F092F84FF47A70A7
:101AA000FEF766FEFFF7A8FE1C4E4FF0FF30002148
:101AB0000022B047062002210222B0472620002142
:101AC0000022B0471648A1680268093105FA01F101
:101AD00022EA01010160A1680131CA1701EB92728B
:101AE00022F00302891AA160A1680268093105FA8F
:101AF00001F111430160E6E73038024000000020A8
:101B0000004400404164766172692D4865696461F2
:101B10007269000057656C636F6D6500090A000803
:101B200014000240F0B589B00446B4B3B4F1FF3FED
:101B30000CDC2D2001218DF806000DF10600FFF7C9
:101B40006DFF4F484079FFF7B9FE644200200A213B
:101B50000DF1060508E094FBF1F202EB8203A4EB21
:101B6000430314462B540130002CF4D1444E0DF1A4
:101B700005040FE0471E284410F8010CFFF72EFF64
:101B80008DF8050020460121FFF748FF7079FFF727
:101B900095FE38460128EDDA0DE00020FFF71EFF24
:101BA0008DF806000DF106000121FFF737FF3448DC
:101BB0004079FFF783FE09B0F0BD00BF00000020B0
:101BC00010B5044602E0FFF779FE013420780028C2
:101BD000F9D1C020BDE81040FFF788BE2DE9F041E3
:101BE000DFF89C8004460D4698F80400002818BFD2
:101BF00001202840271A98F8040038B135B9102080
:101C0000FFF774FE2020FFF759FE013717B91020A7
:101C1000FFF76CFE0A2604E01020FFF767FE97FB33
:101C2000F6F7002FF8D198F8040050B1154E1020A7
:101C3000B0471020B0471020B0471020B047102008
:101C4000B047B4F1FF3F02DC1020FFF74FFE25B193
:101C50000D4D6920A8476E2003E00B4D6420A84776
:101C60006520A8476320A8472820FFF727FE2046C5
:101C7000FFF758FF2920BDE8F041FFF71FBE00BF66
:101C800000000020ED180008BD1800080A4801688F
:101C900011F0200F09D1016811F0400F0AD001683E
:101CA00011F0400FFBD1642104E0016811F0200F16
:101CB000FBD16921C8B27047100402404FF0407058
:101CC000E1EE100A70470000000000000000010271
:101CD00003040607080900000000010203040000D5
:101CE000001D00080000002068000000D00100086E
:101CF000681D00086800002060060000EC01000874
:101D00000000002000200000000000000000000093
:101D100000000000000000000000000000000000C3
:101D200000000000000000000000000000000000B3
:101D300000000000000000000000000000000000A3
:101D40000000000000000000000000000000000093
:101D50000000000000000000010000001000000072
:081D6000000000000024F40063
:040000050800019559
:00000001FF
