:020000040800F2
:10000000E0080020550200084F1B00084B1B0008A9
:100010004D1B0008130D0008631D000800000000C0
:10002000000000000000000000000000811B00082C
:10003000150D000800000000511B0008831B00087C
:100040006F0200086F0200086F0200086F020008CC
:100050006F0200086F0200086F0200086F020008BC
:100060006F0200086F0200086F0200086F020008AC
:100070006F0200086F0200086F0200086F0200089C
:100080006F0200086F0200086F0200080000000005
:100090000000000000000000000000006F020008E7
:1000A0006F0200086F0200086F0200086F0200086C
:1000B0006F0200086F0200086F0200086F0200085C
:1000C0006F0200086F0200086F0200086F0200084C
:1000D0006F0200086F0200086F02000800000000B5
:1000E0006F0200086F0200086F02000800000000A5
:1000F0000000000000000000000000006F02000887
:10010000000000006F0200086F0200086F02000884
:1001100000000000000000000000000000000000DF
:100120006F0200086F0200086F0200086F020008EB
:100130006F02000800000000000000000000000046
:100140000000000000000000000000006F02000836
:100150006F0200086F0200086F0200086F020008BB
:100160006F0200086F02000800000000000000009D
:10017000000000000000000000000000000000007F
:10018000000000006F0200080000000000000000F6
:100190006F02000800F002F800F04CF80AA090E8A6
:1001A000000C82448344AAF10107DA4501D100F032
:1001B00041F8AFF2090EBAE80F0013F0010F18BFB3
:1001C000FB1A43F001031847E83100000832000031
:1001D000103A24BF78C878C1FAD8520724BF30C873
:1001E00030C144BF04680C60704700000023002445
:1001F00000250026103A28BF78C1FBD8520728BF37
:1002000030C148BF0B607047662903F078807529BC
:1002100000F00081002070471FB503F066F800F081
:1002200003FC04000020002102F0BEFBE0601FBDC3
:1002300010B510BD00F0F8FC1146FFF7EDFF01F01E
:10024000C9FE00F016FD03B4FFF7F2FF03BC00F097
:1002500059FD00000948804709480047FEE7FEE7CE
:10026000FEE7FEE7FEE7FEE7FEE7FEE7FEE7FEE766
:1002700004480549054A064B70470000191C000850
:1002800095010008E0020020E0080020E0040020C2
:10029000E004002053EA020C00F069802DE9F04BE5
:1002A0004FF00006002B1FBFB3FA83F503FA05F4E5
:1002B00024FA05F65E4012BF1643B2FA82F502FA3E
:1002C00005F4C5F120051EBF22FA05FC44EA0C0422
:1002D000203556EA044C4FEA144418BF641C4FF012
:1002E00000084FF00009904271EB030C39D300294C
:1002F00019BFB1FA81F701FA07F6B0FA80F700FAF0
:1003000007F6C7F120071EBF20FA07FC46EA0C06D5
:100310002037B6FBF4FCA7EB0507103F07F01F0BD7
:10032000CBF120062CFA06F60CFA0BFB44BFB346C1
:100330000026202FA4BF5E464FF0000B5BEA060CA0
:1003400008BF4FF0010B19EB0B0948EB0608ABFB9C
:10035000027C06FB02CC0BFB03CCC01B71EB0C0137
:10036000C1E70B46024641464846BDE8F08B13B54F
:100370004FF000004FF00001AFF30080BDE81C40DB
:10038000704700000FB41CB5074B06AA7B446946B2
:100390000090059800F02FFB0020694600F03EFB1E
:1003A0001CBC5DF814FB00008D0600002DE9F04137
:1003B0000E460446002020622046E168884730B39C
:1003C000252805D0D4E901219047206A401CF2E796
:1003D000E168204600278847050018D0A5F14100B4
:1003E000192802D820354FF40067324629462046A6
:1003F0002760FFF709FF40B1012804D0F61D26F061
:1004000007060836D8E7361DD6E72846DAE7206A19
:10041000BDE8F0812DE9F0410646002410687529F9
:10042000314616A510D0AFF30080002802DA404212
:1004300013A507E031688A0701D512A502E0490734
:1004400004D511A5012401E0AFF3008000210A22A8
:1004500006F1240709E0B0FBF2FCB0FBF2F302FB6B
:100460001C00303078541846491C0028F3D123462C
:100470002A463046BDE8F04100F051B800000000C7
:100480002D0000002B0000002000000010B5431CD0
:1004900002E010F8011B71B18107FAD14FF001326F
:1004A00002C88C1A8C4314EAC211F9D0C01A0A0689
:1004B00003D0C01E10BDC01A10BD0A0401D0801E9A
:1004C00010BD0902FCD0401E10BD4FF0000200B567
:1004D000134694469646203922BFA0E80C50A0E867
:1004E0000C50B1F12001BFF4F7AF090728BFA0E815
:1004F0000C5048BF0CC05DF804EB890028BF40F8E1
:10050000042B08BF704748BF20F8022B11F0804F22
:1005100018BF00F8012B70477047704770472DE9EE
:10052000F0470D4699469246044600F124080168BA
:10053000880604D5E06921F01001216000E0012067
:10054000A84201DD471B00E00027A1697A1902EBF0
:100550000900081AA0612078C00602D42046AFF333
:100560000080002608E0D4E901211AF8060090472F
:10057000206A401C761C20624E45F4DB2078C006C1
:100580000AD52046AFF3008006E0D4E901213020EF
:100590009047206A401C2062381EA7F10107F4DC56
:1005A00007E0D4E9012118F805009047206A401CB3
:1005B0002062281EA5F10105F3DC2046AFF3008080
:1005C0002078000602D50220BDE8F0870120FBE775
:1005D0002DE9FF4F0C461E464FF0FF378BB0D2E996
:1005E0000001DDF860800A908A46C1F30A5505B91A
:1005F0003D46002108464FF00000BAF1000F00F41C
:10060000400005DA00EB80004FF4400101EA5000A1
:100610004FEA9059B9F1010F00DDB9460A9850EA46
:100620004A000ED044F61050A5F2FF3545432F1472
:10063000B8F1000F1ED07542291E1EDDC9F100025F
:100640001CE0B8F1010F4FF0000001D0302103E0B1
:10065000F24305E02154401CB042FBDB304600224F
:10066000002121540B99C1F80880C1E900200FB086
:10067000BDE8F08FBD1B6D1CDEE74A4600DA69421B
:1006800006A800F05BFA06AB93E8070003AB83E82B
:10069000070050460A9901F0A7FD8DE80700A0F574
:1006A00000501F3800900398002D0ADD42F21F0110
:1006B0004A460844002303A90390684602F010F854
:1006C00009E0A0F500504A461F38002303A9039013
:1006D000684602F01AF88DE807000004000C03D009
:1006E0004FF0FF30410800E01046B8F1000F03D092
:1006F0000022009215461EE0751E05D400F098F900
:10070000303262556D1EF9D5B3460122084302D03E
:1007100000227F1C04E02078302801D100227F1EB7
:10072000002A099784D01DE0112D07DA00F080F926
:10073000303262556D1C50EA0102F5D1084302D0F7
:100740000098C8B10EE00021681E05E0235C625CE1
:1007500063542254401E491C8142F7DBAB46A81B60
:10076000401E0990002004F80B000B98099AC0F86D
:100770000880C0E9002B7AE711264FF0000857E700
:100780002DE9F04F88460446D21D22F0070191B0B2
:10079000D1E90001CDE90A0102F0EEF802460B981A
:1007A000C00F01D02D2007E02068810701D52B2044
:1007B00002E0202101EAC000032A099001D0072AA3
:1007C00005DB03464146204600F078F90BE120782E
:1007D000800601D5E06900E00620B8F1650F81468A
:1007E00006D0B8F1660F18D0B8F1670F70D131E0BC
:1007F0000020B9F1110F009001DB112301E009F194
:1008000001030AAA01A90CA8FFF7E2FEDDE90C70BA
:10081000002609F10105834647E001204B46009080
:100820004FF000470AAA01A90CA8FFF7D1FEDDE9A5
:100830000DB00C995D46002610B909F101000D18A4
:10084000B9EB050003D4C0F1FF3609F10105A5EBB2
:1008500009002BE0B9F1010F01DA4FF00109002086
:10086000B9F1110F0090484601DD112300E0034665
:100870000AAA01A90CA8FFF7ABFEDDE90C704D46F2
:1008800000268346207800070AD4AB4500DA5D468F
:1008900001A8012D04DD411911F8011C302907D0F0
:1008A0004F4502DA17F1040F04DA012082460FE007
:1008B0006D1EEEE7002F02DCED1B3E4403E0781CCA
:1008C000A84200DD7D1CB81B00F1010A4FF0004773
:1008D0002078000703D4AA4501DB4FF0FF3A00213E
:1008E000B7F1004F0DF143088DF8431024D00220DA
:1008F0002B23002F01DA7F422D230A21021EA0F1B3
:10090000010000DC5FB197FBF1FC97FBF1F201FB0A
:100910001C7C17460CF1300C08F801CDEEE7A8F16D
:10092000010003702188090501D5452100E06521FA
:10093000A0F1010800F8011C09980FA9A1EB080714
:10094000FF1D00B10120411901EBEA70A169384493
:10095000081A401EA0612078C00602D42046AFF3DA
:100960000080099828B1D4E901219047206A401CF1
:1009700020622078C00622D52046AFF300801EE01A
:10098000002E04DBB34502DD01A8805D00E03020CD
:10099000D4E901219047206A401C2062761CAAF10C
:1009A00001005FEA000A0AD100F03EF8C068016861
:1009B000405CD4E901219047206A401C2062281E37
:1009C000A5F10105DCDC07E0D4E9012118F8010BF1
:1009D0009047206A401C2062381EA7F10107F3DC13
:1009E0002046AFF30080032011B041E601694A1CA4
:1009F00002610878704700B58FB0CDE90131002160
:100A0000059105497944CDE9031011466846FFF781
:100A1000CDFC0FB000BD0000E5FFFFFF0A6802F843
:100A2000010B0A60704700000048704790000020EA
:100A300030B5B0F10A0271F100034FEA900E4EEAB0
:100A4000817EB0EB0E0061EB91014FEA101E4EEA81
:100A5000017E10EB0E0041EB11114FEA102E4EEA11
:100A6000016E10EB0E0041EB11214FEA104E4EEAE1
:100A7000014E10EB0E0041EB1141401841F1000115
:100A80004FEAD00040EA41704FEAD1014FEA8104B9
:100A900044EA907410EB800544EB01046D1944EBBB
:100AA0000404521BA3414FF0000348BF0A3200D593
:100AB00030BD401C41F1000130BD00002DE9F04186
:100AC0001F46044603260168072A01F4006004DB80
:100AD00008B116A505E016A503E008B115A500E0CC
:100AE00015A521F010002060A069C01EA0610FB103
:100AF000401EA0612046AFF300804FB1D4E9012130
:100B000038469047206A401C2062C01C206206E0E4
:100B1000206AFAE7D4E9012115F8010B9047761E07
:100B2000F8D22046AFF30080BDE8F0814E414E0080
:100B30006E616E00494E4600696E66002DE9F04711
:100B4000814616468AB0354878440DC88DE80D00B8
:100B500032487844801C03AC0DC884E80D0041F68F
:100B60009B300844372190FBF1F290FBF1F5A5F1A1
:100B7000800501FB12041B3C02D56442012000E009
:100B80000020DFF898A080460027FA44AAF1BE0AA8
:100B90000EE0E0070AD03246684607EB4701012322
:100BA0000AEB810101F0B1FD8DE8070064107F1CA4
:100BB000002CEED1194F7F44AE3F19E0E80715D065
:100BC00007EB04100DF1180A90E80E008AE80E00F9
:100BD000C068F04201D1981908903246012306A955
:100BE00003A801F092FD03AB83E807006D10641CBD
:100BF000002DE3D14FF0010332466946B8F1000FF2
:100C000003A802D001F06CFD01E001F07EFDC9E90E
:100C10000001C9F808200AB0BDE8F08734280000B8
:100C200000487047700000207546FFF7F9FFAE4698
:100C300005006946534620F00700854618B020B5E8
:100C4000FFF716FBBDE820404FF000064FF000070D
:100C50004FF000084FF0000BAC46ACE8C009ACE820
:100C6000C009ACE8C009ACE8C00921F007018D4615
:100C7000704710B50446AFF300802046BDE8104031
:100C8000FFF7E1BA0000000030B44FF0013C50F82B
:100C9000042B51F8043BCCFA52F4D51A20D1FCB9FC
:100CA00050F8042B51F8043BCCFA52F4D51A17D162
:100CB000B4B950F8042B51F8043BCCFA52F4D51ACD
:100CC0000ED16CB950F8042B51F8043BCCFA52F415
:100CD000D51A05D1002CDAD030BC4FF00000704797
:100CE00029BAB1FA81F111F01801D1F12000844044
:100CF000F2D1CA40CB4012F0FF0213F0FF0330BC28
:100D0000D01A704701491820ABBEFEE7260002004A
:100D10007047FEE77047000018B50022009290F877
:100D20003C20012A01D102216DE0012280F83C2003
:100D30000A6893B20A2A4FEA430313FA82FE06D3E3
:100D4000D0F800C0AEF11E0E0CF10C0203E0D0F89A
:100D500000C00CF110020723146803FA0EF324EA12
:100D6000030313608B68146803FA0EF323431360C4
:100D70004A68062A06D802EB82020CF13403A2F17B
:100D8000050E0BE002EB820E0C2A87BF0CF12C0340
:100D9000AEF1410E0CF13003AEF1230E1F241A68A0
:100DA00004FA0EF4A2431A600A881C6802FA0EF2D2
:100DB00022431A60654AA2F541739C4520D1096817
:100DC000122904D1116841F48001116018E021F06A
:100DD0000103102B14D11368102943F4000313608E
:100DE0000ED1D549D54A0968B1FBF2F101EB810179
:100DF000490001E000990139009100990029F9D1D9
:100E0000002180F83C10C8B201B010BD0068C06C71
:100E10007047000010B50446002C42D0206C30B959
:100E2000204600F09BF8002084F83C006064206CB1
:100E300010F0100F37D1206C41F20211444B88435F
:100E400040F0020020644148016821F44031016013
:100E500061680268114301602068416821F4807173
:100E600041602169426842EA01214160416821F004
:100E700040714160A168426811434160816821F47A
:100E800000618160E168826811438160A16A8268C3
:100E900022F0706299428260826806D122F040514D
:100EA0000CE0012010BD01204CE0114381608168FD
:100EB00021F040518160E16A82681143816081685C
:100EC00021F002018160217E826842EA4101816055
:100ED00094F8202041686AB141F400611D4A4160E4
:100EE000416821F460414160616A02EB413142682E
:100EF000114301E021F400614160174AC16A21F405
:100F00007001C162E16902EB0151C26A1143C16221
:100F1000816821F40071816094F83010826842EA9F
:100F200041218160816821F480618160616982680A
:100F300042EA81210122816000206064216C62F319
:100F400001012164002184F83C1010BD04230140FC
:100F50000100000F00E0FFFF0000F0FF10B586B0B9
:100F6000044601A81421FFF7B0FA216874488142B1
:100F70001FD10021104A00F560400091536943F4ED
:100F800080735361536903F480730093009B009155
:100F9000136843F001031360126802F0010200922B
:100FA000009A0322029201220192039101A900F00A
:100FB000F7F806B010BD00BF30380240F8B504465F
:100FC0000D462068816811F4806F03D0806810F4AA
:100FD000807F41D100F0B4F906466F1C206801689B
:100FE00011F0020F15D1002FF8D02DB100F0A8F9A3
:100FF000801BA842F2D92068006810F0020FEDD1E2
:10100000002084F83C00206C40F0040020640320A1
:101010002AE06FF012010160216C41F4007121643B
:10102000816811F0405F15D1217E99B9C16A11F430
:10103000700F03D0806810F4806F0BD1206C20F407
:1010400080702064206C10F4805F02BF206C40F040
:1010500001002064002007E0002084F83C00206CA0
:1010600040F0200020640120C0B201B0F0BD0000BB
:1010700081B00021009190F83C10012901D102209B
:1010800056E0012180F83C1001688A6812F0010FD7
:1010900011D18A68294B42F001028A60C94A12685C
:1010A000B2FBF3F202EB420201E0009A013A009235
:1010B000009A002AF9D18B68026C13F0010F07D156
:1010C00042F010010164416C41F0010141642EE0E5
:1010D00040F201739A4342F4807202644A6812F447
:1010E000806F04D0026C012363F30D320264036C41
:1010F000002213F4805F4FF000031CBF436C23F009
:10110000060380F83C2043646FF0220008600C481E
:10111000D0F8042312F01F0F01D0814207D1886854
:1011200010F0405F03D1886840F080408860002064
:10113000C0B201B0704700BF6000002040420F0005
:101140000020014090F83C10012901D1022115E056
:10115000012180F83C1001688A6822F001028A604F
:10116000896811F0010F06D1016C41F2011291431F
:1011700041F001010164002180F83C10C8B27047C1
:10118000B0B5044600F0DCF805468D48611C0078D7
:1011900018BF044400F0D4F8401BA042FAD3B0BDFD
:1011A0002DE9FC4F5F4A07274FF001094FF0030A72
:1011B0004FF0000B4FF0000E002690425A4A08BF35
:1011C000042702444FEAB223042B38BF4FEAB22768
:1011D0000097102E08BFBDE8FC8F0C6809FA06F3D3
:1011E0001C4200F099804D6805F00304671E012F32
:1011F00015D8D0F808C00AFA0EF72CEA070CCF6809
:1012000007FA0EF747EA0C078760C5F3001707FADD
:1012100006FC47689F4347EA0C07476001E0032C40
:101220001DD0C2680AFA0EF7022C22EA07028F6864
:1012300007FA0EF742EA0702C26010D13E4C0BF0EB
:101240001C020F27974004EA560505442C6A24EA3D
:1012500007070C6904FA02F23A432A624D680468EF
:1012600005F003020AFA0EF715F4403F02FA0EF2F7
:1012700024EA070742EA070202604DD000222B4C05
:101280000BF00C0501922B4AA4462C4C17463A68E9
:10129000A0460F24AC4042F480423A603A6802F41F
:1012A0008042019226F00302019F624452F80870C6
:1012B000A743009C04FA05F52F4342F80870DCF8B8
:1012C00000204D6842EA030715F4803F08BF22EA78
:1012D000030715F4003FCCF80070DCF8042042EA64
:1012E000030708BF22EA030715F4801FCCF8047037
:1012F000DCF8082042EA030708BF22EA03070C4A89
:1013000015F4001FCCF808701446226842EA03075F
:1013100008BF22EA030727600BF1040B0EF1020E4F
:10132000013656E7001002400000FEBF003C0140BD
:101330000C3C014044380240FCFFFF7F08FCFFFFEB
:101340001F488068704700BF1D48017882681144BB
:101350008160704780B50B48016841F400710160FD
:10136000016841F480610160016841F480710160AD
:10137000032000F071F80F2000F006F800F024F8C8
:10138000002080BD003C024070B50D4E04464FF475
:101390007A713078B1FBF0F08D490968B1FBF0F05B
:1013A00000F000FB01250F2C08D838B94FF0FF30B2
:1013B00021460022002500F023F87460284670BD05
:1013C000540000206000002082B000200B490190F2
:1013D0004A6842F480424A604A6802F480420192BC
:1013E000019A0090086840F080500860086800F09A
:1013F00080500090009802B0704700BF4038024013
:10140000B0B500F00F031A4D124CB0F1FF3FA3F13D
:1014100004032B4403F10C03C8BF03192868C0F36D
:101420000220051DC41E80F00700072D4FF00105A6
:1014300038BF0024042828BF042005FA00F0013832
:10144000084005FA04F10F31A040114008430001A3
:101450001870B0BD00E400E005494FF6FF030A68CC
:101460001A4060F30A22034810430860704700BF27
:101470000CED00E00000FA052DE9F0410446884635
:10148000002C00F08780454BD3F8000400F00700E3
:10149000404507D283F80084D3F8000400F0070029
:1014A000404577D1206810F0020F11D0410742BFAC
:1014B000996841F4E0519960010742BF996841F48D
:1014C000604199609968A26821F0F0011143996028
:1014D000C0072DD06068811E022904D2196811F05E
:1014E000007F0BD156E0012804D1196811F4003FA8
:1014F00004D14FE0196811F0020F4BD099681D46D6
:1015000021F0030108439860FFF71AFF064641F2F5
:1015100088372B469868616800F00C00B0EB810FAB
:1015200006D0FFF70DFF801BB842F2D9032032E04E
:10153000D3F8000400F00700404507D983F8008481
:10154000D3F8000400F00700404523D1206810F0D4
:10155000040F05D09968E26821F4E05111439960C5
:10156000000706D59868216920F4604040EAC10070
:1015700098601C4600F032F8A168094AC1F30311D3
:10158000515CC8401249086006480068FFF7FCFE3D
:10159000002000E00120C0B2BDE8F0810038024028
:1015A000983300085800002009480A490A4A006890
:1015B0000968C1F38221515CC8407047044805495D
:1015C000054A00680968C1F34231515CC840704760
:1015D0006000002008380240A833000810B5EE4C27
:1015E000606800F00C00082804D0042814BF1048DC
:1015F000104810BD226820680E49002310F4800FA7
:1016000002F03F0204BF42F20041C0F2F401206840
:10161000C0F38810A1FB0001FEF73CFE2168022206
:10162000C1F3014102EB4101B0FBF1F010BD00BF7D
:101630000024F40040787D012DE9F8430446002C95
:1016400000F05D812078D34ED34FC007B14651D012
:10165000786800F00C00042807D1306810F4003FCF
:1016600048D06068002845D149E1786800F00C0056
:10167000082803D1386810F4800FEED16668B6F5FB
:10168000803F09D0C846B6F5A02FD8F8000015D184
:1016900040F48020C8F800004E46306840F48030A6
:1016A0003060FFF74DFE0546306810F4003F21D151
:1016B000FFF746FE401B6428F6D9BEE020F48030D8
:1016C000C8F80000D8F8000020F48020C8F8000016
:1016D000FFF736FE002E05464646E5D14E463068F9
:1016E00010F4003F06D0FFF72BFE411B03206429B6
:1016F000F4D905E1207880072FD5786810F00C0F19
:1017000008D0786800F00C0008280BD1386810F475
:10171000800F07D1306810F0020F17D0E068012861
:1017200014D0ECE0E068002800F089809B4801219B
:101730000160FFF705FE0546306810F0020F05D185
:10174000FFF7FEFD401B0228F6D976E030682169DC
:1017500020F0F80040EAC10030602078000722D570
:1017600061698E4879B10121C0F8801EFFF7E8FD5C
:101770000546386F10F0020F15D1FFF7E1FD401B51
:101780000228F6D959E00021C0F8801EFFF7D8FDE5
:101790000546386F10F0020F05D0FFF7D1FD401B52
:1017A0000228F6D949E0207840077BD5F86B4FF046
:1017B000000810F0805F0CD1CDF800804FF00108D8
:1017C000F86B40F08050F863F86B00F080500090A8
:1017D0000098734E4846805910F4807F12D14946D4
:1017E000885940F480708851FFF7AAFD05464846A5
:1017F000805910F4807F05D1FFF7A2FD401B02281D
:10180000F5D91AE0A668012E05D0F86E052E29D16B
:1018100040F00400F866F86E40F00100F866FFF74B
:101820008FFD054641F28836F86E10F0020F32D176
:10183000FFF786FD401BB042F6D9032060E0574811
:1018400000210160FFF77CFD05464846006810F066
:10185000020F3FF482AFFFF773FD411B0320022903
:10186000F3D94DE020F00100F866F86E20F0040096
:10187000F866FFF765FD0546002ED3D141F28836A4
:10188000F86E10F0020F06D0FFF75AFD411B03203F
:10189000B142F5D934E0B8F1000F1EBFF86B20F06B
:1018A0008050F863A669002E71D0786800F00C00B3
:1018B000082829D1012E22D03868E16900F480027D
:1018C0008A421CD1216A00F03F028A4217D147F6B2
:1018D000C071626A0140B1EB821F10D1A16A4FF65C
:1018E000FF72C903914300F44032A1F580318A426E
:1018F00005D1E16A00F07060B0EB016F47D00120C4
:10190000C0B201B0BDE8F0832449002088460866D3
:10191000FFF716FD0546022E0BD14846006810F071
:10192000007F12D0FFF70CFD411B03200229F4D9E0
:10193000E6E74846006810F0007F28D0FFF700FD7A
:10194000411B03200229F4D9DAE704F11C064FCE2B
:101950000843D90340EA82104FF6FF72914340EAF0
:101960000660A1F58031084338600120C8F86000A6
:10197000FFF7E6FC04464846006810F0007F06D1F9
:10198000FFF7DEFC011B03200229F4D9B8E7002091
:10199000B6E700BF0038024004380240000047426A
:1019A0000038FEFF411E0020B0EB116F1CBF01206C
:1019B0007047044AF023516003490B70072190607F
:1019C0001160704710E000E023ED00E010B5044620
:1019D00044B394F83D0028B9002084F83C00204628
:1019E00000F022F8242084F83D002068C16821F42A
:1019F0000051C160204600F017F92068016921F408
:101A000090410161416921F02A014161C16841F4BD
:101A10000051C16000202021206484F83D1084F82A
:101A20003E1010BD012010BD10B586B0044601A8BF
:101A30001421FEF74AFD21681448814223D1002178
:101A4000134A00F5DE300091136943F4003313614B
:101A5000136903F400330093009B0091136843F073
:101A600001031360126802F001020092009A022240
:101A700002920C2201920391032104910721059106
:101A800001A9FFF78DFB06B010BD00BF0044004068
:101A9000303802402DE9F0470446994616460D4677
:101AA00094F83D00202806D101202DB126B194F8EC
:101AB0003C00012803D10220C0B2BDE8F0874FF0FE
:101AC000000A0120C4F840A084F83C00212084F8DA
:101AD0003D00FFF735FCA684E6848046A068B0F59B
:101AE000805F06D127690026002F0CBF2E462F46A7
:101AF00001E02F46002684F83CA015E02046802116
:101B000042464B4600F0F6F8C0B91FB117F8011B6A
:101B1000206805E036F8021B206800276FF35F217C
:101B20004160E08C0138E084E08C0028E6D120465A
:101B3000402142464B4600F0DDF808B10320BBE7E8
:101B4000202084F83D000020B6E7FEE7FEE7FEE730
:101B500070470000B0B5094C2046FFF789FA2046CF
:101B60004FF0FF31FFF72AFA2046FFF74FF90546FD
:101B70002046FFF7E7FA2846B0BD00BFD00000209E
:101B80007047FFF7E1BB0000B0B592B006AC2C2166
:101B9000201DFEF79AFC01A81421FEF796FC0025F3
:101BA0001B4802220095016841F0805101600068E5
:101BB00000F080500090009800951648016862F38C
:101BC0008F310160006800F44040009000980120CF
:101BD0000990102006920A9020460C95FFF72CFDE4
:101BE00018B1EFF3108072B6FEE70F2002950021C6
:101BF00001904FF4A050CDE90355059001A8FFF7DF
:101C00003BFC18B1EFF3108072B6FEE712B0B0BD26
:101C100040380240007000400248016841F4700101
:101C20000160704788ED00E0B0B5044649F20C65EC
:101C300020680169E26821F4405111430161D4F840
:101C400008C0D4E90423D4F81CE0C16842EA0C02BD
:101C5000A9431A4342EA0E021143C1604169A269D5
:101C600021F4407111434161214940F48060884270
:101C700002D1FFF7A3FC01E0FFF796FCE26919210E
:101C80006368A0FB0101B2F5004F16D15A00DB0FCB
:101C9000FEF700FB64216FF06303B0FBF1F202FB7F
:101CA0000300322303EBC000B0FBF1F14FF4F870F6
:101CB00000EA410001F0070113E09A009B0FFEF7D4
:101CC000E9FA64216FF06303B0FBF1F202FB030059
:101CD000322303EB0010B0FBF1F101F0F00001F052
:101CE0000F0100EB0210084321688860B0BD00BFFF
:101CF000001401402DE9F0411D4690460F46044670
:101D00006E1C206800683840B84226D0002EF8D0FB
:101D10002DB1FFF715FBA0EB0800A842F1D9206810
:101D200050E8030F216820F4D07041E80302002A34
:101D3000F5D1206850E8050F216820F0010041E846
:101D40000502002AF5D12020002184F83D0084F806
:101D50003C1084F83E00032000E00020C0B2BDE843
:101D6000F081FEE72DE9F04188B09FED4C0ADFF8E5
:101D70003081C0479FED4B0A0490C0479FED4A0A4F
:101D80000590C0479FED490A0690C0470790402044
:101D9000002104AF002406E057F8212001318242DF
:101DA00084BF0C4610460429F6D1002C70D09FED5C
:101DB000400AC0479FED3F0A0490C0479FED3E0A8E
:101DC0000590C0479FED3D0A0690C0470790502000
:101DD0000021002506E057F821200131824284BF0E
:101DE0000D4610460429F6D1002D51D09FED340A3E
:101DF000C0479FED340A0090C0479FED330A019021
:101E0000C0479FED320A0290C04703900027502040
:101E10006E46002106E056F821200131824284BF3F
:101E20000F4610460429F6D19FED290AC0479FEDC1
:101E3000290A0090C0479FED280A0190C0479FEDF6
:101E4000270A0290C047039000206021002206E08C
:101E500056F8223001328B4284BF10461946042ABC
:101E6000F6D1BC4208BF854212D01D4E1DA0B0471E
:101E700000F04AF81FA0B047204600F083F81FA0EA
:101E8000B047284600F07EF805EB8400053802E0F4
:101E900000F040F8642008B0BDE8F081E873DD3F51
:101EA000391F00083C0DD63F56F7CC3F4338C23FA0
:101EB0008ECB9C3F63BA883FAEFA613F4D802A3F8C
:101EC0004B457E3F82E84B3F816C103F8ECA9A3E65
:101ED0004CBAFFBEBDE55BBFB3429CBFAD38C7BFC8
:101EE000B91F0008546F6E6520466F756E64203A06
:101EF00020200A00726F773A20000000636F6C7533
:101F00006D6E3A200000000001A000F055B800BF3F
:101F10000A0D000080B503A000F04EF8FFF7F4FFB3
:101F2000642080BD4E6F7420612056616C6964200E
:101F3000546F6E65210000009FED111A8C4900203E
:101F4000B0EE412A0BE00A1812EE001A043092EDAE
:101F5000003A31EE033AB0EE421AB0EE432AB0F541
:101F6000E47FF0D122EE023A21EE022A01EE013A9C
:101F700002EE403ABCEEC30A10EE100A704700BFF2
:101F8000000000001FB50DF10604024609A120461D
:101F9000FEF7F8F92046FEF779FA4D4982B24FF084
:101FA000FF33103108462146FFF774FDFFF7ACFF01
:101FB0001FBD00BF2575000010B50446FEF766FA88
:101FC00082B2434821464FF0FF331030BDE8104045
:101FD000FFF760BD2DE9FF41FFF7BCF9FFF7D4FD26
:101FE0000026374C3849394D01270096206840F0CB
:101FF00001002060206800F0010000900098314846
:10200000077680F82060C0E90A1605F55C41C761D3
:1020100080F83060C0E90016C0E90266C0E90477C4
:10202000CDE90266CDE90066FEF7F4FE18B1EFF3E4
:10203000108072B6FEE70720CDE90067694602907E
:102040002048FEF769FE18B1EFF3108072B6FEE784
:10205000DFF87C804FF4E13100270C22404640F845
:10206000105FC0E90117C0E90377C0E90527C76120
:10207000FFF7ACFC18B1EFF3108072B6FEE72068F2
:10208000154E4FF4E03140F002002060114813A4D7
:10209000685000F02DF8FFF765FE0546642D0AD064
:1020A0002046FFF789FFFFF72FFF376018F805007C
:1020B00000F060F830604FF49170FFF761F8E8E7E6
:1020C00030380240D00000200100000F00440040E2
:1020D000000000205555D5FF140402403773656792
:1020E0006D656E7420757064617465640000000035
:1020F0002DE9F84F9FED180BDFF874B0002659EC6E
:10210000108B9FED170B57EC10AB9FED170B55EC99
:10211000104BB6F5E47F08BFBDE8F88FFFF71AFD56
:1021200000EE100AB8EE400A10EE100A01F06CF84A
:1021300042464B4600F080FC52463B4600F07CFE97
:1021400022462B4600F020FD00F044FC4BF8060030
:102150000436DEE700BF00BF0000000000E495C0C9
:1021600000000000000014400000000000D0734098
:1021700018010020A0F12A023F21172A0FD8DFE81A
:1021800002F00C313131313131181A1C1E20222459
:102190002628313131313131312A762122E023288C
:1021A0001BD062281BD063281BD0642808BF5E2187
:1021B00018E0062116E05B2114E04F2112E06621B1
:1021C00010E06D210EE07D210CE007210AE07F2167
:1021D00008E06F2106E0772104E05C2102E07C2129
:1021E00000E0392188B270475FEA400C08BF91F0E7
:1021F000000F4FEA8C234FEAC12243EA51514FEAC4
:102200001C5018BF00F5F0404FEA300018BF41F0F5
:1022100000415FEA6C5C00F02980BCF1FF3F08BF21
:1022200040F080407047130C06BF12044FF0100CB2
:102230004FF0000C130E04BF12020CF1080C130F28
:1022400004BF12010CF1040C930F04BF92000CF1B7
:10225000020CD30F04BF52000CF1010C11464FF0D9
:102260000002A0F11F00A0EB0C00704711F0004F1E
:1022700008BF704731F000413FF4D5AF0B0C06BFEB
:1022800009044FF0100C4FF0000C0B0E04BF0902B4
:102290000CF1080C0B0F04BF09010CF1040C8B0F9F
:1022A00004BF89000CF1020CCB0F04BF49000CF1F4
:1022B000010CCCF1200322FA03F341EA030102FAF4
:1022C0000CF2A0EB0C0000F10100704723F07F47F7
:1022D00020F07F4C80EA030000F00040ACEB0703E5
:1022E00003F57C5303F1FF032DE9804909B44FEA5C
:1022F000144324EA03484FEA154B25EA0B4E0FF22C
:10230000042606EB13273E7803FB0667C7F5000794
:1023100007FB06F64FEAD64606F102064FEA5437A7
:1023200007FB066CCCF1005C4FEA1C472CEA074C1B
:102330000CFB06F507FB06F404EB15464FEA961670
:1023400049085FEA320234BF00204FF000404FEAF4
:10235000D13706FB07FC4FEA1C4C0CFB0BF7D21BDA
:1023600003FB0CF761EB07010CFB0EF7B0EB07402A
:1023700072EB17420CFB08F734BFA2EB0742B2EB3B
:10238000074261EB17414FEA0C444FEA910706FB05
:1023900007FC4FEA1C4C0CFB0BF7B0EBC74072EB91
:1023A000573203FB0CF734BFA2EBC742B2EBC74274
:1023B00061EB57310CFB0EF7B0EBC70072EB5772B5
:1023C0000CFB08F734BFA2EBC702B2EBC70261EB0C
:1023D00057714FEA816141EA92114FEA826242EA03
:1023E00090124FEA806004EBCC04039F4FEAD13790
:1023F00006FB07FC4FEA1C4C0CFB0BF7D21B03FB44
:102400000CF761EB07010CFB0EF7B0EB074072EB2A
:1024100017420CFB08F734BFA2EB0742B2EB0742AE
:1024200061EB17414FEA8C5504EB9C244FEA91076E
:1024300006FB07FC4FEA1C4C0CFB0BF7B0EBC7404C
:1024400072EB573203FB0CF734BFA2EBC742B2EB7F
:10245000C74261EB57310CFB0EF7B0EBC70072EBD4
:1024600057720CFB08F734BFA2EBC702B2EBC702EE
:1024700061EB57714FEA816141EA92114FEA826242
:1024800042EA90124FEA806015EB4C2544F10004BB
:102490004FEAD13706FB07FC4FEA1C4C0CFB0BF74D
:1024A000D21B03FB0CF761EB07010CFB0EF7B0EB43
:1024B000074072EB17420CFB08F734BFA2EB074250
:1024C000B2EB074261EB17414FEA813141EA924199
:1024D0004FEA823242EA90424FEA80304FEA0C766D
:1024E00015EB1C1544F1000448EA03434EEA0B487F
:1024F0004FF0000EB2EB080C71EB030724BF6246ED
:1025000039464EEB0E0E4FF0000B00185241494178
:102510004BEB0B0BB2EB080C71EB03077BF1000BE1
:1025200024BF624639464EEB0E0E4FF0000B0018EA
:10253000524149414BEB0B0BB2EB080C71EB03071B
:102540007BF1000B24BF624639464EEB0E0E51EA7A
:10255000020718BF46F0010616EB0E7655F1000291
:1025600054F1000103D5BDE88901BDE80088BDE84C
:102570008901BDE80048B619524141EB0101A3F1C0
:102580000103704780807F7E7D7C7B7A79787776C7
:1025900076757473727171706F6E6E6D6C6C6B6A40
:1025A0006A696868676666656464636362616160DE
:1025B000605F5F5E5E5D5D5C5C5B5B5A5A5959585B
:1025C00058575756565555555454535352525251C5
:1025D000515050504F4F4F4E4E4D4D4D4C4C4C4B1B
:1025E0004B4B4A4A4A494949484848474747474662
:1025F000464645454544444444434343434242429E
:10260000424141419C46002B30D477002BD04FEA09
:1026100037071CB503B44FF010004FF01001BAF1AA
:10262000000F06D0BCF1000FDCBF40F0080040F006
:1026300008014FF000000FBCBDE810400BF1010B8A
:10264000BBF1010F08BF5FEA170722BF12F10102B9
:1026500011F101014FF0004143F1000300F000408F
:1026600043EA00007047F9D35708D0E746EA064628
:102670004FEA164613F1400F1FDD13F1200FDFBFA5
:1026800016430A46002120335B42BED0C3F1200727
:1026900046EA06464FEA164602FA07F746EA0706F2
:1026A00022FA03F2C3F1200701FA07F742EA070210
:1026B00021FA03F14FF00003A7E746EA020646EAD3
:1026C00006464FEA164646EA0106BCBF46EA0646FB
:1026D000360C4FF000034FF000024FF0000194E77A
:1026E0002DE9804C70B49A46934691E8380007C8AB
:1026F00031EA400C48BF34EA430C03D5FFF7E6FD4E
:10270000FFF780FFF0BCBDE8008C2DE9804C70B471
:102710009A46934691E8380007C810F0804F08BFEA
:1027200013F0804F03D100F005F8FFF76BFFF0BC0A
:10273000BDE8008C20F07F4723F07F4C80EA030047
:1027400000F0004007EB0C03A3F57C53A3F1FE035C
:1027500092F0000F00F0B38095F0000F00F077804A
:102760002DE901494FEA114021EA00484FEA144699
:1027700024EA064700FB06FC08FB06F607FB08F800
:1027800018EB06484CEB164C00FB07F718EB074814
:102790004CEB17404FEA124B22EA0B4E4FEA15461C
:1027A00025EA06470BFB06FC0EFB06F607FB0EFEB2
:1027B0001EEB064E4CEB164C0BFB07F71EEB074EC1
:1027C0004CEB174B18EB0B0840F1000018EB0E0B0D
:1027D00058EB000840F100008F1A4FF000014FF055
:1027E00000063CBFC943661B14BFB5EB040C0021B7
:1027F0003CBFC943F61B4FEA174427EA04454FEA9A
:102800001C472CEA074C04FB076205FB07F70CFB8F
:1028100005F616EB074642EB174204FB0CFC16EBE1
:102820000C4642EB1C421BEB060658EB02024141F0
:102830004EEA8E0E46EA9E0601D5BDE80189B6191C
:10284000524141EB0101A3F10103BDE801894FEAC7
:10285000144524EA05464FEA114721EA074C05FBD7
:1028600007F406FB07F70CFB06F111EB074144EBFD
:10287000174405FB0CFC11EB0C4144EB1C444FEAE4
:10288000124722EA074C05FB07F206FB07F70CFB91
:1028900006F616EB074642EB174205FB0CFC16EB5F
:1028A0000C4642EB1C456A1854F1000148BF7047C2
:1028B000B619524141EB0101A3F10103704795F0B4
:1028C000000F37D04FEA114221EA02464FEA14477F
:1028D00024EA074C02FB07F106FB07F70CFB06F4A2
:1028E00014EB074441EB174102FB0CFC14EB0C44C6
:1028F00041EB1C414FEA154725EA074C02FB07F55F
:1029000006FB07F70CFB06F616EB074645EB1745EB
:1029100002FB0CFC16EB0C4645EB1C42121951F164
:10292000000148BF7047B619524141EB0101A3F1C4
:10293000010370474FEA144524EA05464FEA114760
:1029400021EA074C05FB07F106FB07F70CFB06F233
:1029500012EB074241EB174105FB0CFC12EB0C425A
:1029600051EB1C414FF0000648BF7047921841EBF5
:102970000101A3F10103704703B4019841000098DD
:1029800050EAC12018BF04204A0D18BF40F00100D2
:1029900040F2FF72B2EB515F08BF40F00200012825
:1029A00008BF052002B0704710B500290AD008788A
:1029B000002807D005487844FEF766F9002801D0C2
:1029C000002010BD0248784410BD00001A0A000023
:1029D000120A000021F0004201F00043A2F160520F
:1029E000B2F5801F28BFD2F17F6C0BD95FEA001CC3
:1029F00043EAC20242EB507018BF704728BF20F074
:102A000001007047B2F5801FBCBF184670474FEAFF
:102A1000410C1CF5001F02D2084600F06BBC70B5DB
:102A200000F0B4FA00000089FFF7F6BF4FF0004055
:102A3000A0F580007047000010B591EA030F48BF71
:102A400083F0004300F1FE82841A71EB030C05D27F
:102A5000121943EB0C03001B61EB0C014FEA1154FC
:102A6000A4EB135CDFF81CE11EEA430F18BF9EEADB
:102A7000445F73D021EA045123EA0E0343F4801328
:102A8000DCF1200E32D322FA0CFE10EB0E0023FAFA
:102A90000CFE41EB0E01CCF1200E03FA0EFE10EB02
:102AA0000E00CCF1200E51F10001B1F5801F32D2A1
:102AB00001EB045112FA0EF2BDE8104058BF704706
:102AC000401C38BF5FEA420218BF7047002814BF9D
:102AD00020F0010041F100014FEA410313F5001F0E
:102AE00038BF7047A1F1C04100F09EBA012A43EB04
:102AF0000302ACF1200CDCF11F0E32BF4FF0000ED0
:102B000023FA0CF310EB030041EB0451B4EB115F1B
:102B1000D0D0A1EB045101F58011490801EB04511B
:102B20005FEA30000ED350F1000038BF12FA0EFEFB
:102B300008D1BDE81040C9E7401C38BF5FEA420237
:102B4000CAD1C3E7BDE810404FEA410313F5001FA7
:102B500038BF7047A1F1C04100F066BA9EEA445FF9
:102B600008D011EA5E0FBDE8104004BF01F000413B
:102B700000207047BDE8104070B500F007FA00BFB4
:102B800064FBBE3E0000E0FF2DE9C04130B4DFF839
:102B9000A0C23CEA111418BF3CEA131400F0EC8008
:102BA0001CEA111481EA030544EAD57418BF1CEA33
:102BB000131500F0C780A4EB050404F17F7404F53D
:102BC00000344FF0004545EAC12145EAC32341EAFC
:102BD000505143EA52534FEAC0204FEAC222994271
:102BE00008BF904200F09C804FEA13650FF2401638
:102BF000765D4FEA134506FB05F7C7F1807706FBC4
:102C000007F74FEAD737A7FB03687642A7FB06CE44
:102C1000C8F5803838BFA8F1010807FB08E6A6FB15
:102C2000028C4FF0000EE6FB03CEDCF1000CCEF17F
:102C3000004E38BFAEF1010EA6FB0C584FF0000756
:102C4000E6FB0E87A1FB08C6A0FB07CE16EB0E061F
:102C50004FF0000545F10005E1FB076515F1E04E79
:102C60007EBFA4F580345FEA46066D4116F1800709
:102C700045F100054FEA172747EA05674FEA152592
:102C80004FEA0666A6F1DE46B6F1805F1FD93846E8
:102C900005EBC47124F0010C01EB0C11BCF1FE6FCB
:102CA00002D8F0BCBDE8008124425CBF01F5801E63
:102CB0009EEAC47F02D4F0BCBDE80081244238D42F
:102CC000A1F1C041F0BCBDE8004100F0ADB94FEA50
:102CD000D02040EA41504FEAD1214FEAD22242EAC5
:102CE00043524FEAD323A7FB028607FB036605FB8B
:102CF00002661EEA0E0F58BFA6EB0056B6EB005652
:102D00004FEA520E4EEAC37E18EB0E0E56EB530EF0
:102D1000BDD518EB02085E417F1C55F10005B6E7F2
:102D20004FF480154FF000074FF000064FF00008F9
:102D3000ADE701F1C04101F000414FF00000F0BCEF
:102D4000BDE800810CEA131511EA0C1F00D00CE05D
:102D500013EA0C1F00F025804FF0000081EA030108
:102D600001F00041F0BCBDE80081F0BCBDE80041CD
:102D700081EA030100F058B9F0BCBDE8004170B52C
:102D800000F004F9097EFC3E00F007B84FF00000A7
:102D900081EA030101F00041704781EA030100F07C
:102DA00043B9F0BCBDE8004122494FF00000704734
:102DB000FFFDFBF9F7F5F4F2F0EEEDEBE9E8E6E400
:102DC000E3E1E0DEDDDBDAD8D7D5D4D3D1D0CFCD87
:102DD000CCCBCAC8C7C6C5C4C2C1C0BFBEBDBCBBC0
:102DE000BAB9B8B7B6B5B4B3B2B1B0AFAEADACABBB
:102DF000AAA9A8A8A7A6A5A4A3A3A2A1A09F9F9E95
:102E00009D9C9C9B9A999998979796959594939346
:102E1000929191908F8F8E8E8D8C8C8B8B8A8989DD
:102E20008888878786858584848383828281818060
:102E30000000FF070000F87F70B5DFF848C11CEA0A
:102E4000111E1EBF1CEA13159EEA0C0F95EA0C0F0B
:102E500000F06F8081EA03044EEAD47EAE4421EA9A
:102E60004C1123EA4C1341F4801143F48013AEF16A
:102E70007F7EA1FB024CA0FB0365361955EB0C05C8
:102E8000A1FB034C4CF10003A0FB021C16EB0C064B
:102E9000654153F10003094218BF46F0010613F4DF
:102EA000007F0BD14FEA03314FEA053041EA15515B
:102EB00040EA165034036FF003020AE04FEAC321E0
:102EC0004FEAC52041EA555140EA5650F4026FF0EE
:102ED000020202EB2E4201EB025585EACE710AD0C6
:102EE0005FEA440C18BF24F0004450F1000041F1A7
:102EF000000120EAD47040F2FE7C624500D270BD31
:102F0000A84214BF4FF080444FF04044002E08BF49
:102F10000024BEF1806FA8BFA1F1C041BDE87040A0
:102F200080F2828001F1C04101F000414FF00000C9
:102F300070470CEA13159EEA0C0F18BF95EA0C0FA8
:102F400006D081EA030E4FF000000EF0004170BD84
:102F500000F01CF88900013E00F007B800F009B845
:102F60004FEA430C5FEA5C5C08D081EA030100F0A1
:102F70005BB84FEA410C5FEA5C5CF6D102494FF066
:102F8000000070470000FF070000F87F0EF1020EFE
:102F90002EF0030E5EF8046B364205D4012A43EB93
:102FA000030515F5001F12D8012841EB010C1CF593
:102FB000001F0CD80ED14FEAD17C0CEB4C0C0CF15D
:102FC000020C15F5001F08BF4CEBD37C04E04FF05A
:102FD000080C01E04FEAD37C0CEB4C0526FA05F611
:102FE00006F00706B6F1040C06D20EEB860CBDE81F
:102FF00070404CF0010C6047DFE80CF0090B020256
:103000004FF00041A1F500214FF0000070BD1946BE
:103010001046012851EB010418BFD4F5001484BFF9
:10302000002001F0004170BD0808A0F500114FEA32
:103030003101704710B591EA030F48BF83F0004398
:103040003FF502AD841A71EB030C07D28CF0004CF3
:10305000121943EB0C03001B61EB0C014FEA1154F6
:10306000A4EB135CDFF89CE11EEA430F18BF9EEA55
:10307000445F00F0B08021EA045123EA6E0352421B
:10308000C3EB6E0338BF5B1EDCF1200E25D322FAA2
:103090000CFE10EB0E0043FA0CFE41EB0E01CCF1DE
:1030A000200E03FA0EFE10EB0E00CCF1200E51F1B3
:1030B000000129D401EB045112FA0EF2BDE81040D0
:1030C00058BF7047401C1CBFB2F1004F704700282A
:1030D0000CBF491C20F00100704712EB020E43EBBD
:1030E000030218BF4FF0010E4EEA4202ACF1200C71
:1030F000DCF11E0E54D943FA0CFE10EB0E00CCF19D
:103100001E0E51F1FF31D5D50EF1010E12FA0EFE51
:10311000404141EB010101EB445C5FEA5C5C10D98A
:1031200001EB045110EBDE7038BFBEF1004FBDE87B
:10313000104018BF704700280CBF491C20F0010048
:10314000704730D24FEAD42C24F4006411F50011FA
:103150001BD0B1FA81F20B3AA41AA41ED2F12003BB
:10316000914030FA03F31943904001EBCC7101EB2D
:103170000451002CBDE81040A8BF704701F1C041C8
:1031800001F000414FF000007047B0FA80F310FAF0
:1031900003F100D110BDE41A173C4805C90AE4E761
:1031A00001EB045110BD49104FEA300001EB04510E
:1031B000BDE8104002E04FF0000170474A0008BF30
:1031C0000042F8D0B2F5001F28BF704701F000415F
:1031D0004FF0000070479EEA445F07D011EA5E0F8F
:1031E000BDE8104004BF002100207047BDE810403A
:1031F00070B5FFF7CBFE00BF40DFF63E104683F010
:10320000004170470000E0FF43004FEAD30C4FEA53
:103210003C0C43401FBF40070CF1605113F0FE4FC0
:1032200070471CF0006F03D10CF000410020704784
:103230000CF0004343EA507040EACC0010B500F0B7
:103240000EF800BF000000924FEA0001FFF7ECBE4D
:103250004FF00041A1F500214FF0000070470EF142
:10326000020E2EF0030E5EF8044B244204D44FEA03
:103270004102B2F17F4F11D84FEA4003B3F17F4FC3
:103280000CD80ED14FEAD07C0CEB4C0C0CF1020C9C
:10329000B2F17F4F08BF4CEBD17C04E04FF0080C3B
:1032A00001E04FEAD17C0CEB4C0324FA03F404F068
:1032B0000704B4F1040C06D20EEB840CBDE81040F8
:1032C0004CF0010C6047DFE80CF0070802024FF0F9
:1032D0000040A0F5800010BD0846420018BFD2F1A2
:1032E000807288BF00F0004010BD4FF04070E1EEEA
:1032F000100A7047FF2141EAD050C0057047FDF722
:103300003FBA000002400000000000A000000000E2
:1033100005400000000000C8000000000C40000054
:103320000000409C00000000194000000020BCBECE
:103330000000000034400000BFC91B8E00000004E4
:10334000B5400000504BCFD06607E2CF010000002F
:103350006C4100003E8251AADFEEA734010000005C
:10336000D9420000DCB5A0E23A301F97FFFFFFFF13
:10337000B4450000FD25A0C8E9A3C14FFFFFFFFF32
:10338000FF3F00000000008000000000FF3F000041
:1033900000000080000000000000000000000000AD
:1033A00001020304060708090000000001020304EB
:1033B000F03300080000002070000000D001000879
:1033C000603400087000002070080000EC01000864
:1033D0001C00000043000000F8FFFFFF0C0000008D
:1033E0000E0000000F0000002E0000000000000092
:1033F0003132334134353662373839632A30236409
:1034000000000000000000000000000000000000BC
:1034100000000000000000000000000000000000AC
:10342000000000000000000000000000000000009C
:10343000000000000000000000000000000000008C
:10344000000000000100000010000000000000006B
:103450000024F40000000000000000000000000054
:040000050800019559
:00000001FF
