:020000040800F2
:10000000A80700203D0200080F1A00080B1A00087C
:100010000D1A00089B050008871F0008000000005B
:10002000000000000000000000000000411A00086D
:100030000906000800000000111A00086D1A0008E7
:10004000570200085702000857020008570200082C
:1000500057020008131A00080D060008570200088E
:10006000570200085702000857020008570200080C
:1000700057020008570200085702000857020008FC
:10008000570200085702000857020008000000004D
:1000900000000000000000000000000057020008FF
:1000A00057020008570200085702000857020008CC
:1000B00057020008111B00085702000857020008E9
:1000C00057020008570200085702000857020008AC
:1000D00057020008570200085702000800000000FD
:1000E00057020008570200085702000800000000ED
:1000F000000000000000000000000000570200089F
:1001000000000000570200085702000857020008CC
:1001100000000000000000000000000000000000DF
:10012000570200085702000857020008570200084B
:10013000570200080000000000000000000000005E
:10014000000000000000000000000000570200084E
:10015000570200085702000857020008570200081B
:1001600057020008570200080000000000000000CD
:10017000000000000000000000000000000000007F
:10018000000000005702000800000000000000000E
:100190005702000800F002F800F041F80AA090E8C9
:1001A000000C82448344AAF10107DA4501D100F032
:1001B00036F8AFF2090EBAE80F0013F0010F18BFBE
:1001C000FB1A43F001031847142D0000342D0000E2
:1001D000103A24BF78C878C1FAD8520724BF30C873
:1001E00030C144BF04680C60704700000023002445
:1001F00000250026103A28BF78C1FBD8520728BF37
:1002000030C148BF0B607047752900F0AF800020F7
:1002100070471FB502F04BFE1FBD10B510BD00F0BA
:1002200083F91146FFF7F5FF01F098FF00F0A1F9FF
:1002300003B4FFF7F2FF03BC00F0A8F909488047B8
:1002400009480047FEE7FEE7FEE7FEE7FEE7FEE7B8
:10025000FEE7FEE7FEE7FEE704480549054A064BD0
:1002600070470000FD1A000895010008A801002051
:10027000A8070020A8030020A803002053EA020CCE
:1002800000F069802DE9F04B4FF00006002B1FBFF6
:10029000B3FA83F503FA05F424FA05F65E4012BFBB
:1002A0001643B2FA82F502FA05F4C5F120051EBF25
:1002B00022FA05FC44EA0C04203556EA044C4FEAC5
:1002C000144418BF641C4FF000084FF0000990421E
:1002D00071EB030C39D3002919BFB1FA81F701FA88
:1002E00007F6B0FA80F700FA07F6C7F120071EBF3D
:1002F00020FA07FC46EA0C062037B6FBF4FCA7EB15
:100300000507103F07F01F0BCBF120062CFA06F66D
:100310000CFA0BFB44BFB3460026202FA4BF5E4659
:100320004FF0000B5BEA060C08BF4FF0010B19EB16
:100330000B0948EB0608ABFB027C06FB02CC0BFB6F
:1003400003CCC01B71EB0C01C1E70B4602464146D2
:100350004846BDE8F08B13B54FF000004FF00001A8
:10036000AFF30080BDE81C40704700002DE9F0416C
:100370000646002410687529314616A510D0AFF343
:100380000080002802DA404213A507E031688A079E
:1003900001D512A502E0490704D511A5012401E009
:1003A000AFF3008000210A2206F1240709E0B0FB28
:1003B000F2FCB0FBF2F302FB1C003030785418461C
:1003C000491C0028F3D123462A463046BDE8F041B7
:1003D00000F051B8000000002D0000002B000000CC
:1003E0002000000010B5431C02E010F8011B71B1A1
:1003F0008107FAD14FF0013202C88C1A8C4314EAFB
:10040000C211F9D0C01A0A0603D0C01E10BDC01A0E
:1004100010BD0A0401D0801E10BD0902FCD0401E90
:1004200010BD4FF0000200B51346944696462039A1
:1004300022BFA0E80C50A0E80C50B1F12001BFF49D
:10044000F7AF090728BFA0E80C5048BF0CC05DF803
:1004500004EB890028BF40F8042B08BF704748BF51
:1004600020F8022B11F0804F18BF00F8012B7047C5
:100470007047704770472DE9F0470D469946924600
:10048000044600F124080168880604D5E06921F0DB
:100490001001216000E00120A84201DD471B00E0BF
:1004A0000027A1697A1902EB0900081AA0612078D7
:1004B000C00602D42046AFF30080002608E0D4E94D
:1004C00001211AF806009047206A401C761C206221
:1004D0004E45F4DB2078C0060AD52046AFF30080F5
:1004E00006E0D4E9012130209047206A401C2062B8
:1004F000381EA7F10107F4DC07E0D4E9012118F860
:1005000005009047206A401C2062281EA5F10105C5
:10051000F3DC2046AFF300802078000602D50220ED
:10052000BDE8F0870120FBE7754600F02BF8AE46EA
:1005300005006946534620F00700854618B020B5EF
:10054000FFF78AFEBDE820404FF000064FF000079D
:100550004FF000084FF0000BAC46ACE8C009ACE827
:10056000C009ACE8C009ACE8C00921F007018D461C
:10057000704710B50446AFF300802046BDE8104038
:10058000FFF756BE004870471000002001491820B0
:10059000ABBEFEE7260002007047FEE7B0B52A4D6D
:1005A000044646F270010022284600F068FB154818
:1005B0000C2101F02FF925480470601E04281CD876
:1005C000DFE800F003060E1B11002846102111E0A1
:1005D0000C480C2101F0C8F828464FF4005109E0FE
:1005E0002846202106E007480C2101F0BDF82846E6
:1005F0004FF48041012200F042FB2046BDE8B040AC
:1006000001F036BDC00000207047000010B50E4C50
:100610008021204600F02EFB012803D10B480078F2
:1006200060B110BD20464FF4807100F023FB01281B
:1006300018BF10BD054800780628F2D10220BDE899
:100640001040FFF7ABBF00BF000002407000002069
:1006500018B50022009290F83C20012A01D1022115
:100660006DE0012280F83C200A6893B20A2A4FEA22
:10067000430313FA82FE06D3D0F800C0AEF11E0E7B
:100680000CF10C0203E0D0F800C00CF110020723BB
:10069000146803FA0EF324EA030313608B681468EA
:1006A00003FA0EF3234313604A68062A06D802EBC6
:1006B00082020CF13403A2F1050E0BE002EB820E74
:1006C0000C2A87BF0CF12C03AEF1410E0CF1300364
:1006D000AEF1230E1F241A6804FA0EF4A2431A6026
:1006E0000A881C6802FA0EF222431A60654AA2F5D3
:1006F00041739C4520D10968122904D1116841F445
:100700008001116018E021F00103102B14D113684F
:10071000102943F4000313600ED1D449D44A096868
:10072000B1FBF2F101EB8101490001E000990139CF
:10073000009100990029F9D1002180F83C10C8B23D
:1007400001B010BD0068C06C7047000010B50446D1
:10075000002C42D0206C30B9204600F09BF80020DD
:1007600084F83C006064206C10F0100F37D1206CCE
:1007700041F20211444B884340F00200206441489A
:10078000016821F440310160616802681143016031
:100790002068416821F4807141602169426842EA21
:1007A00001214160416821F040714160A1684268C7
:1007B00011434160816821F400618160E1688268D1
:1007C00011438160A16A826822F07062994282605E
:1007D000826806D122F040510CE0012010BD0120BA
:1007E0004CE011438160816821F040518160E16AF1
:1007F000826811438160816821F002018160217E5D
:10080000826842EA4101816094F8202041686AB11F
:1008100041F400611D4A4160416821F4604141603A
:10082000616A02EB41314268114301E021F4006149
:100830004160174AC16A21F47001C162E16902EBAB
:100840000151C26A1143C162816821F40071816063
:1008500094F83010826842EA41218160816821F475
:10086000806181606169826842EA81210122816040
:1008700000206064216C62F301012164002184F88E
:100880003C1010BD042301400100000F00E0FFFFF9
:100890000000F0FF10B586B0044601A81421FFF750
:1008A000C0FD2168734881421ED100210F4A00F526
:1008B00060400091536943F480735361536903F4BA
:1008C00080730093009B0091136843F00103136051
:1008D000126802F001020092009A0322CDE901227F
:1008E000039101A900F0F6F806B010BD30380240BF
:1008F000F8B504460D462068816811F4806F03D076
:10090000806810F4807F41D100F0BEF906466F1C6C
:100910002068016811F0020F15D1002FF8D02DB119
:1009200000F0B2F9801BA842F2D92068006810F0EC
:10093000020FEDD1002084F83C00206C40F0040050
:10094000206403202AE06FF012010160216C41F461
:1009500000712164816811F0405F15D1217E99B941
:10096000C16A11F4700F03D0806810F4806F0BD14E
:10097000206C20F480702064206C10F4805F02BF33
:10098000206C40F001002064002007E0002084F883
:100990003C00206C40F0200020640120C0B201B077
:1009A000F0BD000081B00021009190F83C100129B9
:1009B00001D1022056E0012180F83C1001688A68CC
:1009C00012F0010F11D18A68294B42F001028A60AE
:1009D000CE4A1268B2FBF3F202EB420201E0009A47
:1009E000013A0092009A002AF9D18B68026C13F048
:1009F000010F07D142F010010164416C41F0010187
:100A000041642EE040F201739A4342F48072026422
:100A10004A6812F4806F04D0026C012363F30D3234
:100A20000264036C002213F4805F4FF000031CBFCC
:100A3000436C23F0060380F83C2043646FF02200EF
:100A400008600C48D0F8042312F01F0F01D0814237
:100A500007D1886810F0405F03D1886840F080407B
:100A600088600020C0B201B0704700BF0C000020B9
:100A700040420F000020014090F83C10012901D1B4
:100A8000022115E0012180F83C1001688A6822F0FB
:100A900001028A60896811F0010F06D1016C41F2F0
:100AA0000112914341F001010164002180F83C10E2
:100AB000C8B27047B0B5044600F0E6F80546924863
:100AC000611C007818BF044400F0DEF8401BA0420F
:100AD000FAD3B0BD2DE9FC4F5F4A07274FF001095B
:100AE0004FF0030A4FF0000B4FF0000E002690422B
:100AF0005A4A08BF042702444FEAB223042B38BFE6
:100B00004FEAB2270097102E08BFBDE8FC8F0C6893
:100B100009FA06F31C4200F099804D6805F00304C1
:100B2000671E012F15D8D0F808C00AFA0EF72CEA74
:100B3000070CCF6807FA0EF747EA0C078760C5F382
:100B4000001707FA06FC47689F4347EA0C0747600F
:100B500001E0032C1DD0C2680AFA0EF7022C22EA2B
:100B600007028F6807FA0EF742EA0702C26010D147
:100B70003E4C0BF01C020F27974004EA5605054433
:100B80002C6A24EA07070C6904FA02F23A432A6243
:100B90004D68046805F003020AFA0EF715F4403FA9
:100BA00002FA0EF224EA070742EA070202604DD079
:100BB00000222B4C0BF00C0501922B4AA4462C4C26
:100BC00017463A68A0460F24AC4042F480423A608F
:100BD0003A6802F48042019226F00302019F6244C7
:100BE00052F80870A743009C04FA05F52F4342F819
:100BF0000870DCF800204D6842EA030715F4803FD6
:100C000008BF22EA030715F4003FCCF80070DCF8B7
:100C1000042042EA030708BF22EA030715F4801FF5
:100C2000CCF80470DCF8082042EA030708BF22EA87
:100C300003070C4A15F4001FCCF80870144622680C
:100C400042EA030708BF22EA030727600BF1040BFF
:100C50000EF1020E013656E7001002400000FEBF02
:100C6000003C01400C3C014044380240FCFFFF7F47
:100C700008FCFFFF0069084018BF01207047002AE8
:100C800008BF0904816170471F488068704700BF32
:100C90001D480178826811448160704780B50B4817
:100CA000016841F400710160016841F480610160F4
:100CB000016841F480710160032000F087F80F2083
:100CC00000F006F800F024F8002080BD003C02404F
:100CD00070B50D4E04464FF47A713078B1FBF0F0E8
:100CE00098490968B1FBF0F000F016FB01250F2CC4
:100CF00008D838B94FF0FF3021460022002500F017
:100D000039F87460284670BD000000200C000020F7
:100D1000E0B500200F4901904A6842F480424A60E1
:100D20004A6802F480420192019A00900868002209
:100D300040F0805008600868002100F0805000906A
:100D40000098052000F016F80520BDE88C4000F062
:100D500003B800BF40380240002808DB00F01F0144
:100D60000122400902FA01F1014A42F820107047BD
:100D700000E100E0B0B500F00F031A4D124CB0F1E5
:100D8000FF3FA3F104032B4403F10C03C8BF031975
:100D90002868C0F30220051DC41E80F00700072D3F
:100DA0004FF0010538BF0024042828BF042005FAAD
:100DB00000F00138084005FA04F10F31A04011405D
:100DC000084300011870B0BD00E400E005494FF68B
:100DD000FF030A681A4060F30A22034810430860C0
:100DE000704700BF0CED00E00000FA052DE9F0416E
:100DF00004468846002C00F08780454BD3F8000459
:100E000000F00700404507D283F80084D3F80004BF
:100E100000F00700404577D1206810F0020F11D094
:100E2000410742BF996841F4E0519960010742BF10
:100E3000996841F4604199609968A26821F0F001D5
:100E400011439960C0072DD06068811E022904D229
:100E5000196811F0007F0BD156E0012804D1196800
:100E600011F4003F04D14FE0196811F0020F4BD08C
:100E700099681D4621F0030108439860FFF704FFBD
:100E8000064641F288372B469868616800F00C00EE
:100E9000B0EB810F06D0FFF7F7FE801BB842F2D906
:100EA000032032E0D3F8000400F00700404507D9E2
:100EB00083F80084D3F8000400F00700404523D1F4
:100EC000206810F0040F05D09968E26821F4E05121
:100ED00011439960000706D59868216920F46040A5
:100EE00040EAC10098601C4600F032F8A168094A47
:100EF000C1F30311515CC8401249086006480068FC
:100F0000FFF7E6FE002000E00120C0B2BDE8F0815E
:100F100000380240C22E00080400002009480A4997
:100F20000A4A00680968C1F38221515CC8407047D1
:100F300004480549054A00680968C1F34231515C1B
:100F4000C84070470C00002008380240D22E00082C
:100F500010B5EE4C606800F00C00082804D004289E
:100F600014BF1048104810BD226820680E490023A5
:100F700010F4800F02F03F0204BF42F20041C0F2C1
:100F8000F4012068C0F38810A1FB0001FFF776F997
:100F900021680222C1F3014102EB4101B0FBF1F0F3
:100FA00010BD00BF0024F40040787D012DE9F84316
:100FB0000446002C00F05D812078D34ED34FC0074B
:100FC000B14651D0786800F00C00042807D1306891
:100FD00010F4003F48D06068002845D149E17868A6
:100FE00000F00C00082803D1386810F4800FEED10F
:100FF0006668B6F5803F09D0C846B6F5A02FD8F888
:10100000000015D140F48020C8F800004E4630683A
:1010100040F480303060FFF737FE0546306810F44A
:10102000003F21D1FFF730FE401B6428F6D9BEE017
:1010300020F48030C8F80000D8F8000020F48020A8
:10104000C8F80000FFF720FE002E05464646E5D111
:101050004E46306810F4003F06D0FFF715FE411BE6
:1010600003206429F4D905E1207880072FD578681A
:1010700010F00C0F08D0786800F00C0008280BD195
:10108000386810F4800F07D1306810F0020F17D0C5
:10109000E068012814D0ECE0E068002800F08980C6
:1010A0009B4801210160FFF7EFFD0546306810F015
:1010B000020F05D1FFF7E8FD401B0228F6D976E0C4
:1010C0003068216920F0F80040EAC10030602078E3
:1010D000000722D561698E4879B10121C0F8801ED0
:1010E000FFF7D2FD0546386F10F0020F15D1FFF75C
:1010F000CBFD401B0228F6D959E00021C0F8801E24
:10110000FFF7C2FD0546386F10F0020F05D0FFF75C
:10111000BBFD401B0228F6D949E0207840077BD56B
:10112000F86B4FF0000810F0805F0CD1CDF8008014
:101130004FF00108F86B40F08050F863F86B00F056
:10114000805000900098734E4846805910F4807F7C
:1011500012D14946885940F480708851FFF794FDB8
:1011600005464846805910F4807F05D1FFF78CFD75
:10117000401B0228F5D91AE0A668012E05D0F86EAA
:10118000052E29D140F00400F866F86E40F0010009
:10119000F866FFF779FD054641F28836F86E10F0E3
:1011A000020F32D1FFF770FD401BB042F6D9032089
:1011B00060E0574800210160FFF766FD054648469C
:1011C000006810F0020F3FF482AFFFF75DFD411B96
:1011D00003200229F3D94DE020F00100F866F86EF3
:1011E00020F00400F866FFF74FFD0546002ED3D12E
:1011F00041F28836F86E10F0020F06D0FFF744FD7A
:10120000411B0320B142F5D934E0B8F1000F1EBFF5
:10121000F86B20F08050F863A669002E71D07868D2
:1012200000F00C00082829D1012E22D03868E1698D
:1012300000F480028A421CD1216A00F03F028A42F7
:1012400017D147F6C071626A0140B1EB821F10D11D
:10125000A16A4FF6FF72C903914300F44032A1F531
:1012600080318A4205D1E16A00F07060B0EB016F15
:1012700047D00120C0B201B0BDE8F083244900206E
:1012800088460866FFF700FD0546022E0BD148464A
:10129000006810F0007F12D0FFF7F6FC411B03201E
:1012A0000229F4D9E6E74846006810F0007F28D00C
:1012B000FFF7EAFC411B03200229F4D9DAE704F125
:1012C0001C064FCE0843D90340EA82104FF6FF7246
:1012D000914340EA0660A1F580310843386001205F
:1012E000C8F86000FFF7D0FC04464846006810F0DC
:1012F000007F06D1FFF7C8FC011B03200229F4D9A7
:10130000B8E70020B6E700BF0038024004380240CA
:10131000000047420038FEFF411E0020B0EB116F75
:101320001CBF01207047044AF023516003490B7031
:10133000072190601160704710E000E023ED00E0AD
:1013400090F83C20012A01D102211FE0B0B501F143
:101350000805D1E900CE3CCDC96923F47C5322F4C1
:1013600070521A432EF4F0431A432CF4E0431A430C
:1013700024F4C0431A432A4322F4804211430268F2
:101380005164002180F83C10BDE8B040C8B27047FD
:1013900090F83C300222012B2FD010B580F83D2070
:1013A000012280F83C200268D2F804E0D2F808C09C
:1013B0000C68B2F1804F2EF0700343EA04035360CF
:1013C000BDE810400ED0494B9A420BD0484B9A4290
:1013D00008D0484B9A4205D0474B9A4202D0E04B86
:1013E0009A4204D149682CF080031943916000228D
:1013F000012180F83C2080F83D10D0B2704700BF3A
:1014000010B5044634B394F83D0028B9002084F8A0
:101410003C00204600F020F80220211D84F83D0009
:10142000206800F0EFFB012084F8460084F83E00BD
:1014300084F83F0084F8400084F8410084F84200BA
:1014400084F8430084F8440084F8450084F83D00A3
:10145000002010BD012010BD0068EA49884218BF75
:101460007047E0B50020002201900948016841F072
:10147000020101600021006800F002000190019863
:101480001D20FFF777FC1D20BDE88C40FFF764BCF2
:101490004038024090F83D1001291CBF01207047E0
:1014A000022180F83D100068C168B0F1804F41F022
:1014B0000101C1600ED0D34988420BD0D249884285
:1014C00008D0D349884205D0D049884202D0EE499D
:1014D000884204D1816801F00701062903D0016820
:1014E00041F0010101600020704700BF000400408E
:1014F00000080040000C00400040014010B50446C8
:10150000022094F83C20012A70D084F83D0001208C
:101510004FF6777384F83C00206882689A438260B3
:101520000A6812B3102A20D0202A1ED0302A1CD0DC
:10153000402A21D0502A2BD0602A35D0B2F5005F46
:101540003ED0B2F5805F4AD0702A51D1D1E9012353
:10155000C9681A4342EA0121826822F47F4211439A
:101560008160816841F0770138E0816821F077017E
:10157000114341F0070131E04B68CA68194600F099
:1015800043FC2068816821F0770141F0470125E0A4
:101590004B68CA68194600F037FC2068816821F062
:1015A000770141F0570119E04B68CA68194600F00D
:1015B0003CFC2068816821F0770141F067010DE073
:1015C000D1E90123C9681A4342EA0121826822F461
:1015D0007F4211438160816841F480418160002035
:1015E000002184F83C10012184F83D10C0B210BDE8
:1015F0000120F5E710B586B0044601A81421FEF7D6
:1016000010FF2168A048814219D10021D04A00F57D
:1016100080300091136843F001031360126802F0F8
:1016200001020092009A022202924FF4006201929B
:10163000CDE903110121059101A9FFF74BFA06B08D
:1016400010BD00BFB0B504460D4694F83C0001281B
:1016500001D1022041E04FEAB2010120032984F8C0
:101660003C0037D8DFE801F0020A12222068294640
:1016700000F018FB206850F8181F0EE0206829467B
:1016800000F03CFB206850F8181F16E0206829463F
:1016900000F064FB206850F81C1F41F00801016055
:1016A000016821F00401016029690FE020682946E2
:1016B00000F084FB206850F81C1F41F400610160B9
:1016C000016821F4806101602969090202681143FF
:1016D00001600020002184F83C10C0B2B0BD10B5FC
:1016E000044634B394F83D0028B9002084F83C0047
:1016F000204600F021F80220211D84F83D002068DA
:1017000000F080FA012084F8460084F83E0084F856
:101710003F0084F8400084F8410084F8420084F8D7
:10172000430084F8440084F8450084F83D0000201C
:1017300010BD012010BD000000685349884218BF49
:10174000704781B0002000900648016841F0010117
:101750000160006800F001000090009801B070473F
:10176000000001404438024010B5044641B1082948
:1017700009D0042914BF04F1410004F13F0004E042
:1017800004F13E0001E004F14000007801281CBF94
:10179000012010BD022041B1082909D0042914BF3D
:1017A00084F8410084F83F0004E084F83E0001E042
:1017B00084F840002068012200F064FA2068324971
:1017C00088420FD0B0F1804F10D00E4988420DD022
:1017D0000D4988420AD00D49884207D00C498842F9
:1017E00004D008E04A6C42F400424A64816801F087
:1017F0000701062903D0016841F0010101600020C2
:1018000010BD00BF0004004000080040004001403F
:10181000000C0040B0B5044600220D46206800F0E0
:1018200031FA2068184988420DD10A6A41F2111331
:101830001A4208D10A6A40F244431A4203D14A6C60
:1018400022F400424A64016A41F21112114208D1A5
:10185000016A40F24442114203D1016821F00101C2
:1018600001600120082D08D0042D09D0002D14BFDF
:1018700084F8410084F83E0004E084F8400001E070
:1018800084F83F000020B0BD0000014010B50446C0
:1018900044B394F83D0028B9002084F83C00204669
:1018A00000F022F8242084F83D002068C16821F46B
:1018B0000051C160204600F0C9FA2068016921F496
:1018C00090410161416921F02A014161C16841F4FF
:1018D0000051C16000202021206484F83D1084F86C
:1018E0003E1010BD012010BD10B586B0044601A801
:1018F0001421FEF796FD21681448814223D100216E
:10190000134A00F5DE300091136943F4003313618C
:10191000136903F400330093009B0091136843F0B4
:1019200001031360126802F001020092009A022281
:1019300002920C2201920391032104910721059147
:1019400001A9FFF7C7F806B010BD00BF0044004072
:10195000303802402DE9F0470446994616460D46B8
:1019600094F83D00202806D101202DB126B194F82D
:101970003C00012803D10220C0B2BDE8F0874FF03F
:10198000000A0120C4F840A084F83C00212084F81B
:101990003D00FFF779F9A684E6848046A068B0F59B
:1019A000805F06D127690026002F0CBF2E462F46E8
:1019B00001E02F46002684F83CA015E02046802157
:1019C00042464B4600F0A8FAC0B91FB117F8011BF8
:1019D000206805E036F8021B206800276FF35F21BE
:1019E0004160E08C0138E084E08C0028E6D120469C
:1019F000402142464B4600F08FFA08B10320BBE776
:101A0000202084F83D000020B6E7FEE7FEE7FEE771
:101A100070477047B0B500F015F8134C2046FEF73C
:101A2000C1FF20464FF0FF31FEF762FF2046FEF770
:101A300089FE05462046FFF71FF82846B0BD00BFC7
:101A400070470000F8B50120002100900391CDE916
:101A5000010105486946FEF7FBFD18B1EFF3108060
:101A600072B6FEE78FBD00BF10010020FFF710B96E
:101A7000B0B592B006AC2C21201DFEF7D2FC01A817
:101A80001421FEF7CEFC00251A48022200950168B9
:101A900041F080510160006800F080500090009893
:101AA00000951548016862F38F310160006800F409
:101AB00040400090009801200990102006920A9062
:101AC00020460C95FFF772FA18B1EFF3108072B64A
:101AD000FEE70F20CDE90455CDE902550021019024
:101AE00001A8FFF783F918B1EFF3108072B6FEE793
:101AF00012B0B0BD4038024000700040024801689A
:101B000041F470010160704788ED00E000000000C2
:101B100070B52DED028B384E3078002865D03078C6
:101B2000062862D070780A282DD10020707096EDBA
:101B3000010ABDEEC00A10EE100A00F0F7FC9FED9E
:101B40002F8A96ED010AB4EEC80AF1EE10FA05DC10
:101B50003078012802D00120FEF720FD96ED010A21
:101B6000B4EEC80AF1EE10FA2CDD9FED250A96EDD1
:101B7000011AB4EEC01AF1EE10FA23DA3078032815
:101B80002FD003202BE000F063FC9FED191B51ECDC
:101B9000100B53EC112B00F0C5FD96ED010A044625
:101BA0000D4610EE100A01F011F902460B462046D0
:101BB000294600F00FFD00F0DBFC7060707801300A
:101BC000707012E09FED0E0A96ED011AB4EEC01A85
:101BD000F1EE10FA05DB3078052802D00520FEF77B
:101BE000DDFC706800217160B060BDEC028B70BDDF
:101BF00000000000000024407000002000000C42A3
:101C00000000384210B503687E4AB0F1804F13D00F
:101C1000164CA04210D0164CA0420DD0154CA0423C
:101C20000AD0154CA0420BD0144CA04208D0144C42
:101C3000A04205D0904207D14C6823F070032343A3
:101C4000CC6823F4407323434C6923F08003904213
:101C500043EA040303608B68C3620B68836204BFBA
:101C6000096911630121416110BD00BF00040040FA
:101C700000080040000C00400048014000400140C6
:101C80000044014001F01F01012303FA01FC036A33
:101C900002FA01F123EA0C030362026A11430162B2
:101CA0007047000070B5026A22F001020262036A06
:101CB000D0F804E08269D1F800C08C6822F0730289
:101CC00023F002034CEA020C4E4A234390420CD10B
:101CD000CE68D1E905452EF44072224342EA050E52
:101CE00023F00C0226F004031343C0F804E0C0F80C
:101CF00018C049684163036270BD00BF70B5026AD5
:101D000022F010020262026AD0F804E08369D1F87E
:101D100000C08C6823F4E64322F0200243EA0C2C36
:101D2000384B42EA041298420FD1CE68D1E90545FA
:101D30002EF4406322F0C00243EA840343EA850E96
:101D40006FF04F0303EA06131A43C0F804E0C0F82B
:101D500018C049688163026270BD00BF70B5026A35
:101D600022F480720262026AD0F804E0C369D1F8FA
:101D700000C08C6823F0730322F400724CEA030C59
:101D8000204B42EA042298420FD1CE68D1E90545A2
:101D90002EF4405322F4406243EA041340F2FF441D
:101DA00043EA051E3302A3431A43C0F804E0C0F817
:101DB0001CC04968C163026270BD00BFB0B5026A51
:101DC00022F480520262D0F820C0D0F804E0C56945
:101DD0008A680C682CF4005343EA023C094B25F452
:101DE000E64242EA0422984204D14B692EF480452F
:101DF00045EA831EC0F804E0C26149680164C0F886
:101E000020C0B0BD00000140D0F820C0036A23F01C
:101E100001030362836923F0F00343EA0212826143
:101E20002CF00A02114301627047036A23F0100389
:101E30000362836923F4704343EA0232036A8261D6
:101E400023F0A00242EA011101627047B0B50446D6
:101E500049F20C6520680169E26821F440511143A0
:101E60000161D4F808C0D4E90423D4F81CE0C168A7
:101E700042EA0C02A9431A4342EA0E021143C1602E
:101E80004169A26921F4407111434161214940F443
:101E90008060884202D1FFF74BF801E0FFF73EF87F
:101EA000E26919216368A0FB0101B2F5004F16D168
:101EB0005A00DB0FFEF7E2F964216FF06303B0FB19
:101EC000F1F202FB0300322303EBC000B0FBF1F19F
:101ED0004FF4F87000EA410001F0070113E09A00A6
:101EE0009B0FFEF7CBF964216FF06303B0FBF1F2B7
:101EF00002FB0300322303EB0010B0FBF1F101F011
:101F0000F00001F00F0100EB021008432168886027
:101F1000B0BD00BF001401402DE9F0411D469046C0
:101F20000F4604466E1C206800683840B84226D030
:101F3000002EF8D02DB1FEF7A7FEA0EB0800A842B6
:101F4000F1D9206850E8030F216820F4D07041E8EF
:101F50000302002AF5D1206850E8050F216820F01F
:101F6000010041E80502002AF5D12020002184F873
:101F70003D0084F83C1084F83E00032000E000207F
:101F8000C0B2BDE8F081FEE701A000F0D9B800BF03
:101F90000A0D000070B52DED028BFEF775FE2F4C7B
:101FA0000546FEF771FE401BC0087C2845D8204638
:101FB0004FF40071FEF75EFE0128F2D128480C2193
:101FC000FFF728FC274E20464FF4804100220025D1
:101FD000B047204646F270010022B047204640211B
:101FE0000122B047204E9FED218A0AE096ED020AB9
:101FF0000120B4EEC80AF1EE10FA29DDFEF75AFD11
:10200000013528097C28F1D9204640210022FEF71D
:1020100036FE134D0C212846FFF7A6FB20464FF451
:1020200080410122FEF72BFE4FF4FA70FEF742FDCD
:1020300028460C21FFF7EEFB09E009480C21FFF7C9
:10204000E9FB20464FF480410022FEF718FE0620EF
:10205000BDEC028BBDE87040FEF7A0BA0000024064
:10206000C00000207F0C00087000002000000C421F
:1020700080B5062807D8DFE800F004080A0C0E1027
:1020800012000AA00CE028A00AE024A008E01EA08C
:1020900006E018A004E012A002E00DA000E008A0F5
:1020A00000F04EF8BDE88040FFF76EBF53746174D6
:1020B00065202D3E205354415254555000000000DD
:1020C0005374617465202D3E204F46460000000089
:1020D0005374617465202D3E2044414E47455200A3
:1020E0005374617465202D3E20434F4F4C494E4739
:1020F000000000005374617465202D3E205741524A
:102100004E494E47000000005374617465202D3E17
:1021100020434845434B494E4700000053746174C7
:1021200065202D3E204F4B00556E657870656374B9
:102130006564204265686176696F75720000000011
:1021400010B50446FEF74EF982B2BE4821464FF064
:10215000FF330C30BDE81040FFF7FCBB2DE9F04F1A
:1021600093B0FEF79BFDFFF783FC0026AE48DFF837
:10217000C08200224FF6FF7904960896016841F06C
:1021800004010160016801F00401089108990896B2
:10219000016841F001010160016801F0010108914D
:1021A00008990896016841F0020101604FF6FF713D
:1021B000006800F00200089008989C4800F501377C
:1021C00004463846C04704F5FE3546F27001002249
:1021D00046F2700A2846C04704F500344FF2FE71FB
:1021E00000222046C047E846DFF848B2CDF800900C
:1021F0004FF0010938464146CDE901960396D8478C
:1022000028464146CDE900A9CDE90266D8474FF4FA
:10221000607002274146CDE9000628460297D8475C
:102220004FF488104146CDE9009020460297D847E8
:102230004FF2FE70CDF80490414600902046CDE963
:102240000266D847062000210022FEF793FD0620F3
:10225000FEF782FD7848794980F8189080F8206070
:10226000C0E90A16C761714F80F8306007F58E31FA
:10227000C0E90016C0E90266C0E90499CDE902662A
:10228000CDE90066FEF762FA18B1EFF3108072B67E
:10229000FEE769486946CDE900690296FEF7D8F97C
:1022A00018B1EFF3108072B6FEE702206946019084
:1022B000012000906048FEF7CBF918B1EFF31080D1
:1022C00072B6FEE75E480021132243F67F63CDE934
:1022D0000211CDE900118161C0E90073C0E9021269
:1022E0000161CDE90811FFF78BF818B1EFF3108009
:1022F00072B6FEE74FF48050694600905048FFF7F1
:10230000FDF818B1EFF3108072B6FEE74C480024D8
:1023100008A9CDE90844FFF73BF818B1EFF31080A6
:1023200072B6FEE7474D07F580410C22284640F87B
:102330000C1F4FF4E131C0E90114C0E90344C0E9C6
:102340000524C461FFF7A2FA18B1EFF3108072B64A
:10235000FEE7002408A81C21CDE91044FEF761F82F
:1023600068462021FEF75DF8374843F67F6107F5A0
:102370007C427823C0E90021C0E90243C0E904445B
:102380008461FFF7ACF918B1EFF3108072B6FEE785
:102390002D4810A9CDE91044FEF7FAFF18B1EFF36C
:1023A000108072B6FEE73C20002608A90C22099096
:1023B0006020089024480A96CDE90C660E96FFF737
:1023C00041F918B1EFF3108072B6FEE76C461421A4
:1023D0002046FEF726F84FF4005007962146059058
:1023E0001948FEF7ADFF18B1EFF3108072B6FEE7A3
:1023F0001548FFF7FFF8154C4FF0FF300021002281
:10240000A0471D2001210122A04706200121012211
:10241000A0470B48FFF73EF82878052802D1FFF7C0
:10242000B9FDF9E72878F7E73038024000040040AA
:102430007F0C0008D50A0008100100200100000FE1
:102440006001002070000020C0000020750D000811
:1024500080B5FFF7DFFA00F0BDFA9FED0B0B53ECF0
:10246000102B00F05FF99FED0A0B53EC102B00F0DE
:10247000C5FA9FED090B53EC102B00F0BFFA41ECAD
:10248000100B80BD00BF00BF0000000000FEAF4089
:10249000000000000000144000000000000059404F
:1024A0000138082884BF7E207047DFE800F0050768
:1024B000090B0D0F111315000C207047B620704743
:1024C0009E207047CC207047DA207047FA20704772
:1024D0000E207047FE207047DE2070470138082824
:1024E00084BF4FF4EE407047DFE800F005080B0EA4
:1024F0001114171A1D004FF4C06070474FF4334099
:1025000070474FF4174070474FF4464070474FF400
:10251000554070474FF4754070474FF4E060704786
:102520004FF4774070474FF457407047F8B50F4C61
:1025300005464FF6FF7100222046FEF7A0FB0A2059
:10254000B5FBF0F63046FFF7ABFF074606EB86001B
:10255000A5EB400080B2FFF7C1FF40EA070120462B
:102560000122BDE8F840FEF78ABB00BF000402402C
:1025700021F0004201F00043A2F16052B2F5801F49
:1025800028BFD2F17F6C0BD95FEA001C43EAC2027C
:1025900042EB507018BF704728BF20F00100704711
:1025A000B2F5801FBCBF184670474FEA410C1CF5BE
:1025B000001F02D2084600F07FBC70B500F0C8FAD8
:1025C00000000089FFF7F6BF4FF00040A0F5800043
:1025D0007047000010B591EA030F48BF83F0004335
:1025E00000F11283841A71EB030C05D2121943EB2C
:1025F0000C03001B61EB0C014FEA1154A4EB135CBC
:10260000DFF81CE11EEA430F18BF9EEA445F73D057
:1026100021EA045123EA0E0343F48013DCF1200E77
:1026200032D322FA0CFE10EB0E0023FA0CFE41EB23
:102630000E01CCF1200E03FA0EFE10EB0E00CCF1D1
:10264000200E51F10001B1F5801F32D201EB04518F
:1026500012FA0EF2BDE8104058BF7047401C38BF58
:102660005FEA420218BF7047002814BF20F0010043
:1026700041F100014FEA410313F5001F38BF7047D5
:10268000A1F1C04100F0B2BA012A43EB0302ACF160
:10269000200CDCF11F0E32BF4FF0000E23FA0CF3BA
:1026A00010EB030041EB0451B4EB115FD0D0A1EB70
:1026B000045101F58011490801EB04515FEA300033
:1026C0000ED350F1000038BF12FA0EFE08D1BDE85B
:1026D0001040C9E7401C38BF5FEA4202CAD1C3E7D5
:1026E000BDE810404FEA410313F5001F38BF7047A3
:1026F000A1F1C04100F07ABA9EEA445F08D011EA25
:102700005E0FBDE8104004BF01F00041002070479B
:10271000BDE8104070B500F01BFA00BF64FBBE3E80
:102720000000E0FF2DE9C04130B4DFF8A0C23CEA70
:10273000111418BF3CEA131400F0EC801CEA1114C9
:1027400081EA030544EAD57418BF1CEA131500F0AA
:10275000C780A4EB050404F17F7404F500344FF046
:10276000004545EAC12145EAC32341EA505143EA05
:1027700052534FEAC0204FEAC222994208BF90420A
:1027800000F09C804FEA13650FF24016765D4FEA29
:10279000134506FB05F7C7F1807706FB07F74FEAFD
:1027A000D737A7FB03687642A7FB06CEC8F580386B
:1027B00038BFA8F1010807FB08E6A6FB028C4FF022
:1027C000000EE6FB03CEDCF1000CCEF1004E38BF6C
:1027D000AEF1010EA6FB0C584FF00007E6FB0E878A
:1027E000A1FB08C6A0FB07CE16EB0E064FF00005B6
:1027F00045F10005E1FB076515F1E04E7EBFA4F54C
:1028000080345FEA46066D4116F1800745F1000508
:102810004FEA172747EA05674FEA15254FEA06668C
:10282000A6F1DE46B6F1805F1FD9384605EBC471CC
:1028300024F0010C01EB0C11BCF1FE6F02D8F0BCCE
:10284000BDE8008124425CBF01F5801E9EEAC47F82
:1028500002D4F0BCBDE80081244238D4A1F1C041CB
:10286000F0BCBDE8004100F0C1B94FEAD02040EA19
:1028700041504FEAD1214FEAD22242EA43524FEA75
:10288000D323A7FB028607FB036605FB02661EEA4D
:102890000E0F58BFA6EB0056B6EB00564FEA520E8D
:1028A0004EEAC37E18EB0E0E56EB530EBDD518EB59
:1028B00002085E417F1C55F10005B6E74FF4801514
:1028C0004FF000074FF000064FF00008ADE701F1B0
:1028D000C04101F000414FF00000F0BCBDE80081B4
:1028E0000CEA131511EA0C1F00D00CE013EA0C1FC0
:1028F00000F025804FF0000081EA030101F0004163
:10290000F0BCBDE80081F0BCBDE8004181EA0301F4
:1029100000F06CB9F0BCBDE8004170B500F018F9EA
:10292000097EFC3E00F007B84FF0000081EA030189
:1029300001F00041704781EA030100F057B9F0BC93
:10294000BDE8004122494FF000007047FFFDFBF950
:10295000F7F5F4F2F0EEEDEBE9E8E6E4E3E1E0DED2
:10296000DDDBDAD8D7D5D4D3D1D0CFCDCCCBCAC844
:10297000C7C6C5C4C2C1C0BFBEBDBCBBBAB9B8B76B
:10298000B6B5B4B3B2B1B0AFAEADACABAAA9A8A85E
:10299000A7A6A5A4A3A3A2A1A09F9F9E9D9C9C9B2C
:1029A0009A999998979796959594939392919190D7
:1029B0008F8F8E8E8D8C8C8B8B8A89898888878768
:1029C0008685858484838382828181800000FF07DD
:1029D0000000F87FB0FA80F310FA03F10AD0C3F1D7
:1029E0001D0303F580634FEA03524FEA415002EBA7
:1029F000D12170474FF000007047000070B5DFF83C
:102A000048C11CEA111E1EBF1CEA13159EEA0C0FDA
:102A100095EA0C0F00F06F8081EA03044EEAD47E41
:102A2000AE4421EA4C1123EA4C1341F4801143F4E3
:102A30008013AEF17F7EA1FB024CA0FB036536192B
:102A400055EB0C05A1FB034C4CF10003A0FB021C51
:102A500016EB0C06654153F10003094218BF46F01E
:102A6000010613F4007F0BD14FEA03314FEA053022
:102A700041EA155140EA165034036FF003020AE0B0
:102A80004FEAC3214FEAC52041EA555140EA56506A
:102A9000F4026FF0020202EB2E4201EB025585EACE
:102AA000CE710AD05FEA440C18BF24F0004450F104
:102AB000000041F1000120EAD47040F2FE7C624542
:102AC00000D270BDA84214BF4FF080444FF0404484
:102AD000002E08BF0024BEF1806FA8BFA1F1C04145
:102AE000BDE8704080F2828001F1C04101F00041F8
:102AF0004FF0000070470CEA13159EEA0C0F18BF48
:102B000095EA0C0F06D081EA030E4FF000000EF09C
:102B1000004170BD00F01CF88900013E00F007B8CC
:102B200000F009B84FEA430C5FEA5C5C08D081EA28
:102B3000030100F05BB84FEA410C5FEA5C5CF6D140
:102B400002494FF0000070470000FF070000F87FC7
:102B50000EF1020E2EF0030E5EF8046B364205D421
:102B6000012A43EB030515F5001F12D8012841EB9C
:102B7000010C1CF5001F0CD80ED14FEAD17C0CEBD8
:102B80004C0C0CF1020C15F5001F08BF4CEBD37C6C
:102B900004E04FF0080C01E04FEAD37C0CEB4C054D
:102BA00026FA05F606F00706B6F1040C06D20EEB7F
:102BB000860CBDE870404CF0010C6047DFE80CF07B
:102BC000090B02024FF00041A1F500214FF0000077
:102BD00070BD19461046012851EB010418BFD4F509
:102BE000001484BF002001F0004170BD0808A0F56A
:102BF00000114FEA3101704710B591EA030F48BF49
:102C000083F000433FF5EEAC841A71EB030C07D25E
:102C10008CF0004C121943EB0C03001B61EB0C0110
:102C20004FEA1154A4EB135CDFF89CE11EEA430F5A
:102C300018BF9EEA445F00F0B08021EA045123EA05
:102C40006E035242C3EB6E0338BF5B1EDCF1200EF5
:102C500025D322FA0CFE10EB0E0043FA0CFE41EBDA
:102C60000E01CCF1200E03FA0EFE10EB0E00CCF19B
:102C7000200E51F1000129D401EB045112FA0EF299
:102C8000BDE8104058BF7047401C1CBFB2F1004F58
:102C9000704700280CBF491C20F00100704712EB60
:102CA000020E43EB030218BF4FF0010E4EEA420240
:102CB000ACF1200CDCF11E0E54D943FA0CFE10EBE3
:102CC0000E00CCF11E0E51F1FF31D5D50EF1010EE3
:102CD00012FA0EFE404141EB010101EB445C5FEA58
:102CE0005C5C10D901EB045110EBDE7038BFBEF113
:102CF000004FBDE8104018BF704700280CBF491CAA
:102D000020F00100704730D24FEAD42C24F4006444
:102D100011F500111BD0B1FA81F20B3AA41AA41ECE
:102D2000D2F12003914030FA03F31943904001EBB4
:102D3000CC7101EB0451002CBDE81040A8BF7047D6
:102D400001F1C04101F000414FF000007047B0FABE
:102D500080F310FA03F100D110BDE41A173C4805C6
:102D6000C90AE4E701EB045110BD49104FEA3000F5
:102D700001EB0451BDE8104002E04FF00001704744
:102D80004A0008BF0042F8D0B2F5001F28BF7047C4
:102D900001F000414FF0000070479EEA445F07D009
:102DA00011EA5E0FBDE8104004BF0021002070470B
:102DB000BDE8104070B5FFF7CBFE00BF40DFF63E28
:102DC000104683F0004170470000E0FF43004FEAE7
:102DD000D30C4FEA3C0C43401FBF40070CF160513D
:102DE00013F0FE4F70471CF0006F03D10CF0004150
:102DF000002070470CF0004343EA507040EACC00DA
:102E000010B500F00EF800BF000000924FEA00017C
:102E1000FFF7ECBE4FF00041A1F500214FF000009C
:102E200070470EF1020E2EF0030E5EF8044B2442A2
:102E300004D44FEA4102B2F17F4F11D84FEA400368
:102E4000B3F17F4F0CD80ED14FEAD07C0CEB4C0C79
:102E50000CF1020CB2F17F4F08BF4CEBD17C04E0C7
:102E60004FF0080C01E04FEAD17C0CEB4C0324FA44
:102E700003F404F00704B4F1040C06D20EEB840C46
:102E8000BDE810404CF0010C6047DFE80CF007088B
:102E900002024FF00040A0F5800010BD084642003D
:102EA00018BFD2F1807288BF00F0004010BD4FF013
:102EB0004070E1EE100A7047FF2141EAD050C00592
:102EC0007047000000000000000001020304060734
:102ED000080900000000010203040000002F0008A0
:102EE0000000002010000000D0010008102F000892
:102EF0001000002098070000EC010008000000000E
:102F00000100000010000000000000000024F40098
:040000050800019559
:00000001FF
