:020000040800F2
:100000001807002035020008BD140008B9140008C4
:10001000BB14000867040008FD1800080000000079
:10002000000000000000000000000000CD150008E6
:100030006904000800000000BF140008CF15000884
:100040004F0200084F0200084F0200084F0200084C
:100050004F0200084F0200084F0200084F0200083C
:100060004F0200084F0200084F0200084F0200082C
:100070004F0200084F0200084F0200084F0200081C
:100080004F0200084F0200084F0200080000000065
:100090000000000000000000000000004F02000807
:1000A0004F0200084F0200084F0200084F020008EC
:1000B0004F0200084F0200084F0200084F020008DC
:1000C0004F0200084F0200084F0200084F020008CC
:1000D0004F020008F11800084F020008000000005D
:1000E0004F0200084F0200084F0200080000000005
:1000F0000000000000000000000000004F020008A7
:10010000000000004F0200084F0200084F020008E4
:1001100000000000000000000000000000000000DF
:100120004F0200084F0200084F0200084F0200086B
:100130004F02000800000000000000000000000066
:100140000000000000000000000000004F02000856
:100150004F0200084F0200084F0200084F0200083B
:100160004F0200084F0200080000000000000000DD
:10017000000000000000000000000000000000007F
:10018000000000004F020008000000000000000016
:100190004F02000800F002F800F03CF80AA090E8D6
:1001A000000C82448344AAF10107DA4501D100F032
:1001B00031F8AFF2090EBAE80F0013F0010F18BFC3
:1001C000FB1A43F001031847F4180000141900004B
:1001D000103A24BF78C878C1FAD8520724BF30C873
:1001E00030C144BF04680C60704700000023002445
:1001F00000250026103A28BF78C1FBD8520728BF37
:1002000030C148BF0B6070471FB501F045FC1FBDF2
:1002100010B510BD00F0EEF81146FFF7F5FF01F044
:10022000A7FB00F00CF903B4FFF7F2FF03BC00F0EA
:1002300013F900000948804709480047FEE7FEE738
:10024000FEE7FEE7FEE7FEE7FEE7FEE7FEE7FEE786
:1002500004480549054A064B70470000611600082E
:10026000950100081801002018070020180300203D
:100270001803002053EA020C00F069802DE9F04BCE
:100280004FF00006002B1FBFB3FA83F503FA05F405
:1002900024FA05F65E4012BF1643B2FA82F502FA5E
:1002A00005F4C5F120051EBF22FA05FC44EA0C0442
:1002B000203556EA044C4FEA144418BF641C4FF032
:1002C00000084FF00009904271EB030C39D300296C
:1002D00019BFB1FA81F701FA07F6B0FA80F700FA10
:1002E00007F6C7F120071EBF20FA07FC46EA0C06F6
:1002F0002037B6FBF4FCA7EB0507103F07F01F0BF8
:10030000CBF120062CFA06F60CFA0BFB44BFB346E1
:100310000026202FA4BF5E464FF0000B5BEA060CC0
:1003200008BF4FF0010B19EB0B0948EB0608ABFBBC
:10033000027C06FB02CC0BFB03CCC01B71EB0C0157
:10034000C1E70B46024641464846BDE8F08B13B56F
:100350004FF000004FF00001AFF30080BDE81C40FB
:10036000704710B5431C02E010F8011B71B1810702
:10037000FAD14FF0013202C88C1A8C4314EAC21130
:10038000F9D0C01A0A0603D0C01E10BDC01A10BD95
:100390000A0401D0801E10BD0902FCD0401E10BD11
:1003A0004FF0000200B5134694469646203922BF0E
:1003B000A0E80C50A0E80C50B1F12001BFF4F7AF59
:1003C000090728BFA0E80C5048BF0CC05DF804EB3B
:1003D000890028BF40F8042B08BF704748BF20F8A9
:1003E000022B11F0804F18BF00F8012B70477047A7
:1003F00070477047754600F02BF8AE460500694619
:10040000534620F00700854618B020B5FFF720FFBF
:10041000BDE820404FF000064FF000074FF0000805
:100420004FF0000BAC46ACE8C009ACE8C009ACE842
:10043000C009ACE8C00921F007018D46704710B52E
:100440000446AFF300802046BDE81040FFF7EBBE46
:10045000004870476000002001491820ABBEFEE74D
:10046000260002007047FEE7704770B50446A66D8F
:1004700000F036F9054694F83500022829D12068A5
:10048000016821F016010160416921F0800141619C
:10049000216C09B9A16C19B1016821F00801016052
:1004A000016821F00101016005E000F019F9401B2D
:1004B000052812D82068006810F0010FF5D1E06D12
:1004C0003F2101FA00F0B060012084F835000020DF
:1004D00008E080206065012004E0202060650320A2
:1004E00084F835000021C0B284F8341070BD90F853
:1004F0003510022909D1052180F8351000680168FE
:1005000021F0010101600020704780214165012038
:1005100070470000B0B5044600F0E2F80546904888
:10052000611C007818BF044400F0DAF8401BA042B8
:10053000FAD3B0BD2DE9FC4F5F4A07274FF0010900
:100540004FF0030A4FF0000B4FF0000E00269042D0
:100550005A4A08BF042702444FEAB223042B38BF8B
:100560004FEAB2270097102E08BFBDE8FC8F0C6839
:1005700009FA06F31C4200F099804D6805F0030467
:10058000671E012F15D8D0F808C00AFA0EF72CEA1A
:10059000070CCF6807FA0EF747EA0C078760C5F328
:1005A000001707FA06FC47689F4347EA0C074760B5
:1005B00001E0032C1DD0C2680AFA0EF7022C22EAD1
:1005C00007028F6807FA0EF742EA0702C26010D1ED
:1005D0003E4C0BF01C020F27974004EA56050544D9
:1005E0002C6A24EA07070C6904FA02F23A432A62E9
:1005F0004D68046805F003020AFA0EF715F4403F4F
:1006000002FA0EF224EA070742EA070202604DD01E
:1006100000222B4C0BF00C0501922B4AA4462C4CCB
:1006200017463A68A0460F24AC4042F480423A6034
:100630003A6802F48042019226F00302019F62446C
:1006400052F80870A743009C04FA05F52F4342F8BE
:100650000870DCF800204D6842EA030715F4803F7B
:1006600008BF22EA030715F4003FCCF80070DCF85D
:10067000042042EA030708BF22EA030715F4801F9B
:10068000CCF80470DCF8082042EA030708BF22EA2D
:1006900003070C4A15F4001FCCF8087014462268B2
:1006A00042EA030708BF22EA030727600BF1040BA5
:1006B0000EF1020E013656E7001002400000FEBFA8
:1006C000003C01400C3C014044380240FCFFFF7FED
:1006D00008FCFFFF002A08BF090481617047000081
:1006E0001F488068704700BF1D4801788268114428
:1006F0008160704780B50B48016841F4007101606A
:10070000016841F480610160016841F48071016019
:10071000032000F07DF80F2000F006F800F022F82A
:10072000002080BD003C024070B50D4E04464FF4E1
:100730007A713078B1FBF0F093490968B1FBF0F0C1
:1007400000F05EFC01250F2C08D838B94FF0FF30BF
:1007500021460022002500F02FF87460284670BD65
:100760004800002082B000200B4901904A6842F402
:1007700080424A604A6802F480420192019A0090E5
:10078000086840F080500860086800F080500090D1
:10079000009802B0704700BF40380240002808DBD4
:1007A00000F01F010122400902FA01F1014A42F85A
:1007B0002010704700E100E0B0B500F00F031A4DC3
:1007C000124CB0F1FF3FA3F104032B4403F10C03DF
:1007D000C8BF03192868C0F30220051DC41E80F09D
:1007E0000700072D4FF0010538BF0024042828BF5B
:1007F000042005FA00F00138084005FA04F10F3131
:10080000A0401140084300011870B0BD00E400E0B2
:1008100005494FF6FF030A681A4060F30A220348AD
:1008200010430860704700BF0CED00E00000FA05BF
:100830002DE9F04104468846002C00F08780454BA6
:10084000D3F8000400F00700404507D283F8008485
:10085000D3F8000400F00700404577D1206810F07D
:10086000020F11D0410742BF996841F4E0519960ED
:10087000010742BF996841F4604199609968A26894
:1008800021F0F00111439960C0072DD06068811EEE
:10089000022904D2196811F0007F0BD156E001281B
:1008A00004D1196811F4003F04D14FE0196811F028
:1008B000020F4BD099681D4621F003010843986050
:1008C000FFF70EFF064641F288372B4698686168AD
:1008D00000F00C00B0EB810F06D0FFF701FF801B8A
:1008E000B842F2D9032032E0D3F8000400F0070048
:1008F000404507D983F80084D3F8000400F00700CE
:10090000404523D1206810F0040F05D09968E268B3
:1009100021F4E05111439960000706D598682169D8
:1009200020F4604040EAC10098601C4600F032F8B4
:10093000A168094AC1F30311515CC840124908601B
:1009400006480068FFF7F0FE002000E00120C0B27A
:10095000BDE8F08100380240A21A00084C000020D7
:1009600009480A490A4A00680968C1F38221515CB2
:10097000C840704704480549054A00680968C1F342
:100980004231515CC8407047540000200838024092
:10099000B21A000810B5EE4C606800F00C00082890
:1009A00004D0042814BF1048104810BD22682068E5
:1009B0000E49002310F4800F02F03F0204BF42F200
:1009C0000041C0F2F4012068C0F38810A1FB0001CF
:1009D000FFF750FC21680222C1F3014102EB410103
:1009E000B0FBF1F010BD00BF0024F40040787D01A1
:1009F0002DE9F8430446002C00F05D812078D34EA9
:100A0000D34FC007B14651D0786800F00C000428DD
:100A100007D1306810F4003F48D06068002845D105
:100A200049E1786800F00C00082803D1386810F418
:100A3000800FEED16668B6F5803F09D0C846B6F59E
:100A4000A02FD8F8000015D140F48020C8F800008D
:100A50004E46306840F480303060FFF741FE054676
:100A6000306810F4003F21D1FFF73AFE401B6428A4
:100A7000F6D9BEE020F48030C8F80000D8F80000B5
:100A800020F48020C8F80000FFF72AFE002E05465B
:100A90004646E5D14E46306810F4003F06D0FFF7D9
:100AA0001FFE411B03206429F4D905E1207880074B
:100AB0002FD5786810F00C0F08D0786800F00C0083
:100AC00008280BD1386810F4800F07D1306810F077
:100AD000020F17D0E068012814D0ECE0E06800288D
:100AE00000F089809B4801210160FFF7F9FD054670
:100AF000306810F0020F05D1FFF7F2FD401B02280D
:100B0000F6D976E03068216920F0F80040EAC100AB
:100B100030602078000722D561698E4879B10121C3
:100B2000C0F8801EFFF7DCFD0546386F10F0020F9D
:100B300015D1FFF7D5FD401B0228F6D959E0002159
:100B4000C0F8801EFFF7CCFD0546386F10F0020F8D
:100B500005D0FFF7C5FD401B0228F6D949E02078F3
:100B600040077BD5F86B4FF0000810F0805F0CD188
:100B7000CDF800804FF00108F86B40F08050F8632A
:100B8000F86B00F0805000900098734E48468059F2
:100B900010F4807F12D14946885940F48070885102
:100BA000FFF79EFD05464846805910F4807F05D129
:100BB000FFF796FD401B0228F5D91AE0A668012E22
:100BC00005D0F86E052E29D140F00400F866F86EC5
:100BD00040F00100F866FFF783FD054641F28836D4
:100BE000F86E10F0020F32D1FFF77AFD401BB042D1
:100BF000F6D9032060E0574800210160FFF770FD3F
:100C000005464846006810F0020F3FF482AFFFF738
:100C100067FD411B03200229F3D94DE020F00100BC
:100C2000F866F86E20F00400F866FFF759FD0546F7
:100C3000002ED3D141F28836F86E10F0020F06D0A4
:100C4000FFF74EFD411B0320B142F5D934E0B8F166
:100C5000000F1EBFF86B20F08050F863A669002ECD
:100C600071D0786800F00C00082829D1012E22D01C
:100C70003868E16900F480028A421CD1216A00F0E0
:100C80003F028A4217D147F6C071626A0140B1EB58
:100C9000821F10D1A16A4FF6FF72C903914300F47D
:100CA0004032A1F580318A4205D1E16A00F07060DE
:100CB000B0EB016F47D00120C0B201B0BDE8F083B6
:100CC0002449002088460866FFF70AFD0546022EE3
:100CD0000BD14846006810F0007F12D0FFF700FDEE
:100CE000411B03200229F4D9E6E74846006810F0CA
:100CF000007F28D0FFF7F4FC411B03200229F4D920
:100D0000DAE704F11C064FCE0843D90340EA82100B
:100D10004FF6FF72914340EA0660A1F58031084327
:100D200038600120C8F86000FFF7DAFC0446484646
:100D3000006810F0007F06D1FFF7D2FC011B0320F2
:100D40000229F4D9B8E70020B6E700BF0038024016
:100D500004380240000047420038FEFF70B50446E8
:100D60004CB1D4F824C0BCF1000F06D000212161A1
:100D700004F1140107E0012550E06168B1F5827FBC
:100D800003D004F11C0100220A6000254FF0000E80
:100D9000A56294F8511041B9204684F8505000F0F3
:100DA0003FF8D4E909C101F4005E022284F8512021
:100DB0002268136823F040031360D4E90130D4E9BA
:100DC000031603F4827300F4044001F40061184335
:100DD000084306F002010843616901F0010108437C
:100DE000A16901F400731843E36903F03803184361
:100DF000236A03F08003184340EA0E0010600420C9
:100E000000EA11400CF0100108435060D06920F452
:100E10000060D0610120656584F85100284670BDEE
:100E200010B586B0044601A81421FFF7B9FA21686D
:100E30001448814223D10021134A00F5504000910B
:100E4000536943F480535361536903F4805300930F
:100E5000009B0091136843F001031360126802F0D5
:100E600001020092009A02220292E0220192039172
:100E7000032104910521059101A9FFF75BFB06B051
:100E800010BD00BF00300140303802402DE9F8436A
:100E900004461D4616460F4694F85000012801D11D
:100EA0000220A8E04FF0010984F85090FFF718FCE9
:100EB000804694F8510001285AD10120002F00F0FB
:100EC0009580002E00F09280032084F851000020CD
:100ED0006065E6862763A686A063A087C4E9100044
:100EE000E087A1682068B1F5004F07D1016821F0C3
:100EF00040010160016841F480410160016811F026
:100F0000400F02BF016841F0400101606268711E3C
:100F1000E368B1FA81F1B2FA82F24909B3F5006FE0
:100F20004FEA521241EA020124D131B137F8021BD3
:100F3000C1602763E08E0138E0866E1C14E02068F3
:100F4000816811F0020F07D1FFF7CAFB66B1A0EB71
:100F50000800A84208D348E0216B31F8022BC26098
:100F60002163E08E0138E086E08E0028E7D125E09D
:100F700002203BE039B139780173206B01302063E6
:100F8000E08E0138E0866E1C15E02068816811F063
:100F9000020F07D1FFF7A4FB6EB1A0EB0800A84237
:100FA00009D322E0216B09780173206B01302063A3
:100FB000E08E0138E086E08E0028E6D12046294602
:100FC000424600F07DFA08B120206065A06838B97B
:100FD000002000902068C16800918068009000980F
:100FE000606D002818BF012000E00320002184F874
:100FF000501084F85190C0B201B0BDE8F0830000F9
:10100000411E0020B0EB116F1CBF01207047044A45
:10101000F023516003490B70072190601160704705
:1010200010E000E023ED00E070477047BCB50446D7
:10103000206802680146D0F80CE051F8143F12F025
:101040000F0F64D00EF4907503F0010C5CEA0503F9
:1010500066D0D0071FBF1EF48070206C40F00100E6
:101060002064500706D5BCF1000F1EBF206C40F075
:1010700002002064900706D5BCF1000F1EBF206C53
:1010800040F004002064100708D50EF0200050EA5C
:101090000C001EBF206C40F008002064206C00286B
:1010A00000F0038102EA0E00800605D5204600F01C
:1010B0000CFB206800F114010868216C00F040006E
:1010C00001F00801084300F0CE80204600F0D6FA77
:1010D0002068416911F0400F01D174E0206850E8A8
:1010E000050F216820F0400041E80502002AF5D1F3
:1010F000A06B002867D072490165FFF7F8F9002856
:1011000000F0D380A06B016DBDE8BC40084702EA47
:101110000E01890604D52046BDE8BC4000F0D5BAD2
:1011200002EA0E01CA06226B3AD5012A38D1002103
:10113000019101680191416801910199416911F0A2
:10114000400F45D1E18DA28DE38D002B00F0AD80E5
:10115000511A89B209B9A8E0206850E8030F226843
:1011600020F4907042E80303002BF5D1206850E88A
:10117000050F226820F0010042E80503002BF5D19D
:10118000202084F83E0000202063206850E8030FF0
:10119000226820F0100042E80303002BF5D15DE047
:1011A0000A0666D594F83D1021297ED1A168B1F5D3
:1011B000805F02D12169002969D0216A4A1C22621C
:1011C000097841606AE02046BDE8BC40FFF72DBFCA
:1011D000A26B11684B6899B2002966D0B4F82CC094
:1011E000614562D2E385D169B1F5807F01D131E0FB
:1011F000206850E8030F216820F4807041E8030262
:10120000002AF5D1206850E8050F216820F0010080
:1012100041E80502002AF5D1206850E8050F216851
:1012200020F0400041E80502002AF5D1202084F892
:101230003E0000202063206850E8030F216820F062
:10124000100041E80302002AF5D1A06BFFF70DF969
:10125000B4F82CC0E08DACEB000081B22046BDE8B4
:10126000BC40FFF7E1BE2046FFF7DFFE0020206410
:10127000BCBD490619D5C16821F04001C1602020DC
:1012800084F83D002046BDE8BC4000F014B9216A56
:1012900031F8022B6FF35F2242602162E18C4FF63E
:1012A000FF7201391142E18400D0BCBDC16821F058
:1012B0008001C160C16841F04001C160BCBD00BF98
:1012C0007116000810B5044644B394F83D0028B9DF
:1012D000002084F83C00204600F022F8242084F806
:1012E0003D002068C16821F40051C160204600F033
:1012F00049FA2068016921F490410161416921F0B6
:101300002A014161C16841F40051C16000202021DF
:10131000206484F83D1084F83E1010BD012010BDFB
:1013200010B586B0044601A81421FFF739F82168EA
:10133000314881422CD10021164A00F570400091BD
:10134000536943F010035361536903F01003009392
:10135000009B0091136843F001031360126802F0D0
:1013600001020092009A022202924FF4C06201929E
:101370000391032104910721059101A9FFF7DAF8F0
:10138000252000210022FFF717FA2520FFF706FA93
:1013900006B010BD3038024010B590F83E30202B1A
:1013A00006D1012429B122B190F83C30012B02D1A1
:1013B0000224E0B210BD00240123046380F83C3015
:1013C00000F046FAF5E7000000680B49884218BFB4
:1013D0007047B0B5094DAC1C204600F045FBA8781D
:1013E000E978022228706970281D2146FFF7D4FF92
:1013F000BDE8B040704700BF001001400000002071
:101400002DE9F0470446994616460D4694F83D00EE
:10141000202806D101202DB126B194F83C000128E6
:1014200003D10220C0B2BDE8F0874FF0000A0120CE
:10143000C4F840A084F83C00212084F83D00FFF768
:101440004FF9A684E6848046A068B0F5805F06D197
:1014500027690026002F0CBF2E462F4601E02F469D
:10146000002684F83CA015E02046802142464B46E9
:1014700000F007FAC0B91FB117F8011B206805E09A
:1014800036F8021B206800276FF35F214160E08C73
:101490000138E084E08C0028E6D120464021424615
:1014A0004B4600F0EEF908B10320BBE7202084F89A
:1014B0003D000020B6E77047FEE7FEE7FEE7704715
:1014C0001CB50446404813460A4613490068B0FB61
:1014D000F1F04FF47A7110FB01F001906068B0F503
:1014E000827F0AD12046802100F018F878B1606D23
:1014F00040F02000606503200AE0019838B10198AF
:10150000013801902068806810F0800FF5D100202C
:10151000C0B202B010BD00BF00366E012DE9FC4123
:101520001E4617460D460446FFF7DAF8301AC6196C
:10153000FFF7D6F88046244801370068C0F3CB3067
:10154000704301900DE067B1FFF7CAF8A0EB080007
:10155000B04210D20198019901390028019108BFC9
:101560000646206880682840A842ECD00020C0B21F
:1015700002B0BDE8F0812068416821F0E0014160DF
:101580006168B1F5827F0AD1A168B1F5004F02D040
:10159000B1F5806F03D1016821F040010160A16ABB
:1015A000B1F5005F07D1016821F4005101600168C5
:1015B00041F400510160002084F85000012084F8BB
:1015C00051000320D3E700BF540000207047FFF70D
:1015D0008BB80000B0B592B006AC2C21201DFEF7F0
:1015E000DFFE01A81421FEF7DBFE00251A480222C7
:1015F0000095016841F080510160006800F0805062
:101600000090009800951548016862F38F310160E1
:10161000006800F4404000900098012009901020DC
:1016200006920A9020460C95FFF7E2F918B1EFF305
:10163000108072B6FEE70F20CDE90455CDE90255C2
:101640000021019001A8FFF7F3F818B1EFF3108023
:1016500072B6FEE712B0B0BD4038024000700040E4
:101660000248016841F470010160704788ED00E0B4
:10167000806B0021C185C184FFF7D7BC016851E8A8
:10168000031F026821F4907142E80313002BF5D187
:10169000016851E8051F026821F0010142E80513C5
:1016A000002BF5D1016B012909D1016851E8031F15
:1016B000026821F0100142E80313002BF5D120212C
:1016C00080F83E1000210163704790F83E102229F7
:1016D00018BF70478268B2F5805F03D1016979B1A4
:1016E000816A05E0816A0AB902690AB17F2200E0D5
:1016F000FF2203685B681A400A700122816A06E0D3
:101700000268816A52686FF35F220A8002221144E4
:101710004FF6FF728162C18D01391142C18500D03F
:1017200070470168CA6822F02002CA60CA6822F4C1
:101730008072CA604A6922F001024A61202280F860
:101740003E20026B012A18BFFFF73EBE0022026353
:1017500051E8031F026821F0100142E803130168F9
:10176000002BF5D10A6812F0100F08D081B00022CA
:1017700000920A68009249680091009901B0818D39
:10178000FFF752BCB0B5044649F20C652068016908
:10179000E26821F4405111430161D4F808C0D4E952
:1017A0000423D4F81CE0C16842EA0C02A9431A439E
:1017B00042EA0E021143C1604169A26921F44071FD
:1017C00011434161214940F48060884202D1FFF712
:1017D000D1F801E0FFF7C4F8E26919216368A0FBC2
:1017E0000101B2F5004F16D15A00DB0FFEF742FDA2
:1017F00064216FF06303B0FBF1F202FB03003223BC
:1018000003EBC000B0FBF1F14FF4F87000EA4100C7
:1018100001F0070113E09A009B0FFEF72BFD6421F6
:101820006FF06303B0FBF1F202FB0300322303EB22
:101830000010B0FBF1F101F0F00001F00F0100EB3E
:101840000210084321688860B0BD00BF0014014049
:101850000023C285036482858162222180F83C30A6
:1018600080F83E100068C16841F48071C160416930
:1018700041F001014161C16841F02001C1600020D7
:1018800070472DE9F0411D4690460F4604466E1CF8
:10189000206800683840B84226D0002EF8D02DB11C
:1018A000FEF71EFFA0EB0800A842F1D9206850E81F
:1018B000030F216820F4D07041E80302002AF5D11B
:1018C000206850E8050F216820F0010041E805027A
:1018D000002AF5D12020002184F83D0084F83C1036
:1018E00084F83E00032000E00020C0B2BDE8F08193
:1018F0000148FFF79BBB00BF04000020FEE700008B
:10190000BCB5104C8DF806108DF80700012100229F
:101910002046FEF7DFFE524D0DF1070101224FF088
:10192000FF332846FFF7B2FA0DF1060128460122DF
:101930004FF0FF33FFF7AAFA204601210122FEF7FC
:10194000C9FEBCBD0004024010B5084C0C200121AA
:10195000A0470A200F21A0470B200121A047092002
:10196000FF212246BDE81040104700BF01190008C2
:10197000F0B587B0FEF7BEFEFFF72CFE0025364817
:10198000364E0022012706950195016806F574443C
:1019900041F001010160016801F00101019101992B
:1019A0000195016841F0020101600121006800F029
:1019B0000200019001982046FEF78CFE02A9204605
:1019C000CDE90277CDE90475FEF7B4FD24484FF464
:1019D000827106F500524FF400731827C0E9002108
:1019E0000A21C0E90255C0E90455C0E90637C0E93B
:1019F0000855C0E90A51FFF7B1F918B1EFF31080AB
:101A000072B6FEE71F4C4FF4E1310C22204640F83D
:101A1000046FC0E90115C0E90355C0E90525C5619A
:101A2000FFF750FC18B1EFF3108072B6FEE7FFF736
:101A30008BFF0C48202102220160201DA11CFFF712
:101A4000ABFC207800F020F8607800F021F86520E9
:101A5000FEF760FDF5E700BF30380240001001409E
:101A6000C000002004E100E010B50446FEF779FC58
:101A700082B2044821464FF0FF330430BDE81040E5
:101A8000FFF7BEBC0000002001460120FFF738BF71
:101A900001460220FFF734BF4FF04070E1EE100A1C
:101AA0007047000000000000000001020304060768
:101AB000080900000000010203040000E01A000809
:101AC0000000002060000000D0010008401B00085A
:101AD00060000020B8060000EC01000800000000D3
:101AE0003030000000000000000000000000000096
:101AF00000000000000000000000000000000000E6
:101B000000000000000000000000000000000000D5
:101B100000000000000000000000000000000000C5
:101B200000000000000000000100000010000000A4
:101B3000000000000024F40000000000000000008D
:040000050800019559
:00000001FF
