:020000040800F2
:10000000700800206D0200086B1B0008B118000882
:10001000691B00089F0400082F1F00080000000053
:100020000000000000000000000000006F1B00083E
:10003000A1040008000000006D1B0008711B0008EF
:10004000870200088702000887020008870200086C
:100050008702000887020008A3040008870200083E
:10006000870200088702000887020008870200084C
:10007000870200088702000887020008870200083C
:1000800087020008870200088702000800000000BD
:1000900000000000000000000000000087020008CF
:1000A000870200088702000887020008870200080C
:1000B000051C0008111C00081D1C00088702000810
:1000C00087020008870200088702000887020008EC
:1000D000870200088702000887020008000000006D
:1000E000870200088702000887020008000000005D
:1000F000000000000000000000000000870200086F
:10010000000000008702000887020008870200083C
:1001100000000000000000000000000000000000DF
:10012000870200088702000887020008870200088B
:10013000870200080000000000000000000000002E
:10014000000000000000000000000000870200081E
:10015000870200088702000887020008870200085B
:10016000870200088702000800000000000000006D
:10017000000000000000000000000000000000007F
:1001800000000000870200080000000000000000DE
:100190008702000800F002F800F03EF80AA090E89C
:1001A000000C82448344AAF10107DA4501D100F032
:1001B00033F8AFF2090EBAE80F0013F0010F18BFC1
:1001C000FB1A43F00103184788240000A82400000C
:1001D000103A24BF78C878C1FAD8520724BF30C873
:1001E00030C144BF04680C60704700000023002445
:1001F00000250026103A28BF78C1FBD8520728BF37
:1002000030C148BF0B6070471FB502F00FFA00F015
:10021000DAF81FBD10B510BD00F008F91146FFF760
:10022000F3FF01F0F5FF00F026F903B4FFF7F2FF4A
:1002300003BC00F02DF900000B49D1F800C04A685A
:100240005CF8043B1068184442F8040B8C4528BF46
:10025000A1F1DC0C8A4228BFA1F1DC02C1F800C088
:100260004A6020F00040704708020020094880479B
:1002700009480047FEE7FEE7FEE7FEE7FEE7FEE788
:10028000FEE7FEE7FEE7FEE704480549054A064BA0
:1002900070470000F51B000895010008700200205F
:1002A00070080020700400207004002053EA020C43
:1002B00000F069802DE9F04B4FF00006002B1FBFC6
:1002C000B3FA83F503FA05F424FA05F65E4012BF8B
:1002D0001643B2FA82F502FA05F4C5F120051EBFF5
:1002E00022FA05FC44EA0C04203556EA044C4FEA95
:1002F000144418BF641C4FF000084FF000099042EE
:1003000071EB030C39D3002919BFB1FA81F701FA57
:1003100007F6B0FA80F700FA07F6C7F120071EBF0C
:1003200020FA07FC46EA0C062037B6FBF4FCA7EBE4
:100330000507103F07F01F0BCBF120060CFA0BFB53
:100340002CFA06F644BFB3460026202FA4BF5E4613
:100350004FF0000B5BEA060C08BF4FF0010B19EBE6
:100360000B09ABFB027C48EB0608C01B06FB02CC6A
:100370000BFB03CC71EB0C01C1E70B460246414677
:100380004846BDE8F08B13B54FF000004FF0000178
:10039000AFF30080BDE81C40704700000B4910B56A
:1003A000A1F17C020A4CC2E93712372106E000EBCA
:1003B000104342F82130074B00FB03400B1EA1F114
:1003C0000101F4DC10BD0120E8E70000A8010020D5
:1003D000E119D666CD0D01004FF0000200B51346BD
:1003E00094469646203922BFA0E80C50A0E80C5055
:1003F000B1F12001BFF4F7AF090728BFA0E80C5006
:1004000048BF0CC05DF804EB890028BF40F8042BFE
:1004100008BF704748BF20F8022B11F0804F18BF6B
:1004200000F8012B7047704770477047754600F021
:100430002BF8AE4605006946534620F00700854676
:1004400018B020B5FFF720FFBDE820404FF00006B0
:100450004FF000074FF000084FF0000B21F00701AC
:10046000AC46ACE8C009ACE8C009ACE8C009ACE8EF
:10047000C0098D46704710B50446AFF30080204692
:10048000BDE81040FFF7D1BE0048704710020020C1
:1004900001491820ABBEFEE7260002007047FEE7C8
:1004A0007047012000F050B870B54FF480512048DB
:1004B00000F046F91F4C012814D001F071FD21789D
:1004C00099B12178022905D02178032902D0217819
:1004D000012909D12A2801D06C2805D1BDE8704036
:1004E00001F052BF0020E07070BD124D1C35652830
:1004F00004D061896A18491C6181107061890829DA
:1005000005D06528F0D0BDE8704001F0EBBD01F0EA
:1005100027FDC02001F002FEE879342805D006A0AE
:1005200001F0C2FF0120207070BD05A0F8E70000B7
:10053000000802400000002048656964617269009B
:100540004164766172690000044910B50A6802428C
:1005500002D00860FFF7A8FF10BD0000143C014066
:100560002DE9F84FDFF8B8A1002201240AF1040BAD
:1005700003254FF00F090BF1040E00BF0B6804FABE
:1005800002F63340B34273D10F7907F00307012F0E
:1005900001D0022F16D187684FEA420805FA08FCFD
:1005A00027EA0C07D1F80CC00CFA08FC4CEA070C3F
:1005B000C0F808C04768B7430E79C6F300169640E6
:1005C0003E4346600E79F643B6070DD0C768560025
:1005D00005FA06FC27EA0C07D1F808C00CFA06FC5D
:1005E0004CEA070CC0F80CC00E7906F00306022E88
:1005F00010D1D60800EB8608D8F8206057074FEADC
:10060000D76C09FA0CF7BE430F6907FA0CF73743AA
:10061000C8F8207006684FEA420C05FA0CF7BE4392
:100620000F7907F0030707FA0CF7374307604E68A6
:1006300016F4403F6DD03B4E376847F48047376033
:10064000366822F0030706F480460096364E07EB24
:10065000060CDCF8086897073F0F09FA07F826EA46
:100660000806DFF8C880404503D14FF000081EE0BF
:100670004FE0DFF8BC80404502D14FF0010816E0A2
:10068000DFF8B080404502D14FF002080FE0DFF8FC
:10069000A880404502D14FF0030808E0DFF89C80B5
:1006A000404502D14FF0040801E04FF0070808FA76
:1006B00007F848EA0608CCF80888DAF800605746D8
:1006C000D1F804C09E435FEACC3C00D51E433E6097
:1006D000DBF800605F46D1F804C09E435FEA8C3CC3
:1006E00000D51E433E60DEF800607746D1F804C0B6
:1006F0009E435FEACC2C00D51E433E60084F0C376A
:100700003E68D1F804C09E435FEA8C2C00D51E439E
:100710003E60521C102AFFF431AFBDE8F88F000094
:10072000003C0140443802400030014000000240DB
:100730000004024000080240000C02400010024089
:100740000069084000D0012070470AB181617047FC
:100750000904FBE70148806870470000240000207E
:1007600002488168027811448160704724000020AB
:100770000B4810B5016841F400710160016841F453
:1007800080610160016841F480710160032000F024
:100790006FF80F2000F006F800F024F8002010BDDC
:1007A000003C024070B50D4D04464FF47A71287834
:1007B000B1FBF0F00A490968B1FBF0F000F0ECFA87
:1007C00048B9102C07D200222146501E00F030F804
:1007D00000206C6070BD012070BD0000240000206E
:1007E000300000200A4808B5016841F480410160EA
:1007F000006800F4804000900548001F016841F047
:1008000080510160006800F08050009008BD000039
:1008100044380240002809DB00F01F02012191400A
:100820004009800000F1E020C0F80011704700008E
:10083000F0B40E4B1B680C46C3F30223C3F107054B
:10084000042D00D90425191D072901D2002300E039
:10085000DB1E012606FA05F1491E214099409E4003
:10086000761E16403143F0BC01F062BB0CED00E097
:10087000064900F0070208684FF6FF03184040EAF7
:100880000220034A10430860704700000CED00E0AE
:100890000000FA052DE9F0470E46050065D0DFF8A7
:1008A0001481D8F80000F7B200F00700B04207D278
:1008B00088F80070D8F8000000F00700B04254D16A
:1008C00028683D4C810712D5400703D5206840F4C5
:1008D000E05020602878000703D5206840F460408D
:1008E00020602068A96820F0F00008432060287884
:1008F000C0072DD0304968680839012812D0022875
:1009000013D0032811D00968890700292DDA21683E
:1009100021F0030101432160FFF71CFF814641F2F2
:10092000883A0EE009688903EFE709688901ECE776
:10093000FFF710FFA0EB0901514502D90320BDE8E4
:10094000F0872068696800F00C00B0EB810FEFD1F0
:10095000D8F80010404601F00701B14207D90770EE
:10096000006800F00700B04201D00120E7E72878D6
:10097000400705D52068E96820F4E050084320606E
:100980002878000706D52068296920F4604040EAED
:10099000C100206000F018F82168084AC1F3031173
:1009A000515CC8400649086006480068FFF7FAFE37
:1009B0000020C4E7003C02400838024040260008FE
:1009C0003000002028000020154810B5006810F005
:1009D0000C02144813D01449042A0FD0082A0ED14F
:1009E0000F4C241F2268236802F03F025B0207D5E8
:1009F0002068C0F38810A0FB010106E0084610BD86
:100A00002168C1F38811A1FB00010023FFF74EFC10
:100A10002168C1F30141491C4900B0FBF1F010BD50
:100A2000083802400024F40040787D012DE9F84F99
:100A300004006ED02078DFF84C93C007A9F10405BC
:100A40004AD009F104000168C1F38101012908D0ED
:100A50000068C0F3810002280AD1D9F800004002E2
:100A600006D52868800337D560680028E1D033E0D8
:100A70006068B0F5803F10D0B0F5A02F286810D086
:100A800020F480302860286820F480202860606886
:100A9000A8B1FFF75FFE06460DE0286840F48030FD
:100AA000F4E740F480202860F7E700BFFFF752FE2C
:100AB000801B642873D828688003F7D50CE0FFF703
:100AC00049FE064605E000BFFFF744FE801B642890
:100AD000F0D828688003F7D42078DFF8AC8280074C
:100AE0004FF0000A3ED5A748001D016811F00C0F19
:100AF00008D00068C0F3810002280BD1D9F80000AB
:100B0000400207D42868800716D5E068012800D184
:100B100012E033E1E068B8B10120C8F80000FFF747
:100B200019FE064605E000BFFFF714FE801B0228F1
:100B3000C0D828688007F7D52868216920F0F80018
:100B400040EAC10028600DE0C8F800A0FFF702FEEF
:100B5000064604E0FFF7FEFD801B02281FD8286828
:100B60008007F7D42078000722D5864F874861692F
:100B7000703771B101210160FFF7ECFD064604E01A
:100B8000FFF7E8FD801B022809D838688007F7D5F1
:100B90000EE0C0F800A0FFF7DDFD064605E082E0AC
:100BA000FFF7D8FD801B02287DD838688007F7D46E
:100BB0002078400768D5DFF8CCB100270BF13C0B5B
:100BC000DBF80000C0000BD4DBF8001041F08051CE
:100BD000CBF80010DBF80000012700F080500090F7
:100BE0006B4E3068C00510D4306840F480703060BF
:100BF000FFF7B0FD009005E0FFF7ACFD0099401A4B
:100C0000022850D83068C005F6D55E4EA0686C3614
:100C100001280FD00528306810D020F00100306086
:100C2000306820F004003060A068B8B1FFF792FD92
:100C300000900FE0306840F00100F4E740F004005D
:100C40003060F7E7FFF786FD0099411A41F28830DE
:100C5000814266D830688007F4D50EE0FFF77AFD50
:100C6000009007E0FFF776FD0099411A41F28830C5
:100C7000814256D830688007F4D42FB1DBF80010D9
:100C800021F08051CBF80010A069C8B33D49091D7F
:100C90000968C1F3810102294AD00228504607D0D1
:100CA000C8F8600000E03CE0FFF754FD04463BE07C
:100CB0004746C8F86000FFF74DFD064605E000BF57
:100CC000FFF748FD801B02282BD828688001F7D445
:100CD000D4E907010843A16A2E4A490802EB014101
:100CE000626A41EA8211084394F82C1040EA0161DB
:100CF000C9F8001001203866FFF72CFD044606E015
:100D00003EE000BFFFF726FD001B022809D8286837
:100D10008001F7D534E000BFFFF71CFD001B02285F
:100D200002D90320BDE8F88F28688001F4D427E0B9
:100D30000128F7D0D9F80000E26900F4800191425F
:100D40001CD1226A00F03F01914217D147F6C071D1
:100D5000626A0140B1EB821F10D1A26A4FF0FF33EB
:100D600000F4403103EB5202B1EB024F06D194F88C
:100D70002C1000F07060B0EB016F01D00120D1E7C2
:100D80000020CFE70438024000004742800E47426F
:100D9000007000400000FFFF10B5401EB0F1807FE2
:100DA00001D3012010BD4FF0E02460610F216017D6
:100DB00001F0BEF80020A06107202061002010BDD6
:100DC0007047704770B590F83C20012A2CD0012460
:100DD00080F83C40022280F83D2003685A689D68F4
:100DE00022F070060A6832435A60104B02689A4239
:100DF0000ED0B2F1804F0BD00D4B9A4208D00D4B64
:100E00009A4205D00C4B9A4202D00C4B9A4204D124
:100E1000496825F080031943916080F83D40002126
:100E200080F83C10084670BD022070BD00000140F3
:100E30000004004000080040000C00400040014059
:100E400010B5040003D094F83D0010B107E0012074
:100E500010BD002084F83C00204600F01FF802205E
:100E600084F83D00211D206800F0DEFE012084F89A
:100E7000460084F83E0084F83F0084F8400084F87F
:100E8000410084F8420084F8430084F8440084F868
:100E9000450084F83D00002010BD000010B586B06C
:100EA000044614216846FFF797FA21680022284873
:100EB000B1F1804F14D0274A914237D1016841F0F7
:100EC000020101600068002200F002000590114656
:100ED0001D20FFF7ADFC1D20FFF79CFC06B010BDE8
:100EE000016841F001010160006800F00100059017
:100EF00017481038016841F0010101600068694637
:100F000000F0010005904FF4004000900220CDE970
:100F100002020190012004900F48FFF721FB0022FC
:100F200001211C20FFF784FC1C20D5E70B4A9142CD
:100F3000D4D1016841F0040101600068002200F092
:100F40000400059001211E20FFF772FC1E20C3E75C
:100F50004038024000040040000002400008004009
:100F600090F83D10012901D001207047022180F83E
:100F70003D100168CA6842F00102CA6000680E496B
:100F800088420ED0B0F1804F0BD00C49884208D077
:100F90000B49884205D00B49884202D00A49884251
:100FA00004D1816801F00701062903D0016841F0EE
:100FB0000101016000207047000001400004004072
:100FC00000080040000C00400040014070B504469D
:100FD00090F83C000025012817D0012684F83C60D9
:100FE000022084F83D002068826822F0770222F413
:100FF0007F4282600868502838D00DDC20284FD00E
:1010000005DC90B3102811D14AE0022070BD3028D1
:1010100046D040280AD13BE060282FD070280DD060
:10102000B0F5805F03D0B0F5005F12D0012584F8E1
:101030003D60002084F83C00284670BDCB68D1E9B3
:101040000121206800F049FE2068816841F07701A5
:1010500009E0CB68D1E90121206800F03EFE20685C
:10106000816841F480418160E1E719E0CA6849681C
:10107000206800F0E7FE5021206806E0CA68496851
:10108000206800F027FF6021206800F030FECEE7E6
:10109000CA684968206800F0D5FE40212068F4E75E
:1010A000226801461046F0E770B5264C0126A1786B
:1010B00079B12178002501290DD02178022907D1A5
:1010C0002179002929462FD000F0DCFBA061257191
:1010D00070BDA67070BD2169491C216101290DD028
:1010E00003290BD002290ED00429F3D1002100F0EE
:1010F000C9FB6169401A7D280FD20BE0002100F086
:10110000C1FB606170BD002100F0BCFB6169401A49
:101110007D28F7D26561256170BD6561022025617A
:1011200020703C20E08170BD00F0ACFBA169401A4A
:101130007D2804D9E6704FF0E020056170BD26716E
:10114000A56170BD000000202DE9F041054690F832
:101150003C0000260C46012810D0012085F83C00F8
:1011600072B1042A1CD0082A2CD00C2A50D0012697
:10117000002085F83C003046BDE8F0810220FBE706
:10118000D4E90012E368286800F06EFE28688169DF
:1011900021F00C01816128688169A26811430FE088
:1011A000D4E90012E368286800F0A6FE2868816987
:1011B00021F44061816128688169A26841EA0221C5
:1011C0008161D5E72868D4E9002C277B016A21F4E6
:1011D00080710162C169036A21F0030141EA0C01D7
:1011E00021F0F00C39074FF420674CEA116123F429
:1011F000206307EA02221A43C16102622868C169BA
:1012000021F00C01C1612868C169A268114328E07E
:101210002868D4E90027E168036A23F48053036255
:10122000D0F81CC0036A2CF4407C4CEA07274FF628
:10123000FF7C27F470470CEA013139434FF4204713
:1012400023F4204307EA02321A43C161026228688C
:10125000C16921F44061C1612868C169A26841EA9D
:101260000221C16184E710B5040003D094F83D0069
:1012700010B107E0012010BD002084F83C0020469A
:1012800000F01EF8022084F83D00211D206800F0C7
:10129000CBFC012084F8460084F83E0084F83F002F
:1012A00084F8400084F8410084F8420084F8430048
:1012B00084F8440084F8450084F83D00002010BD07
:1012C0007047000030B50446002551B104290DD007
:1012D000082910D094F8412094F84500012A11D132
:1012E0000EE094F83E2094F84200F7E794F83F208F
:1012F00094F84300F2E794F8402094F84400EDE7B6
:10130000012801D0012030BD022059B1042912D09A
:10131000082919D084F8410084F845000C293ED0F2
:1013200001253AE084F83E0084F842002068C26853
:1013300042F0020210E084F83F0084F84300206885
:10134000C26842F0040207E084F8400084F84400D8
:101350002068C26842F00802C2600122206800F0E2
:10136000AFFC1149206888420ED0B0F1804F0BD0FD
:101370000E49884208D00E49884205D00D4988425E
:1013800002D00D49884204D1816801F00701062985
:1013900003D0016841F001010160284630BD20689A
:1013A000C26842F01002D7E700000140000400408C
:1013B00000080040000C00400040014070B50446A9
:1013C000006801694FF00005C943890715D4C16859
:1013D000C943890711D4E91E0161012020772068E3
:1013E00080698007204602D0FFF75EFE04E000F02F
:1013F000C1F8204600F053F9257720680169C943F8
:10140000490717D4C168C943490713D46FF00401D1
:101410000161022020772068806910F4407F204617
:1014200002D0FFF741FE04E000F0A4F8204600F0EF
:1014300036F9257720680169C943090716D4C168C0
:10144000C943090712D46FF0080101610420207715
:101450002068C0698007204602D0FFF725FE04E01F
:1014600000F088F8204600F01AF925772068016915
:10147000C943C90617D4C168C943C90613D46FF05C
:1014800010010161082020772068C06910F4407FB6
:10149000204602D0FFF708FE04E000F06BF820467B
:1014A00000F0FDF8257720680169C943C90708D114
:1014B000C168C943C90704D1891E0161204600F0F3
:1014C0007FF920680169C943090609D4C168C94385
:1014D000090605D46FF0800101612046FFF770FC1A
:1014E00020680169C943490609D4C168C94349064E
:1014F00005D46FF040010161204600F0D8F9206862
:101500000169C94389060BD4C168C943890607D458
:101510006FF0200101612046BDE87040FFF751BC2B
:1015200070BD000010B586B0044614216846FEF771
:1015300053FF0D492068884214D10C4800210268ED
:1015400042F002020260006800F0020005900320F1
:1015500000900220CDE90201019004906946044800
:10156000FEF7FEFF06B010BD000400403038024018
:1015700000040240704770B5044690F83C00002615
:101580000D4601280FD0012084F83C006AB1042ADE
:101590001DD0082A2FD00C2A3FD00126002084F825
:1015A0003C00304670BD022070BD206800F0A8FBF2
:1015B0002068816941F0080181612068816921F01A
:1015C00004018161206881692A69114311E0206862
:1015D00000F0BEFB2068816941F4006181612068F0
:1015E000816921F480618161206881692A6941EA09
:1015F00002218161D2E7206800F0D6FB2068C16932
:1016000041F00801C1612068C16921F00401C16194
:101610002068C1692A69114311E0206800F0F0FBDD
:101620002068C16941F40061C1612068C16921F489
:101630008061C1612068C1692A6941EA0221C161F2
:10164000ACE710B5040003D094F83D0010B107E0FA
:10165000012010BD002084F83C00204600F01EF858
:10166000022084F83D00211D206800F0DDFA0120F1
:1016700084F8460084F83E0084F83F0084F8400077
:1016800084F8410084F8420084F8430084F8440060
:1016900084F8450084F83D00002010BD7047704775
:1016A00010B50446022249B104290ED0082913D0EE
:1016B00094F84100012816D0012010BD94F83E0096
:1016C0000128F9D184F83E200FE094F83F0001286A
:1016D000F2D184F83F2008E094F840000128EBD1D3
:1016E00084F8402001E084F841200122206800F0C5
:1016F000E7FA12492068884203D1426C42F4004262
:101700004264206888420ED0B0F1804F0BD00C4963
:10171000884208D00B49884205D00B49884202D044
:101720000A49884204D1816801F00701062903D0E3
:10173000016841F001010160002010BD000001407E
:101740000004004000080040000C00400040014040
:1017500030B504460D460068002200F0B1FA174B80
:1017600041F2111120688A10984209D1036A0B4294
:1017700006D1036A134203D1436C23F4004343644C
:101780002068036A0B4206D1016A114203D1016845
:1017900021F00101016001203DB1042D08D0082D88
:1017A00009D084F84100002030BD84F83E00FAE7FB
:1017B00084F83F00F7E784F84000F4E700000140B8
:1017C00070B5054600682749274C884226D1207805
:1017D000012803D0207803280DD01FE0607910B1D4
:1017E00000F0CAFB02E0214800F0A6FD607980F01D
:1017F0000100607112E0607810B1607801280DD1AD
:10180000A07910B100F0B8FB04E06078E0B118A056
:1018100000F092FDA07980F00100A07116492868BF
:1018200088421ED1207802281BD1E078002818D1E8
:1018300000F0A2FBE089401EE081E08930B1E08940
:10184000BDE8704000F052BD0CA0E1E7A08903287C
:1018500003D2BDE8704000F0C3BEBDE8704000F0A8
:10186000B1BC70BD00080040000000203400002022
:101870006C6F6F73657200000004004077696E6ED4
:10188000657200000246002041B1042909D00829F0
:101890000AD00C2901D11068006C70471068406BA9
:1018A00070471068806B70471068C06B7047704756
:1018B000FEE700002DE9F04F87B014216846FEF7DF
:1018C0008BFD39480024016841F004010160016882
:1018D00001F004010591016841F001010160016816
:1018E00001F001010591016841F002010160006809
:1018F000DFF8B8A000F0020047F6FF77059000225D
:1019000039465046FEF721FFDFF8A4B04FF4EF4808
:10191000002241465846FEF718FF4FF47C6900222A
:1019200049462448FEF711FF43F23E0002268DE8A7
:10193000510069461F48FEF713FE01254FF4881039
:10194000CDE90050694602961A48FEF709FE009755
:10195000CDE90154694650460394FEF701FE1C2070
:101960008DE8510069465846FEF7FAFDCDF8008033
:10197000CDE90154694658460394FEF7F1FDCDF8D0
:101980000090CDE9015469460A480394FEF7E8FD4A
:10199000002202210620FEF74BFF0620FEF73AFF49
:1019A00007B0BDE8F08F0000303802400000024070
:1019B000000402400008024010B58AB00024234809
:1019C000049405940694079408940994009401944F
:1019D00002944FF080410394016043F67F61C0E9B7
:1019E00001141B49C0E903148461FFF729FA08B107
:1019F00072B6FEE74FF48050049004A91348FFF735
:101A0000E5FA08B172B6FEE71048FFF72CFC08B102
:101A100072B6FEE7089408A90C480994FFF7D2F9BA
:101A200008B172B6FEE70A2000900120CDE901045A
:101A300002200390002269460448FFF785FB002836
:101A400001D072B6FEE70AB010BD000054000020BD
:101A50003F420F0010B58EB00024079408940994FB
:101A60000A940B941C2168460C94FEF7B5FC23489D
:101A70002149016043F67F61C0E901147C21C0E97E
:101A800003148461FFF7DCF908B172B6FEE74FF486
:101A90008050079007A91948FFF798FA08B172B665
:101AA000FEE71648FFF7CDFD08B172B6FEE70B94CE
:101AB0000BA912480C94FFF785F908B172B6FEE73E
:101AC000602000903C20CDE90104082269460B48C3
:101AD0000494FFF750FD08B172B6FEE70C22694688
:101AE0000648FFF748FD08B172B6FEE70348FFF766
:101AF00019FD0EB010BD0000000400409C00002045
:101B000010B586B000241748009401940294039401
:101B1000049413490594016043F67F61C0E9011400
:101B20007C21C0E903148461FFF78AF908B172B619
:101B3000FEE74FF48050009069460A48FFF746FAE6
:101B400008B172B6FEE7049404A906480594FFF7AD
:101B500039F9002801D072B6FEE706B010BD0000CA
:101B600000080040E4000020FEE7FEE770477047F1
:101B7000FEF7F6BD10B592B030216846FEF72CFC9A
:101B800014210CA8FEF728FC18480024016841F035
:101B900080510160006800F0805011901448016885
:101BA00021F4404141F4004101600068069400F4D2
:101BB00040401190022000900120039010200490DA
:101BC0006846FEF733FF08B172B6FEE70F20CDE995
:101BD0000C040E940F9400210CA81094FEF75AFEEA
:101BE000002801D072B6FEE712B010BD40380240A6
:101BF000007000400248016841F4700101607047C4
:101C000088ED00E00148FFF7D9BB00005400002038
:101C10000148FFF7D3BB00009C0000200148FFF7FC
:101C2000CDBB0000E4000020F0B502681D4B1E4C47
:101C30009F031E4D1E4E984207D0B84205D0A042C9
:101C400003D0A84201D0B04204D122F0700C4A68FF
:101C500042EA0C02984210D0B8420ED0A0420CD0FA
:101C6000A8420AD0B04208D0124CA04205D0124C73
:101C7000A04202D0114CA04203D122F44074CA68A1
:101C800022434C6922F08002224302608A68C262C9
:101C90000A688262984201D10969016301214161A8
:101CA000F0BD0000000001400004004000080040BA
:101CB000000C004000400140004401400048014049
:101CC00010B501F01F030121046A99408C4304629E
:101CD000016A9A401143016210BD10B5846842EA5E
:101CE000032224F47F440A432243826010BD8268A9
:101CF00022F070020A4342F0070181607047000041
:101D000030B5026A22F001020262026A4368846905
:101D100024F073050C682C4322F002058A682A43DC
:101D20000A4DA8420BD122F00805CA6823F440737B
:101D30002A434D6922F004021D438B692B43436003
:101D4000846149684163026230BD000000000140C7
:101D500030B5026A22F010020262026A43688469A6
:101D60000D6824F4E64444EA05248D6822F020023C
:101D700042EA05120B4DA8420ED1CD6822F0800236
:101D800042EA05124D6923F4406343EA85038D69F5
:101D900022F0400243EA850343608461496881631D
:101DA000026230BD0000014030B5026A22F4807248
:101DB0000262036A4268C46923F4007324F0730565
:101DC0000C682C438D6843EA05230C4DA8420ED1C4
:101DD000CD6823F4006343EA05234D6922F44052A1
:101DE00042EA05128D6923F4806342EA05124260DB
:101DF000C4614968C163036230BD00000000014056
:101E000030B5026A22F480520262046A4268C369F1
:101E10000D6823F4E64343EA05238D6824F4005457
:101E200044EA0534064DA84204D14D6922F48042AB
:101E300042EA85124260C36149680164046230BDB0
:101E40000000014010B5036A046A24F00104046232
:101E5000846924F0F00444EA021423F00A020A43DD
:101E60008461026210BD000070B5046A24F00104B0
:101E700004628469056A124EB0420ED0B0F1804F00
:101E80000BD0104EB04208D00F4EB04205D00F4ECE
:101E9000B04202D00E4EB04203D124F003041443EA
:101EA00001E044F001041A0724F0F00444EA12624D
:101EB00025F00A0301F00A0119438261016270BD35
:101EC000000001400004004000080040000C0040F9
:101ED0000040014010B5036A23F0100303628369D8
:101EE000046A23F4704343EA023224F0A00343EA75
:101EF00001118261016210BD30B5046A24F0100442
:101F000004628469056A24F4407444EA022222F4DB
:101F100070444FF6FF7202EA03322243A02425F0F8
:101F2000A00304EA011119438261016230BDFEE79A
:101F30000907090E002804DB00F1E02080F80014F6
:101F4000704700F00F0000F1E02080F8141D70478A
:101F500000224FF470710148FEF7F7BB0008024001
:101F600010B5802000F0DAF8BDE81040014800F01C
:101F7000E3B900008C1F000810B5C02000F0CEF8B7
:101F8000BDE8104001A000F0D7B9000020202020BB
:101F900020202020202020202020202000000000C1
:101FA00070B53A4C04212046FEF7CAFB384D012893
:101FB00018D008212046FEF7C3FB012829D01021A4
:101FC0002046FEF7BDFB01283AD0324E2021304694
:101FD000FEF7B6FB012815D1FEF7BCFB04464FF413
:101FE00096754AE004212046FEF7AAFB0128F9D0A5
:101FF000288930B1012806D0022806D003282DD127
:1020000005E0312070BD342070BD372070BD2A201E
:1020100070BD08212046FEF793FB0128F9D02889DE
:1020200030B1012806D0022806D0032816D105E0D9
:10203000322070BD352070BD382070BD302070BD9D
:1020400010212046FEF77CFB0128F9D0288938B101
:10205000012807D0022807D0032807D0212070BD0F
:10206000332070BD362070BD392070BD232070BD77
:1020700020213046FEF764FB30B1FEF76BFB001BFE
:10208000A842F5D36C2070BD652070BD00040240ED
:10209000000000200008024010B5114C022120462B
:1020A000FEF74EFB012813D004212046FEF748FB23
:1020B00001280FD008212046FEF742FB01280BD053
:1020C00010212046FEF73CFB012807D06E2010BDF2
:1020D000622010BD722010BD792010BD672010BD98
:1020E0000008024070B50C4D0446002240F2FF216A
:1020F0002846FEF72AFB44F4A06101222846FEF799
:1021000024FB002229152846FEF71FFBBDE870407E
:10211000012000F027B800000000024070B5104D0B
:1021200004460022FF212846FEF70FFB00224FF451
:1021300040712846FEF709FB44F4806101222846DD
:10214000FEF703FB002229152846FEF7FEFA042CB1
:1021500001D2022000E00120BDE8704000F002B88A
:1021600000000240002104E00222521CC82AFCDBCD
:10217000491C8142F8DB704710B50C20FFF7CEFFF9
:10218000BDE810403820FFF7C9BF0A2818D2DFE8A1
:1021900000F0170507090B0D0F11131531207047BB
:1021A0003220704733207047342070473520704705
:1021B00036207047372070473820704739207047E5
:1021C0003020704710B50D4C6078002815D00120E4
:1021D0006070FFF7BDFE0320207008210848FFF75C
:1021E0005FFA0122D1020748FEF7AFFAFFF7C4FEFB
:1021F000BDE8104004A000F09FB810BD0000002012
:102200009C000020000802404C6F6F736572000054
:102210001CB5FEF7ADFAFFF7ADFCFFF74BFBFFF780
:10222000CBFBFFF717FCFFF76BFCFFF7A5FF0022C6
:102230001146501EFEF7FCFA00212748FFF742F82E
:102240002548FEF78DFE24484830FEF789FE2248D7
:102250009030FEF785FE214CA08900F0FDF8014684
:1022600001221F48FEF771FA1E491F4ED1E90001F5
:10227000CDE90001207802281DD020896F46012574
:102280001DF81000002205FA00F081B23046FEF77A
:102290005CFA2089401C00F0030020812089012283
:1022A00017F810008540A9B23046FEF74EFAB42068
:1022B000FFF758FFDEE7012291033046FEF745FAAB
:1022C00000224FF460513046FEF73FFA0320208190
:1022D00000F090F8CEE7000054000020000000203D
:1022E00000040240382600080000024070B588B0A3
:1022F000041E08D003DA2D20FFF7F4FE6442002507
:102300006E460A200EE0FFF740FFFFF7EBFE08B035
:1023100070BD00BF94FBF0F100FB114194FBF0F4A1
:1023200071556D1C002CF5D16D1EF0D4705DFFF75A
:102330002CFFFFF7D7FEF7E710B5044603E000BF18
:10234000FFF7D0FE641C20780028F9D1BDE81040CA
:10235000C020FFF7E3BE10B5FDF76EFFC11700EB1D
:10236000917121F00301401A07D0012807D00228FB
:1023700007D0032800D1722010BD622010BD792043
:1023800010BD672010BD000070B5174C02206070B2
:102390000C211648FFF7DCF908211448FFF7D8F99B
:1023A000134D00224FF400612846FEF7CEF90022BB
:1023B00029152846FEF7C9F900252570FFF7DCFD31
:1023C000FFF7C6FD3C20E08165812561A58100F015
:1023D000EFF88020FFF7A2FEFFF73CFBBDE870405E
:1023E0000248FEF7BDBD0000000000209C00002058
:1023F000000802402DE9F0410826164C002540F661
:10240000B8372078022823D1B7FBF6F000F05AF84D
:102410006D1C032DF5DB00254FF4FA6720780228A8
:1024200016D1B7FBF6F000F04DF86D1C032DF5DB6F
:102430004FF47A7509E00027B5FBF6F000F042F89A
:102440007F1C0A2FF8DB643DADB220780228F2D061
:10245000BDE8F0810000002001464FF45E500A29DB
:1024600008D2DFE801F00705080B0E11141A171D3A
:102470004FF4407070474FF4AB4070474FF48F40BB
:1024800070474FF4C64070474FF4CD4070474FF44B
:10249000ED4070474FF4EF4070474FF46070704765
:1024A0004FF4CF40704700000021054B03E05A5421
:1024B000491C89B2401C0278002AF8D170470000FC
:1024C000340000202DE9F0411D4C074620780228F9
:1024D00033D10026FFF73FFF804600F033F8FEF7C8
:1024E00039F905460BE02078022826D1FFF7D4FD04
:1024F000404501D1012602E06E2800D026B1FEF74A
:1025000029F9401BB842EED3FEF724F9401BB8422C
:1025100002D220780228F7D0207802280DD1002E90
:102520000BD1A089401CA08100F042F8A0890328AB
:1025300003D3BDE8F041FFF745BEBDE8F0810000E0
:102540000000002010B5194C62280ED067281ED05C
:10255000722813D0792827D100224FF430712046F9
:10256000FEF7F3F80122110219E000224FF4607126
:102570002046FEF7EAF80122402110E000224FF445
:10258000E0712046FEF7E1F80122510207E0002247
:102590004FF450712046FEF7D8F8012280212046E2
:1025A000BDE81040FEF7D1B810BD000000080240A1
:1025B00010B5094C00224FF4FF412046FEF7C5F844
:1025C00006488089FFF748FF01462046BDE81040D5
:1025D0000122FEF7BAB8000000040240000000200B
:1025E00010B50D4C6078012815D000206070FFF701
:1025F000AFFC032020700C210848FFF751F801229E
:1026000091020748FEF7A1F8FFF7B6FCBDE81040BD
:1026100004A0FFF791BE10BD000000209C00002028
:102620000008024057696E6E657200004FF04070FE
:10263000E1EE100A704700000B000C000D000E00C8
:102640000000000000000000010203040607080962
:10265000702600080000002034000000D0010008AF
:10266000A4260008340000203C080000EC0100080B
:1026700000020000010000000000000000003C001B
:10268000000000000000000000000000000000004A
:102690000000000001000000100000000000000029
:0426A0000024F4001E
:040000050800019559
:00000001FF
