:1010F1003132334134353642373839432A3023448B
:1011010060DAF2EE66B6BE3EE0FEF69C6EFC3A7A1E
:1011110000EB01B500B501A500760192002F017A1F
:10112100FF5B012AFEFE00FFFEA300CCFE530092EE
:10113100C2AF53D9BF1212581212FD7F817E9F1286
:1011410012377FFF7E001212D71212EB12130D120B
:1011510012C01200031212901211E91212A83002E9
:06116100FD12005E80F5A6
:1012580075B207E4FFFE0FBF00010EEFF44E70F603
:0C126800E5B1448060FA75B16175EF06D5
:011274002257
:1012FD0075E14F75E20175E3C053F1B075A4FF229E
:10123700AD07AC06538EF45389F1438901C3E49D8E
:10124700E49CFF8F8CEDF404F58A858C54858A55D0
:011257002274
:1012D700E4F5C8538EDFC39FFDE49EF5CD8DCCF5B5
:0412E700CB8DCA22BF
:1012EB0075E80275BBF075BC2043BC0175D10AD201
:0212FB00EF22E0
:0A130D0075F88C759F03759D03228F
:1012C000759810758D96538EEC858D8B53890F43D1
:0712D0008920D28ED2992281
:0600030075D90BD2DE22CC
:10129000E4F5A8F5E6C2B9D2A943F60443E604533F
:0812A000F6F743E608D2AF2285
:0300430002084C64
:10084C00C0E0C0F0C083C082C0D075D008C2EDAF8C
:10085C00BE756E008F6FC3E56F9558F569E56E95A3
:10086C0057F568D3E5699414E56864809480500D5D
:10087C00C3E56994ECE5686480947F500F300306FF
:10088C00C2A9C203D20085548C85558AAFBE755758
:10089C00008F58200003020EA030016CD3E56F9539
:1008AC0071E5706480F8E56E6480984008856E7020
:1008BC00856F718017C3E56F955EE55D6480F8E523
:1008CC006E6480985006856E5D856F5E0563E5638A
:1008DC00C394465003020EA0756300C201E57195E6
:1008EC005EFBE570955DFA7E017F00AD0BFC120E90
:1008FC00BD8E598F5AEAA2E713FEEB13255EF55E07
:10090C00EE355DF55D020EA0C3E56F955EFFE56EFD
:10091C00955DFEAC59AD5A120EAB8E6E8F6FAF60FB
:10092C00EF3395E0FEEF25E0FFEE33FE74112FF56B
:10093C008274113EF583E493FE740193FFEE3395BC
:10094C00E0F8F9AA0EAB0FAE26AF27EE3395E0FD1B
:10095C00FC120EF38F758E748D738C72856E2485DC
:10096C006F25E5742525F525E5733524F524C3E5B8
:10097C00259529F525E5249528F524852628852710
:10098C0029F526852527AF60EF3395E0FEEF25E0AE
:10099C00FFEE33FE74152FF58274113EF583E4934C
:1009AC00FE740193FFEE3395E0F8F9AA0EAB0FAE8F
:1009BC002CAF2DEE3395E0FDFC120EF38F758E747B
:1009CC008D738C72856E2A856F2BE574252BF52B18
:1009DC00E573352AF52AC3E52B952FF52BE52A95DA
:1009EC002EF52A852C2E852D2FF52C852B2DAF60E1
:1009FC00EF3395E0FEEF25E0FFEE33FE74192FF593
:100A0C008274113EF583E493FE740193FFEE3395EB
:100A1C00E0F8F9AA0EAB0FAE32AF33EE3395E0FD32
:100A2C00FC120EF38F758E748D738C72856E3085FF
:100A3C006F31E5742531F531E5733530F530C3E5AB
:100A4C00319535F531E5309534F5308532348533D3
:100A5C0035F532853133AF60EF3395E0FEEF25E0AD
:100A6C00FFEE33FE741D2FF58274113EF583E49373
:100A7C00FE740193FFEE3395E0F8F9AA0EAB0FAEBE
:100A8C0038AF39EE3395E0FDFC120EF38F758E7492
:100A9C008D738C72856E36856F37E5742537F53717
:100AAC00E5733536F536C3E537953BF537E53695C1
:100ABC003AF53685383A85393BF538853739AF60A4
:100ACC00EF3395E0FEEF25E0FFEE33FE74212FF5BA
:100ADC008274113EF583E493FE740193FFEE33951B
:100AEC00E0F8F9AA0EAB0FAE3EAF3FEE3395E0FD4A
:100AFC00FC120EF38F758E748D738C72856E3C8523
:100B0C006F3DE574253DF53DE573353CF53CC3E59E
:100B1C003D9541F53DE53C9540F53C853E40853F96
:100B2C0041F53E853D3FAF60EF3395E0FEEF25E0AC
:100B3C00FFEE33FE74252FF58274113EF583E4939A
:100B4C00FE740193FFEE3395E0F8F9AA0EAB0FAEED
:100B5C0044AF45EE3395E0FDFC120EF38F758E74A9
:100B6C008D738C72856E42856F43E5742543F54316
:100B7C00E5733542F542C3E5439547F543E54295A8
:100B8C0046F542854446854547F544854345AF6067
:100B9C00EF3395E0FEEF25E0FFEE33FE74292FF5E1
:100BAC008274113EF583E493FE740193FFEE33954A
:100BBC00E0F8F9AA0EAB0FAE4AAF4BEE3395E0FD61
:100BCC00FC120EF38F758E748D738C72856E488546
:100BDC006F49E5742549F549E5733548F548C3E592
:100BEC0049954DF549E548954CF548854A4C854B5A
:100BFC004DF54A85494BAF60EF3395E0FEEF25E0AC
:100C0C00FFEE33FE742D2FF58274113EF583E493C1
:100C1C00FE740193FFEE3395E0F8F9AA0EAB0FAE1C
:100C2C0050AF51EE3395E0FDFC120EF38F758E74C0
:100C3C008D738C72856E4E856F4FE574254FF54F15
:100C4C00E573354EF54EC3E54F9553F54FE54E958F
:100C5C0052F54E855052855153F550854F51E562F2
:100C6C00655F6003020E9EF562D2028526278528F9
:100C7C0029C3E5266480948050057526FF80037592
:100C8C002600C3E5286480948050057528FF8003F6
:100C9C00752800852C2D852E2FC3E52C648094801F
:100CAC005005752CFF8003752C00C3E52E648094D1
:100CBC00805005752EFF8003752E008532338534E8
:100CCC0035C3E5326480948050057532FF8003751E
:100CDC003200C3E5346480948050057534FF800382
:100CEC00753400853839853A3BC3E5386480948087
:100CFC0050057538FF8003753800C3E53A6480945D
:100D0C00805005753AFF8003753A00853E3F85405B
:100D1C0041C3E53E648094805005753EFF800375A9
:100D2C003E00C3E5406480948050057540FF80030D
:100D3C00754000854445854647C3E54464809480EE
:100D4C0050057544FF8003754400C3E546648094E8
:100D5C008050057546FF8003754600854A4B854CCF
:100D6C004DC3E54A648094805005754AFF80037535
:100D7C004A00C3E54C648094805005754CFF800399
:100D8C00754C00855051855253C3E5506480948056
:100D9C0050057550FF8003755000C3E55264809474
:100DAC008050057552FF8003755200788FA6260877
:100DBC00A62708A62808A62908A62C08A62D08A64A
:100DCC002E08A62F08A63208A63308A63408A63586
:100DDC0008A63808A63908A63A08A63B08A63E0875
:100DEC00A63F08A64008A64108A64408A64508A6A2
:100DFC004608A64708A64A08A64B08A64C08A64DC6
:100E0C0008A65008A65108A65208A65375260075C8
:100E1C002700752800752900752C00752D00752E7E
:100E2C0000752F0075320075330075340075350070
:100E3C00753800753900753A00753B00753E0075C4
:100E4C003F007540007541007544007545007546BE
:100E5C0000754700754A00754B00754C00754D00C8
:100E6C00755000755100755200755300E560701A8D
:100E7C00D2A985548C85558AC200D201F55D755E68
:100E8C00FFF570F571755FC88003755FFA636001DB
:0F0E9C0080020562D0D0D082D083D0F0D0E03277
:03000B00020046AA
:05004600D203D20232DA
:03005B00021196F9
:10119600C0E0C0F0C083C082C0D075D0187F0112F5
:1011A600116753F8DF53E6DFD28CD28ED2CAD2EF64
:0B11B600D0D0D082D083D0F0D0E03247
:03004B0002000EA2
:10000E00C0E0C0D0C2DF74102522F522C3943C405C
:10001E001D74C42522F5220556E556C3943C400EA8
:10002E007556000561E56194054003756100D0D0F9
:03003E00D0E032DD
:10005E00E4F579F57AE5606401F57BC2027891E604
:10006E00FE08E6FFEE3395E0FDFCC004A905AA06E6
:10007E00AB07788FE6FE08E6FFEE3395E0FDFCD089
:10008E0000120EF3A804A905AA06AB07AF7BEF3347
:10009E0095E0FEEF25E0FFEE33FE74112FF582742E
:1000AE00113EF583E493FE740193FFEE3395E0FD6C
:1000BE00FC120EF38F6D8E6C8D6B8C6A7891E6FC54
:1000CE0008E6FD18E6FE08E6FF120EABAA06AB0721
:1000DE00788FE6FC08E6FD18E6FE08E6FF120EAB8A
:1000EE00EF2BFFEE3ACFC3956C7880F6EF956B1839
:1000FE00F67895E6FE08E6FFEE3395E0FDFCC004CB
:10010E00A905AA06AB077893E6FE08E6FFEE33953F
:10011E00E0FDFCD000120EF3A804A905AA06AB0759
:10012E00AF7BEF3395E0FEEF25E0FFEE33FE741567
:10013E002FF58274113EF583E493FE740193FFEE66
:10014E003395E0FDFC120EF38F6D8E6C8D6B8C6A09
:10015E007895E6FC08E6FD18E6FE08E6FF120EAB03
:10016E00AA06AB077893E6FC08E6FD18E6FE08E65D
:10017E00FF120EABEF2BFFEE3ACFC3956C7882F6E3
:10018E00EF956B18F67899E6FE08E6FFEE3395E0EC
:10019E00FDFCC004A905AA06AB077897E6FE08E6A3
:1001AE00FFEE3395E0FDFCD000120EF3A804A90576
:1001BE00AA06AB07AF7BEF3395E0FEEF25E0FFEE2F
:1001CE0033FE74192FF58274113EF583E493FE7499
:1001DE000193FFEE3395E0FDFC120EF38F6D8E6CE6
:1001EE008D6B8C6A7899E6FC08E6FD18E6FE08E64B
:1001FE00FF120EABAA06AB077897E6FC08E6FD18D1
:10020E00E6FE08E6FF120EABEF2BFFEE3ACFC395DC
:10021E006C7884F6EF956B18F6789DE6FE08E6FF8F
:10022E00EE3395E0FDFCC004A905AA06AB07789B4A
:10023E00E6FE08E6FFEE3395E0FDFCD000120EF36D
:10024E00A804A905AA06AB07AF7BEF3395E0FEEF36
:10025E0025E0FFEE33FE741D2FF58274113EF583FB
:10026E00E493FE740193FFEE3395E0FDFC120EF362
:10027E008F6D8E6C8D6B8C6A789DE6FC08E6FD1892
:10028E00E6FE08E6FF120EABAA06AB07789BE6FC6D
:10029E0008E6FD18E6FE08E6FF120EABEF2BFFEEAA
:1002AE003ACFC3956C7886F6EF956B18F678A1E683
:1002BE00FE08E6FFEE3395E0FDFCC004A905AA0694
:1002CE00AB07789FE6FE08E6FFEE3395E0FDFCD027
:1002DE0000120EF3A804A905AA06AB07AF7BEF33F5
:1002EE0095E0FEEF25E0FFEE33FE74212FF58274CC
:1002FE00113EF583E493FE740193FFEE3395E0FD1A
:10030E00FC120EF38F6D8E6C8D6B8C6A78A1E6FCF1
:10031E0008E6FD18E6FE08E6FF120EABAA06AB07CE
:10032E00789FE6FC08E6FD18E6FE08E6FF120EAB27
:10033E00EF2BFFEE3ACFC3956C7888F6EF956B18DE
:10034E00F678A5E6FE08E6FFEE3395E0FDFCC00468
:10035E00A905AA06AB0778A3E6FE08E6FFEE3395DD
:10036E00E0FDFCD000120EF3A804A905AA06AB0707
:10037E00AF7BEF3395E0FEEF25E0FFEE33FE742505
:10038E002FF58274113EF583E493FE740193FFEE14
:10039E003395E0FDFC120EF38F6D8E6C8D6B8C6AB7
:1003AE0078A5E6FC08E6FD18E6FE08E6FF120EABA1
:1003BE00AA06AB0778A3E6FC08E6FD18E6FE08E6FB
:1003CE00FF120EABEF2BFFEE3ACFC3956C788AF689
:1003DE00EF956B18F678A9E6FE08E6FFEE3395E08A
:1003EE00FDFCC004A905AA06AB0778A7E6FE08E641
:1003FE00FFEE3395E0FDFCD000120EF3A804A90524
:10040E00AA06AB07AF7BEF3395E0FEEF25E0FFEEDC
:10041E0033FE74292FF58274113EF583E493FE7436
:10042E000193FFEE3395E0FDFC120EF38F6D8E6C93
:10043E008D6B8C6A78A9E6FC08E6FD18E6FE08E6E8
:10044E00FF120EABAA06AB0778A7E6FC08E6FD186E
:10045E00E6FE08E6FF120EABEF2BFFEE3ACFC3958A
:10046E006C788CF6EF956B18F678ADE6FE08E6FF25
:10047E00EE3395E0FDFCC004A905AA06AB0778ABE8
:10048E00E6FE08E6FFEE3395E0FDFCD000120EF31B
:10049E00A804A905AA06AB07AF7BEF3395E0FEEFE4
:1004AE0025E0FFEE33FE742D2FF58274113EF58399
:1004BE00E493FE740193FFEE3395E0FDFC120EF310
:1004CE008F6D8E6C8D6B8C6A78ADE6FC08E6FD1830
:1004DE00E6FE08E6FF120EABAA06AB0778ABE6FC0B
:1004EE0008E6FD18E6FE08E6FF120EABEF2BFFEE58
:1004FE003ACFC3956C788EF6EF956B18F6E5606083
:10050E0003855C76855C76757700855B78852179C9
:10051E0085237AE4F55BF55CF521F523E560600350
:10052E0002074D7982E7788426FF19E71836FE78A0
:10053E0085E6FC08E6FD2FFFEE3CCF2408CF340005
:10054E00FEEF7803C333CE33CED8F9FF787FE6FAC9
:10055E0008E6FBD39FEE6480F8EA64809840074378
:10056E005C0105218003535CFEEB788426FFEA18BC
:10057E0036CF2DCF3CCF2402CF3400FEEF7803C30D
:10058E0033CE33CED8F9FF7881E6FC08E6FDD39F53
:10059E00EE6480F8EC648098400D435C0274042590
:1005AE005BF55B05218003535CFD7880E62DFF181B
:1005BE00E63CFEEF788626FFEE1836CF2402CF34C7
:1005CE0000FEEF7803C333CE33CED8F9FF7883E63F
:1005DE00FC08E6FDD39FEE6480F8EC648098400D35
:1005EE00435C047408255BF55B05218003535CFBBB
:1005FE007980E7788226FF19E71836CF2DCF3CCFCA
:10060E002402CF3400FEEF7803C333CE33CED8F9B5
:10061E00FFD37886E69FEE6480F5F018E664809549
:10062E00F0400D435C08740C255BF55B05218003DF
:10063E00535CF7798AE7788C26FF19E71836FE782F
:10064E008DE6FC08E6FD2FFFEE3CCF2401CF3400F3
:10065E00FEEF7803C333CE33CED8F9FF7887E6FAB0
:10066E0008E6FBD39FEE6480F8EA64809840074367
:10067E005C1005238003535CEFEB788C26FFEA18A1
:10068E0036CF2DCF3CCF2401CF3400FEEF7803C3FD
:10069E0033CE33CED8F9FF7889E6FC08E6FDD39F3A
:1006AE00EE6480F8EC6480984009435C20055B059D
:1006BE00238003535CDF7888E62DFF18E63CFEEFBF
:1006CE00788E26FFEE1836CF2401CF3400FEEF7859
:1006DE0003C333CE33CED8F9FF788BE6FC08E6FDA4
:1006EE00D39FEE6480F8EC648098400B435C400529
:1006FE005B055B05238003535CBF7988E7788A2608
:10070E00FF19E71836CF2DCF3CCF2401CF3400FE92
:10071E00EF7803C333CE33CED8F9FFD3788EE69F6E
:10072E00EE6480F5F018E6648095F0400D435C8031
:10073E007403255BF55B05238055535C7F805079F0
:10074E0080E7788226FF19E71836FEEF788426FFB9
:10075E00EE1836FEEF788626FFEE1836FEEF788816
:10076E0026FFEE1836FEEF788A26FFEE1836FEEFDD
:10077E00788C26FFEE1836FEEF788E26FFEE1836B2
:10078E00FED3EF947DEE648094804003755C01E5AA
:10079E005C600302084BE560700302084BE5796468
:1007AE0001600302084BE57A6401600302084BC244
:1007BE00DEAFF9AD07FCAFFAEFFEE42DFDEC3EFC2B
:1007CE00D2DE852265855667856166C4540FFF2586
:1007DE0065F565EFC454F0FEC3ED9400FFEC9EFE8C
:1007EE00E4FCFD7B64FAF9F8120EF3E4FB7A10F9DF
:1007FE00F8120F7E8F64E565C3943C401D74C425CA
:10080E0065F5650567E567C3943C400EE4F567053D
:10081E0066E56694054003E4F566E5789010F1937D
:10082E00FF121065E4F57C121275057CE57CC3940D
:0D083E006440F4E57890110193FF1211C1A0
:01084B00228A
:1011E900D203C202756001E4F563D201F562F5210B
:1011F900F523F55D755EFFF570F571755FC8D28CE5
:07120900D2CA7F010211C1EE
:1011670053EFFBEF701AFFFE0FBF00010EEFF44EB7
:1011770070F6E5B1448060FA43B20853B2FB800BC6
:0E11870043B204E5B230E4FB53B2F743EF0489
:011195002237
:1012A800C2AFC28CC28EC2CAC2EF43E620E4FF12AC
:0812B8001167D2AF4387012248
:0211C1008F7D20
:1011C300757E01C287E57D557E6004D2858002C2AB
:1011D30085121275D287121275E57E25E0F57E70B1
:0511E300E2D285D28775
:0111E80022E4
:101065001212107F20121210E5662430FF121210A2
:101075007F3A121210E56775F00A84F57D2430FF7A
:10108500121210E57D75F00AA4FFC3E5679FF57D93
:101095002430FF1212107F3A121210E56575F00A1E
:1010A50084F57D2430FF121210E57D75F00AA4FF4A
:1010B500C3E5659FF57D2430FF1212107F2E1212B5
:1010C50010E56475F00A84F57D2430FF121210E5F1
:1010D5007D75F00AA4FFC3E5649FF57D2430FF12FA
:0C10E50012107F201212107F2002121047
:10127500C28CE4F58AF58CD28CE58CC3940240F9D6
:0B128500C28C85558A85548CD28C22C7
:0300000002004EAD
:0C004E00787FE4F6D8FD7581AE02113118
:100EAB00EF8DF0A4A8F0CF8CF0A428CE8DF0A42E5B
:020EBB00FE2215
:100EBD00C2D5EC30E709B2D5E4C39DFDE49CFCEE50
:100ECD0030E715B2D5E4C39FFFE49EFE121010C3A8
:100EDD00E49DFDE49CFC800312101030D507C3E4A3
:060EED009FFFE49EFE22BF
:100EF300E88FF0A4CC8BF0A42CFCE98EF0A42CFC9E
:100F03008AF0EDA42CFCEA8EF0A4CDA8F08BF0A41B
:100F13002DCC3825F0FDE98FF0A42CCD35F0FCEB7A
:100F23008EF0A4FEA9F0EB8FF0A4CFC5F02ECD393F
:0F0F3300FEE43CFCEAA42DCE35F0FDE43CFC22AC
:100F420075F008758200EF2FFFEE33FECD33CDCC66
:100F520033CCC58233C5829BED9AEC99E5829840E9
:100F62000CF582EE9BFEED9AFDEC99FC0FD5F0D6C6
:100F7200E4CEFBE4CDFAE4CCF9A88222B800C1B9F0
:100F82000059BA002DEC8BF084CFCECDFCE5F0CB2E
:100F9200F97818EF2FFFEE33FEED33FDEC33FCEB67
:100FA20033FB10D703994004EB99FB0FD8E5E4F922
:100FB200FA227818EF2FFFEE33FEED33FDEC33FC0F
:100FC200C933C910D7059BE99A4007EC9BFCE99A03
:100FD200F90FD8E0E4C9FAE4CCFB2275F010EF2F48
:100FE200FFEE33FEED33FDCC33CCC833C810D70748
:100FF2009BEC9AE899400AED9BFDEC9AFCE899F883
:0E1002000FD5F0DAE4CDFBE4CCFAE4C8F92215
:10121000EFB40A07740D12121B740A309811A899C2
:10122000B8130CC2983098FDA899C298B811F6303E
:0712300099FDC299F5992216
:10101000BC000BBE0029EF8DF084FFADF022E4CCC4
:10102000F875F008EF2FFFEE33FEEC33FCEE9DEC8D
:10103000984005FCEE9DFE0FD5F0E9E4CEFD22EDD3
:10104000F8F5F0EE8420D21CFEADF075F008EF2F1D
:10105000FFED33FD4007985006D5F0F222C398FD0E
:051060000FD5F0EA22AB
:00000001FF
