:020000040800F2
:1000000068060020350200083D0200083F02000893
:1000100041020008430200084502000800000000F9
:10002000000000000000000000000000470200087F
:1000300049020008000000004B0200084D020008C1
:100040004F0200084F0200084F0200084F0200084C
:100050004F0200084F0200084F0200084F0200083C
:100060004F0200084F0200084F0200084F0200082C
:100070004F0200084F0200084F0200084F0200081C
:100080004F0200084F0200084F0200080000000065
:100090000000000000000000000000004F02000807
:1000A0004F0200084F0200084F0200084F020008EC
:1000B0004F0200084F0200084F0200084F020008DC
:1000C0004F0200084F0200084F0200084F020008CC
:1000D0004F0200084F0200084F0200080000000015
:1000E0004F0200084F0200084F0200080000000005
:1000F0000000000000000000000000004F020008A7
:10010000000000004F0200084F0200084F020008E4
:1001100000000000000000000000000000000000DF
:100120004F0200084F0200084F0200084F0200086B
:100130004F02000800000000000000000000000066
:100140000000000000000000000000004F02000856
:100150004F0200084F0200084F0200084F0200083B
:100160004F0200084F0200080000000000000000DD
:10017000000000000000000000000000000000007F
:10018000000000004F020008000000000000000016
:100190004F02000800F002F800F03CF80AA090E8D6
:1001A000000C82448344AAF10107DA4501D100F032
:1001B00031F8AFF2090EBAE80F0013F0010F18BFC3
:1001C000FB1A43F001031847E80800000809000083
:1001D000103A24BF78C878C1FAD8520724BF30C873
:1001E00030C144BF04680C60704700000023002445
:1001F00000250026103A28BF78C1FBD8520728BF37
:1002000030C148BF0B6070471FB500F047FC1FBDF1
:1002100010B510BD00F031F81146FFF7F5FF00F002
:10022000C5F800F04FF803B4FFF7F2FF03BC00F08D
:1002300057F800000948804709480047FEE7FEE7F5
:10024000FEE7FEE7FEE7FEE7FEE7FEE7FEE7FEE786
:1002500004480549054A064B70470000F1020008B2
:100260009501000868000020680600206802002050
:1002700068020020704770477047754600F02CF800
:10028000AE4605006946534620F00700854618B083
:1002900020B5FFF7DDFFBDE820404FF000064FF02E
:1002A00000074FF000084FF0000B21F00701AC46AB
:1002B000ACE8C009ACE8C009ACE8C009ACE8C009CA
:1002C0008D46704710B50446AFF300802046BDE868
:1002D0001040FFF7A8BF000000487047040000204E
:1002E00001491820ABBEFEE726000200704700005F
:1002F0000348006840F4700001490860704700003E
:1003000088ED00E0002106E0002100E0491CB1F585
:100310007A7FFBD3401E0028F6D170471048006852
:1003200040F001000E4908600E48006840F00C00E3
:100330000C4908600A481430006840F4807008498D
:1003400014310860002008498860012048630020BB
:10035000C8620846806840F001008860704700006D
:1003600030380240000002400020014001460A29C6
:100370001AD2DFE801F00507090B0D0F111315174D
:10038000302070473120FCE73220FAE73320F8E7CD
:100390003420F6E73520F4E73620F2E73720F0E79F
:1003A0003820EEE73920ECE73020EAE7FFF7B6FF28
:1003B0004FF4E13000F08EF84FF4FA60FFF7A2FF3F
:1003C00009E04FF4FA60FFF79DFF00F039F884B2BE
:1003D000204600F001F8F4E770B588B002463AB95B
:1003E0001046FFF7C3FF064600F0AEF808B070BD38
:1003F000002A03DA2D2000F0A7F8524200230BE078
:100400000A2092FBF0F100FB1125E8B20DF8030081
:100410005B1C0A2092FBF0F2002AF1D15C1E07E07F
:100420001DF80400FFF7A2FF064600F08DF8641ED9
:10043000002CF5DA0D2000F087F800BFD6E70000A9
:1004400010B52DED0A8B36E01B48806840F08040E7
:100450001949886000BF1848006800F002000028B1
:10046000F9D01549C86C00F007FA41EC1C0B9FED60
:10047000130B53EC102B00F0A7F841EC1B0B9FED76
:10048000110B53EC102B00F00BFA41EC1A0B9FED03
:100490000F0B53EC102B00F003FA41EC190B00F09A
:1004A00061F808EE100ABCEEC80A10EE100A80B21D
:1004B000BDEC0A8B10BDC7E7002001400000000022
:1004C00000FEAF40000000000000144000000000EB
:1004D000000059401849096841F00101164A1160AD
:1004E00015491031096841F40031134A1032116086
:1004F0001249096841F02001104A116011468968CB
:1005000041F0200191601146096A41F4E0611162F5
:100510000B49096841F40051094A11600949096809
:10052000B1FBF0F1121F1160111D096841F00801C3
:10053000121D116070470000303802400000024078
:100540000C440040000000200549086000BF044939
:10055000091F096801F040010029F8D07047000028
:100560000444004021F00042A2F16052B2F5801F25
:1005700001F0004328BFD2F17F6C0BD95FEA001C69
:1005800043EAC20242EB507018BF704728BF20F008
:1005900001007047B2F5801FBCBF184670474FEA94
:1005A000410C1CF5001F02D2084600F07CBA70B561
:1005B00000F020FA00000089FFF7F6BF4FF000407E
:1005C000A0F58000704700002DE9C04130B4DFF88D
:1005D000A0C23CEA111418BF3CEA131400F0EC80EE
:1005E00081EA03051CEA111444EAD57418BF1CEA19
:1005F000131500F0C780A4EB05044FF0004545EA51
:10060000C12145EAC32341EA505143EA525304F160
:100610007F74994204F500344FEAC0204FEAC222A9
:1006200008BF904200F09C804FEA13650FF240161D
:10063000765D4FEA134506FB05F7C7F1807706FBA9
:1006400007F74FEAD737A7FB03687642C8F580382B
:10065000A7FB06CE38BFA8F1010807FB08E64FF05C
:10066000000EA6FB028CE6FB03CEDCF1000CCEF103
:10067000004E38BFAEF1010EA6FB0C584FF000073C
:100680004FF00005E6FB0E87A1FB08C6A0FB07CED6
:1006900016EB0E0645F10005E1FB076515F1E04E8E
:1006A0007EBFA4F580345FEA46066D4116F18007EF
:1006B00045F100054FEA17274FEA066647EA056746
:1006C000A6F1DE46B6F1805F4FEA15251FD9384600
:1006D00024F0010C05EBC471BCF1FE6F01EB0C11B1
:1006E00002D8F0BCBDE8008124425CBF01F5801E49
:1006F0009EEAC47F02D4F0BCBDE80081244238D415
:10070000F0BCA1F1C041BDE8004100F0C1B94FEA21
:10071000D22242EA43524FEAD323A7FB02864FEA92
:10072000D02040EA415007FB03661EEA0E0F4FEA55
:10073000D12105FB026658BFA6EB0056B6EB00566A
:100740004FEA520E4EEAC37E18EB0E0E56EB530ED6
:10075000BDD518EB02085E417F1C55F10005B6E7D8
:100760004FF480154FF000074FF000064FF00008DF
:10077000ADE7F0BC4FF0000001F1C04101F00041D5
:10078000BDE8008111EA0C1F0CEA131500D00CE043
:1007900013EA0C1F00F025804FF00000F0BC81EA46
:1007A000030101F00041BDE80081F0BCBDE800415B
:1007B00081EA030100F06CB9F0BCBDE8004170B5FE
:1007C00000F018F9097EFC3E00F007B881EA030149
:1007D0004FF0000001F00041704781EA030100F092
:1007E00057B9F0BCBDE800414FF000002149704707
:1007F000FFFDFBF9F7F5F4F2F0EEEDEBE9E8E6E4E6
:10080000E3E1E0DEDDDBDAD8D7D5D4D3D1D0CFCD6C
:10081000CCCBCAC8C7C6C5C4C2C1C0BFBEBDBCBBA5
:10082000BAB9B8B7B6B5B4B3B2B1B0AFAEADACABA0
:10083000AAA9A8A8A7A6A5A4A3A3A2A1A09F9F9E7A
:100840009D9C9C9B9A99999897979695959493932C
:10085000929191908F8F8E8E8D8C8C8B8B8A8989C3
:100860008888878786858584848383828281818046
:100870000000FF070000F87FB0FA80F310FA03F1E0
:100880000AD0C3F11D0303F580634FEA41504FEADC
:10089000035202EBD12170474FF000007047000077
:1008A000DFF848C170B51CEA111E1EBF1CEA131503
:1008B0009EEA0C0F95EA0C0F00F06F8081EA0304AA
:1008C00023EA4C134EEAD47E21EA4C1141F4801104
:1008D00043F48013AE44A1FB024CA0FB0365AEF1D0
:1008E0007F7E361955EB0C05A1FB034C4CF1000340
:1008F000A0FB021C16EB0C06654153F100030942F4
:1009000018BF46F0010613F4007F0BD14FEA033104
:100910004FEA0530340341EA155140EA16506FF0B2
:1009200003020AE04FEAC3214FEAC520F40241EA7C
:10093000555140EA56506FF0020202EB2E4201EB95
:10094000025585EACE710AD05FEA440C18BF24F044
:10095000004450F1000041F1000120EAD47040F25F
:10096000FE7C624500D270BDA84214BF4FF08044A7
:100970004FF04044002E08BF0024BEF1806FA8BF96
:10098000A1F1C041BDE8704080F282804FF00000CC
:1009900001F1C04101F0004170479EEA0C0F0CEAE2
:1009A000131518BF95EA0C0F06D04FF0000081EA2E
:1009B000030E0EF0004170BD00F01CF88900013EEE
:1009C00000F007B800F009B84FEA430C5FEA5C5C3E
:1009D00008D081EA030100F05BB84FEA410C5FEAFE
:1009E0005C5CF6D14FF00000014970470000FF0742
:1009F0000000F87F0EF1020E2EF0030E5EF8046B7D
:100A0000364205D4012A43EB030515F5001F12D821
:100A1000012841EB010C1CF5001F0CD80ED14FEA48
:100A2000D17C15F5001F0CEB4C0C0CF1020C08BF2F
:100A30004CEBD37C04E04FF0080C01E04FEAD37C90
:100A40000CEB4C0526FA05F606F00706B6F1040C89
:100A500006D20EEB860CBDE870404CF0010C6047EE
:100A6000DFE80CF0090B02024FF000414FF00000EC
:100A7000A1F5002170BD19461046012851EB010473
:100A800018BFD4F5001484BF002001F0004170BDF0
:100A90000808A0F500114FEA310170474FF040708F
:100AA000E1EE100A7047FF2141EAD050C0057047BF
:100AB000D00A00080000002004000000D001000857
:100AC000D40A00080400002064060000EC010008BD
:040AD0000024F4000A
:040000050800019559
:00000001FF
