:020000040800F2
:10000000580700203D0200084F1800084B18000850
:100010004D18000875060008571C00080000000075
:10002000000000000000000000000000531800085D
:100030007706000800000000511800085518000855
:10004000570200085702000857020008570200082C
:10005000570200085702000857020008570200081C
:10006000570200085702000857020008570200080C
:1000700057020008570200085702000857020008FC
:100080005702000857020008690600080000000037
:1000900000000000000000000000000057020008FF
:1000A00057020008570200085702000857020008CC
:1000B00057020008570200085702000857020008BC
:1000C00057020008570200085702000857020008AC
:1000D00057020008570200085702000800000000FD
:1000E00057020008570200085702000800000000ED
:1000F000000000000000000000000000570200089F
:1001000000000000570200085702000857020008CC
:1001100000000000000000000000000000000000DF
:10012000570200085702000857020008570200084B
:10013000570200080000000000000000000000005E
:10014000000000000000000000000000570200084E
:10015000570200085702000857020008570200081B
:1001600057020008570200080000000000000000CD
:10017000000000000000000000000000000000007F
:10018000000000005702000800000000000000000E
:100190005702000800F002F800F041F80AA090E8C9
:1001A000000C82448344AAF10107DA4501D100F032
:1001B00036F8AFF2090EBAE80F0013F0010F18BFBE
:1001C000FB1A43F001031847501C0000701C00008C
:1001D000103A24BF78C878C1FAD8520724BF30C873
:1001E00030C144BF04680C60704700000023002445
:1001F00000250026103A28BF78C1FBD8520728BF37
:1002000030C148BF0B607047752900F0F7800020AF
:1002100070471FB501F0EEFD1FBD10B510BD00F019
:10022000E8F91146FFF7F5FF01F016FD00F006FAB8
:1002300003B4FFF7F2FF03BC00F00EFA0948804751
:1002400009480047FEE7FEE7FEE7FEE7FEE7FEE7B8
:10025000FEE7FEE7FEE7FEE704480549054A064BD0
:1002600070470000E51800089501000858010020BB
:1002700058070020580300205803002053EA020CBE
:1002800000F069802DE9F04B4FF00006002B1FBFF6
:10029000B3FA83F503FA05F424FA05F65E4012BFBB
:1002A0001643B2FA82F502FA05F4C5F120051EBF25
:1002B00022FA05FC44EA0C04203556EA044C4FEAC5
:1002C000144418BF641C4FF000084FF0000990421E
:1002D00071EB030C39D3002919BFB1FA81F701FA88
:1002E00007F6B0FA80F700FA07F6C7F120071EBF3D
:1002F00020FA07FC46EA0C062037B6FBF4FCA7EB15
:100300000507103F07F01F0BCBF120062CFA06F66D
:100310000CFA0BFB44BFB3460026202FA4BF5E4659
:100320004FF0000B5BEA060C08BF4FF0010B19EB16
:100330000B0948EB0608ABFB027C06FB02CC0BFB6F
:1003400003CCC01B71EB0C01C1E70B4602464146D2
:100350004846BDE8F08B13B54FF000004FF00001A8
:10036000AFF30080BDE81C40704700000FB41CB51F
:10037000074B06AA7B4469460090059800F021F9D6
:100380000020694600F030F91CBC5DF814FB000049
:10039000710200002DE9F0410E4604460020206263
:1003A0002046E168884730B3252805D0D4E90121EB
:1003B0009047206A401CF2E7E16820460027884702
:1003C000050018D0A5F14100192802D820354FF4B6
:1003D00000673246294620462760FFF715FF40B1E7
:1003E000012804D0F61D26F007060836D8E7361D8A
:1003F000D6E72846DAE7206ABDE8F0812DE9F0412A
:100400000646002410687529314616A510D0AFF3B2
:100410000080002802DA404213A507E031688A070D
:1004200001D512A502E0490704D511A5012401E078
:10043000AFF3008000210A2206F1240709E0B0FB97
:10044000F2FCB0FBF2F302FB1C003030785418468B
:10045000491C0028F3D123462A463046BDE8F04126
:1004600000F051B8000000002D0000002B0000003B
:100470002000000010B5431C02E010F8011B71B110
:100480008107FAD14FF0013202C88C1A8C4314EA6A
:10049000C211F9D0C01A0A0603D0C01E10BDC01A7E
:1004A00010BD0A0401D0801E10BD0902FCD0401E00
:1004B00010BD4FF0000200B5134694469646203911
:1004C00022BFA0E80C50A0E80C50B1F12001BFF40D
:1004D000F7AF090728BFA0E80C5048BF0CC05DF873
:1004E00004EB890028BF40F8042B08BF704748BFC1
:1004F00020F8022B11F0804F18BF00F8012B704735
:100500007047704770472DE9F0470D46994692466F
:10051000044600F124080168880604D5E06921F04A
:100520001001216000E00120A84201DD471B00E02E
:100530000027A1697A1902EB0900081AA061207846
:10054000C00602D42046AFF30080002608E0D4E9BC
:1005500001211AF806009047206A401C761C206290
:100560004E45F4DB2078C0060AD52046AFF3008064
:1005700006E0D4E9012130209047206A401C206227
:10058000381EA7F10107F4DC07E0D4E9012118F8CF
:1005900005009047206A401C2062281EA5F1010535
:1005A000F3DC2046AFF300802078000602D502205D
:1005B000BDE8F0870120FBE701694A1C0261087869
:1005C000704700B58FB0CDE9013100210591054993
:1005D0007944CDE9031011466846FFF7DBFE0FB002
:1005E00000BD0000E5FFFFFF0A6802F8010B0A608A
:1005F0007047754600F02CF8AE4605006946534634
:1006000020F00700854618B020B5FFF725FEBDE8AD
:1006100020404FF000064FF000074FF000084FF069
:10062000000BAC46ACE8C009ACE8C009ACE8C009B6
:10063000ACE8C00921F007018D46704710B50446AB
:10064000AFF300802046BDE81040FFF7F1BD000089
:10065000004870471000002001491820ABBEFEE79B
:100660002600020070470000014800F099B800BF62
:10067000C0000020FEE770477047000018B5002258
:10068000009290F83C20012A01D102216DE0012264
:1006900080F83C200A6893B20A2A4FEA430313FA0F
:1006A00082FE06D3D0F800C0AEF11E0E0CF10C0293
:1006B00003E0D0F800C00CF110020723146803FA1D
:1006C0000EF324EA030313608B68146803FA0EF335
:1006D000234313604A68062A06D802EB82020CF113
:1006E0003403A2F1050E0BE002EB820E0C2A87BF49
:1006F0000CF12C03AEF1410E0CF13003AEF1230EE0
:100700001F241A6804FA0EF4A2431A600A881C68AF
:1007100002FA0EF222431A60C34AA2F541739C45C5
:1007200020D10968122904D1116841F480011160B7
:1007300018E021F00103102B14D11368102943F4A1
:10074000000313600ED10A490A4A0968B1FBF2F1AD
:1007500001EB8101490001E0009901390091009904
:100760000029F9D1002180F83C10C8B201B010BDB9
:100770000C00002040420F0080B5064800F00DF844
:100780003221484340F6FF71B0FBF1F0BDE88040F4
:1007900001F012BBC000002070470068C06C7047B9
:1007A000B0B5044620680268416812F0020F18BF15
:1007B00011F020012CD0216C11F0100F02BF216C20
:1007C00041F400712164816811F0405F19D1217EEC
:1007D000B9B9C16A11F4700F03D0816811F4806F48
:1007E0000FD1416821F020014160206C20F480701D
:1007F0002064206C10F4805F02BF206C40F0010088
:1008000020642046FFF7B8FF20686FF012010160F6
:100810000268416812F0040F18BF11F0800112D075
:10082000216C11F0100F02BF216C41F400512164C2
:10083000816811F4401F37D02046FFF71DFF206864
:100840006FF00C0101600368014651F8042F13F0AA
:10085000010F18BF12F0400208D10268096812F0B7
:10086000200F18BF11F0806111D1B0BD026812F0E5
:10087000010FF2D0206C40F480302064204600F05C
:10088000DBF820686FF00102014604C1E5E7616C06
:100890006FF0200541F00201616405602046FFF71A
:1008A0007BFF20680560B0BD816B11F4401F03D051
:1008B000816811F4806FBFD1416811F4806FBBD1A2
:1008C000816811F0405FB7D1217E0029B4D1416821
:1008D00021F080014160206C20F480502064206C65
:1008E00010F4807F02BF206C40F001002064A3E779
:1008F00010B50446002C42D0206C30B9204600F0E0
:100900009DF8002084F83C006064206C10F0100F0B
:1009100037D1206C41F20211444B884340F0020071
:1009200020644148016821F4403101606168026837
:10093000114301602068416821F4807141602169A0
:10094000426842EA01214160416821F04071416002
:10095000A168426811434160816821F400618160AF
:10096000E168826811438160A16A826822F0706246
:1009700099428260826806D122F040510CE0012049
:1009800010BD01204CE011438160816821F040518D
:100990008160E16A826811438160816821F002010F
:1009A0008160217E826842EA4101816094F82020C2
:1009B00041686AB141F400611D4A4160416821F417
:1009C00060414160616A02EB41314268114301E0DC
:1009D00021F400614160174AC16A21F47001C162CB
:1009E000E16902EB0151C26A1143C162816821F4DD
:1009F0000071816094F83010826842EA4121816080
:100A0000816821F4806181606169826842EA8121A4
:100A10000122816000206064216C62F30101216485
:100A2000002184F83C1010BD042301400100000F98
:100A300000E0FFFF0000F0FF7047000010B586B037
:100A4000044601A81421FFF734FD21684D48814276
:100A500027D10021144A00F560400091536943F406
:100A600080735361536903F480730093009B00917A
:100A7000136843F001031360126802F00102009250
:100A8000009A0322029202220192039101A900F02E
:100A90007BF812200021002200F0B4F9122000F0AF
:100AA000A3F906B010BD00BF3038024081B000216C
:100AB000009190F83C10012901D102205AE0012157
:100AC00080F83C1001688A6812F0010F11D18A6821
:100AD0002A4B42F001028A60B44A1268B2FBF3F278
:100AE00002EB420201E0009A013A0092009A002AC9
:100AF000F9D18B68026C13F0010F07D142F010019D
:100B00000164416C41F00101416432E040F2017343
:100B10009A4342F4807202644A6812F4806F04D0EF
:100B2000026C012363F30D320264036C002213F4A0
:100B3000805F4FF000031CBF436C23F0060380F876
:100B40003C200F4A43646FF022000860486810435D
:100B500048600C48D0F8042312F01F0F01D08142E6
:100B600007D1886810F0405F03D1886840F080406A
:100B700088600020C0B201B0704700BF40420F0043
:100B800020000004002001402DE9FC4F5F4A0727A8
:100B90004FF001094FF0030A4FF0000B4FF0000E29
:100BA000002690425A4A08BF042702444FEAB22363
:100BB000042B38BF4FEAB2270097102E08BFBDE8BC
:100BC000FC8F0C6809FA06F31C4200F099804D680E
:100BD00005F00304671E012F15D8D0F808C00AFAE3
:100BE0000EF72CEA070CCF6807FA0EF747EA0C0756
:100BF0008760C5F3001707FA06FC47689F4347EA7A
:100C00000C07476001E0032C1DD0C2680AFA0EF7FA
:100C1000022C22EA07028F6807FA0EF742EA07025F
:100C2000C26010D13E4C0BF01C020F27974004EA23
:100C3000560505442C6A24EA07070C6904FA02F2F7
:100C40003A432A624D68046805F003020AFA0EF777
:100C500015F4403F02FA0EF224EA070742EA0702BF
:100C600002604DD000222B4C0BF00C0501922B4A58
:100C7000A4462C4C17463A68A0460F24AC4042F4D8
:100C800080423A603A6802F48042019226F0030200
:100C9000019F624452F80870A743009C04FA05F5CE
:100CA0002F4342F80870DCF800204D6842EA030741
:100CB00015F4803F08BF22EA030715F4003FCCF883
:100CC0000070DCF8042042EA030708BF22EA0307A9
:100CD00015F4801FCCF80470DCF8082042EA030702
:100CE00008BF22EA03070C4A15F4001FCCF808706D
:100CF0001446226842EA030708BF22EA0307276076
:100D00000BF1040B0EF1020E013656E70010024003
:100D10000000FEBF003C01400C3C01404438024052
:100D2000FCFFFF7F08FCFFFF1F488068704700BF83
:100D30001D480178826811448160704780B50B4876
:100D4000016841F400710160016841F48061016053
:100D5000016841F480710160032000F07FF80F20EA
:100D600000F006F800F024F8002080BD003C0240AE
:100D700070B50D4E04464FF47A713078B1FBF0F047
:100D800094490968B1FBF0F000F00EFB01250F2C2F
:100D900008D838B94FF0FF3021460022002500F076
:100DA00031F87460284670BD000000200C0000205F
:100DB00082B000200B4901904A6842F480424A60A8
:100DC0004A6802F480420192019A0090086840F05B
:100DD00080500860086800F080500090009802B0D1
:100DE000704700BF40380240002808DB00F01F01B8
:100DF0000122400902FA01F1014A42F8201070472D
:100E000000E100E0B0B500F00F031A4D124CB0F154
:100E1000FF3FA3F104032B4403F10C03C8BF0319E4
:100E20002868C0F30220051DC41E80F00700072DAE
:100E30004FF0010538BF0024042828BF042005FA1C
:100E400000F00138084005FA04F10F31A0401140CC
:100E5000084300011870B0BD00E400E005494FF6FA
:100E6000FF030A681A4060F30A220348104308602F
:100E7000704700BF0CED00E00000FA052DE9F041DD
:100E800004468846002C00F08780454BD3F80004C8
:100E900000F00700404507D283F80084D3F800042F
:100EA00000F00700404577D1206810F0020F11D004
:100EB000410742BF996841F4E0519960010742BF80
:100EC000996841F4604199609968A26821F0F00145
:100ED00011439960C0072DD06068811E022904D299
:100EE000196811F0007F0BD156E0012804D1196870
:100EF00011F4003F04D14FE0196811F0020F4BD0FC
:100F000099681D4621F0030108439860FFF70CFF24
:100F1000064641F288372B469868616800F00C005D
:100F2000B0EB810F06D0FFF7FFFE801BB842F2D96D
:100F3000032032E0D3F8000400F00700404507D951
:100F400083F80084D3F8000400F00700404523D163
:100F5000206810F0040F05D09968E26821F4E05190
:100F600011439960000706D59868216920F4604014
:100F700040EAC10098601C4600F032F8A168094AB6
:100F8000C1F30311515CC84012490860064800686B
:100F9000FFF7EEFE002000E00120C0B2BDE8F081C6
:100FA00000380240FE1D00080400002009480A49DC
:100FB0000A4A00680968C1F38221515CC840704741
:100FC00004480549054A00680968C1F34231515C8B
:100FD000C84070470C000020083802400E1E000870
:100FE00010B5EE4C606800F00C00082804D004280E
:100FF00014BF1048104810BD226820680E49002315
:1010000010F4800F02F03F0204BF42F20041C0F230
:10101000F4012068C0F38810A1FB0001FFF72EF94E
:1010200021680222C1F3014102EB4101B0FBF1F062
:1010300010BD00BF0024F40040787D012DE9F84385
:101040000446002C00F05D812078D34ED34FC007BA
:10105000B14651D0786800F00C00042807D1306800
:1010600010F4003F48D06068002845D149E1786815
:1010700000F00C00082803D1386810F4800FEED17E
:101080006668B6F5803F09D0C846B6F5A02FD8F8F7
:10109000000015D140F48020C8F800004E463068AA
:1010A00040F480303060FFF73FFE0546306810F4B2
:1010B000003F21D1FFF738FE401B6428F6D9BEE07F
:1010C00020F48030C8F80000D8F8000020F4802018
:1010D000C8F80000FFF728FE002E05464646E5D179
:1010E0004E46306810F4003F06D0FFF71DFE411B4E
:1010F00003206429F4D905E1207880072FD578688A
:1011000010F00C0F08D0786800F00C0008280BD104
:10111000386810F4800F07D1306810F0020F17D034
:10112000E068012814D0ECE0E068002800F0898035
:101130009B4801210160FFF7F7FD0546306810F07C
:10114000020F05D1FFF7F0FD401B0228F6D976E02B
:101150003068216920F0F80040EAC1003060207852
:10116000000722D561698E4879B10121C0F8801E3F
:10117000FFF7DAFD0546386F10F0020F15D1FFF7C3
:10118000D3FD401B0228F6D959E00021C0F8801E8B
:10119000FFF7CAFD0546386F10F0020F05D0FFF7C4
:1011A000C3FD401B0228F6D949E0207840077BD5D3
:1011B000F86B4FF0000810F0805F0CD1CDF8008084
:1011C0004FF00108F86B40F08050F863F86B00F0C6
:1011D000805000900098734E4846805910F4807FEC
:1011E00012D14946885940F480708851FFF79CFD20
:1011F00005464846805910F4807F05D1FFF794FDDD
:10120000401B0228F5D91AE0A668012E05D0F86E19
:10121000052E29D140F00400F866F86E40F0010078
:10122000F866FFF781FD054641F28836F86E10F04A
:10123000020F32D1FFF778FD401BB042F6D90320F0
:1012400060E0574800210160FFF76EFD0546484603
:10125000006810F0020F3FF482AFFFF765FD411BFD
:1012600003200229F3D94DE020F00100F866F86E62
:1012700020F00400F866FFF757FD0546002ED3D195
:1012800041F28836F86E10F0020F06D0FFF74CFDE1
:10129000411B0320B142F5D934E0B8F1000F1EBF65
:1012A000F86B20F08050F863A669002E71D0786842
:1012B00000F00C00082829D1012E22D03868E169FD
:1012C00000F480028A421CD1216A00F03F028A4267
:1012D00017D147F6C071626A0140B1EB821F10D18D
:1012E000A16A4FF6FF72C903914300F44032A1F5A1
:1012F00080318A4205D1E16A00F07060B0EB016F85
:1013000047D00120C0B201B0BDE8F08324490020DD
:1013100088460866FFF708FD0546022E0BD14846B1
:10132000006810F0007F12D0FFF7FEFC411B032085
:101330000229F4D9E6E74846006810F0007F28D07B
:10134000FFF7F2FC411B03200229F4D9DAE704F18C
:101350001C064FCE0843D90340EA82104FF6FF72B5
:10136000914340EA0660A1F58031084338600120CE
:10137000C8F86000FFF7D8FC04464846006810F043
:10138000007F06D1FFF7D0FC011B03200229F4D90E
:10139000B8E70020B6E700BF00380240043802403A
:1013A000000047420038FEFF411E0020B0EB116FE5
:1013B0001CBF01207047044AF023516003490B70A1
:1013C000072190601160704710E000E023ED00E01D
:1013D00090F83C300222012B2FD010B580F83D2030
:1013E000012280F83C200268D2F804E0D2F808C05C
:1013F0000C68B2F1804F2EF0700343EA040353608F
:10140000BDE810400ED0434B9A420BD0424B9A425B
:1014100008D0424B9A4205D0414B9A4202D0414BF0
:101420009A4204D149682CF080031943916000224C
:10143000012180F83C2080F83D10D0B2704700BFF9
:1014400010B5044634B394F83D0028B9002084F860
:101450003C00204600F020F80220211D84F83D00C9
:10146000206800F047FA012084F8460084F83E0026
:1014700084F83F0084F8400084F8410084F842007A
:1014800084F8430084F8440084F8450084F83D0063
:10149000002010BD012010BD0068B0F1804F18BFC2
:1014A000704781B0002000900548016841F00101BB
:1014B0000160006800F001000090009801B07047E2
:1014C0004038024090F83D1001291CBF01207047B0
:1014D000022180F83D100068B0F1804F0ED00D4918
:1014E00088420BD00C49884208D00C49884205D06C
:1014F0000B49884202D00B49884204D1816801F02F
:101500000701062903D0016841F0010101600020B4
:10151000704700BF0004004000080040000C00407D
:10152000004001400000014010B50446022094F83C
:101530003C20012A70D084F83D0001204FF67773DB
:1015400084F83C00206882689A4382600A6812B37B
:10155000102A20D0202A1ED0302A1CD0402A21D088
:10156000502A2BD0602A35D0B2F5005F3ED0B2F5BC
:10157000805F4AD0702A51D1D1E90123C9681A434A
:1015800042EA0121826822F47F421143816081682E
:1015900041F0770138E0816821F07701114341F093
:1015A000070131E04B68CA68194600F095FA2068D7
:1015B000816821F0770141F0470125E04B68CA6856
:1015C000194600F089FA2068816821F0770141F01E
:1015D000570119E04B68CA68194600F08EFA206876
:1015E000816821F0770141F067010DE0D1E9012325
:1015F000C9681A4342EA0121826822F47F421143FA
:101600008160816841F4804181600020002184F87C
:101610003C10012184F83D10C0B210BD0120F5E757
:1016200010B5044694F83C00012801D102201DE0C9
:101630004FEAB2020120032A84F83C0013D8DFE805
:1016400002F002060A0E206800F094F90AE0206811
:1016500000F0BCF906E0206800F0E8F902E020683C
:1016600000F014FA0020002184F83C10C0B210BD34
:1016700010B5044634B394F83D0028B9002084F82E
:101680003C00204600F020F80220211D84F83D0097
:10169000206800F02FF9012084F8460084F83E000D
:1016A00084F83F0084F8400084F8410084F8420048
:1016B00084F8430084F8440084F8450084F83D0031
:1016C000002010BD012010BD704710B5044644B382
:1016D00094F83D0028B9002084F83C00204600F032
:1016E00023F8242084F83D002068C16821F40051CB
:1016F000C160204600F012FA2068016921F490418F
:101700000161416921F02A014161C16841F4005140
:10171000C16000202021206484F83D1084F83E1030
:1017200010BD012010BD000010B586B0044601A810
:101730001421FEF7BEFE21681448814224D1002105
:10174000134A00F570400091536943F01003536150
:10175000536903F010030093009B0091136843F05A
:1017600001031360126802F001020092009A022243
:1017700002924FF4C0620192039103210491072168
:10178000059101A9FFF700FA06B010BD0010014055
:10179000303802402DE9F0470446994616460D467A
:1017A00094F83D00202806D101202DB126B194F8EF
:1017B0003C00012803D10220C0B2BDE8F0874FF001
:1017C000000A0120C4F840A084F83C00212084F8DD
:1017D0003D00FFF7A9FAA684E6848046A068B0F52C
:1017E000805F06D127690026002F0CBF2E462F46AA
:1017F00001E02F46002684F83CA015E02046802119
:1018000042464B4600F0F0F9C0B91FB117F8011B72
:10181000206805E036F8021B206800276FF35F217F
:101820004160E08C0138E084E08C0028E6D120465D
:10183000402142464B4600F0D7F908B10320BBE7F0
:10184000202084F83D000020B6E7FEE7FEE7FEE733
:1018500070477047FFF76CBAB0B592B006AC2C2158
:10186000201DFEF726FE01A81421FEF722FE00250A
:101870001A4802220095016841F080510160006819
:1018800000F080500090009800951548016862F3C0
:101890008F310160006800F4404000900098012002
:1018A0000990102006920A9020460C95FFF7C6FB7F
:1018B00018B1EFF3108072B6FEE70F20CDE90455A2
:1018C000CDE902550021019001A8FFF7D7FA18B120
:1018D000EFF3108072B6FEE712B0B0BD40380240A0
:1018E000007000400248016841F4700101607047D7
:1018F00088ED00E010B50368764AB0F1804F13D050
:10190000164CA04210D0164CA0420DD0154CA0424F
:101910000AD0154CA0420BD0144CA04208D0144C55
:10192000A04205D0904207D14C6823F070032343B6
:10193000CC6823F4407323434C6923F08003904226
:1019400043EA040303608B68C3620B68836204BFCD
:10195000096911630121416110BD00BF000400400D
:1019600000080040000C00400048014000400140D9
:101970000044014070B5026A22F001020262036A6B
:10198000D0F804E08269D1F800C08C6822F07302BC
:1019900023F002034CEA020C4E4A234390420CD13E
:1019A000CE68D1E905452EF44072224342EA050E85
:1019B00023F00C0226F004031343C0F804E0C0F83F
:1019C00018C049684163036270BD00BF70B5026A08
:1019D00022F010020262026AD0F804E08369D1F8B2
:1019E00000C08C6823F4E64322F0200243EA0C2C6A
:1019F000384B42EA041298420FD1CE68D1E905452E
:101A00002EF4406322F0C00243EA840343EA850EC9
:101A10006FF04F0303EA06131A43C0F804E0C0F85E
:101A200018C049688163026270BD00BF70B5026A68
:101A300022F480720262026AD0F804E0C369D1F82D
:101A400000C08C6823F0730322F400724CEA030C8C
:101A5000204B42EA042298420FD1CE68D1E90545D5
:101A60002EF4405322F4406243EA041340F2FF4450
:101A700043EA051E3302A3431A43C0F804E0C0F84A
:101A80001CC04968C163026270BD00BFB0B5026A84
:101A900022F480520262D0F820C0D0F804E0C56978
:101AA0008A680C682CF4005343EA023C094B25F485
:101AB000E64242EA0422984204D14B692EF4804562
:101AC00045EA831EC0F804E0C26149680164C0F8B9
:101AD00020C0B0BD00000140D0F820C0036A23F050
:101AE00001030362836923F0F00343EA0212826177
:101AF0002CF00A02114301627047036A23F01003BD
:101B00000362836923F4704343EA0232036A826109
:101B100023F0A00242EA011101627047B0B5044609
:101B200049F20C6520680169E26821F440511143D3
:101B30000161D4F808C0D4E90423D4F81CE0C168DA
:101B400042EA0C02A9431A4342EA0E021143C16061
:101B50004169A26921F4407111434161214940F476
:101B60008060884202D1FFF72BFA01E0FFF71EFAEE
:101B7000E26919216368A0FB0101B2F5004F16D19B
:101B80005A00DB0FFEF77AFB64216FF06303B0FBB2
:101B9000F1F202FB0300322303EBC000B0FBF1F1D2
:101BA0004FF4F87000EA410001F0070113E09A00D9
:101BB0009B0FFEF763FB64216FF06303B0FBF1F250
:101BC00002FB0300322303EB0010B0FBF1F101F044
:101BD000F00001F00F0100EB02100843216888605B
:101BE000B0BD00BF001401402DE9F0411D469046F4
:101BF0000F4604466E1C206800683840B84226D064
:101C0000002EF8D02DB1FFF78FF8A0EB0800A84206
:101C1000F1D9206850E8030F216820F4D07041E822
:101C20000302002AF5D1206850E8050F216820F052
:101C3000010041E80502002AF5D12020002184F8A6
:101C40003D0084F83C1084F83E00032000E00020B2
:101C5000C0B2BDE8F081FEE770B58EB0FFF76EF858
:101C6000FFF7FAFD00245048514D4FF0C0620126A5
:101C70000194016841F0010101604FF0805100685A
:101C800000F00100019001984848047680F8204057
:101C9000C0E90A2105F58051C66180F83040C0E9ED
:101CA0000014C0E90244C0E90446CDE90344CDE98B
:101CB0000144FEF71DFE18B1EFF3108072B6FEE787
:101CC0003A4801A9CDE901660394FEF7D7FC18B1A3
:101CD000EFF3108072B6FEE745484FF4E13100247F
:101CE0000822C0E90051C0E90244C0E90442C0E949
:101CF0000644FFF7EAFC18B1EFF3108072B6FEE776
:101D000001A81C21CDE90C44CDE90A44CDE90844E1
:101D1000FEF7CFFB274843F67F614FF080421E233A
:101D2000C0E90021C0E9024304618461FFF788FB38
:101D300018B1EFF3108072B6FEE74FF480500AA995
:101D40000A901C48FFF7F0FB18B1EFF3108072B651
:101D5000FEE71848FFF78CFC18B1EFF3108072B65D
:101D6000FEE70024202008A9099408901148FFF7F5
:101D70002FFB18B1EFF3108072B6FEE70D4801A9F2
:101D80000422CDE9014403940594FFF749FC18B1FE
:101D9000EFF3108072B6FEE70648FFF793FB0348A7
:101DA000FEF784FEFEE700BF30380240C00000208E
:101DB00000100140100100201CB50DF10604024680
:101DC00003A12046FEF7D2FA204600F003F81CBD1E
:101DD0002575000010B50446FEF74CFB82B204489E
:101DE00021464FF0FF33BDE81040FFF7D3BC00BFE2
:101DF000700000204FF04070E1EE100A70470000C4
:101E000000000000000001020304060708090000AA
:101E10000000010203040000401E00080000002032
:101E200010000000D0010008501E00081000002023
:101E300048070000EC01000800000000000000005E
:101E40000100000010000000000000000024F40069
:040000050800019559
:00000001FF
